:10000000403C0020892000007F7001007520000026
:100010007520000075200000752000000000000021
:100020000000000000000000000000004D21000062
:100030007520000000000000ED2000007520000089
:1000400019230000C5020100192300001923000034
:1000500019230000192300001923000019230000B0
:1000600019230000192300001923000019230000A0
:100070001923000019230000192300001923000090
:100080001923000019230000192300001923000080
:100090001923000019230000192300001923000070
:1000A0001923000019230000192300001923000060
:1000B0001923000019230000192300001923000050
:1000C0001923000019230000192300001923000040
:1000D0001923000019230000192300001923000030
:1000E0001923000019230000192300001923000020
:1000F0001923000019230000192300001923000010
:1001000053B94AB9002908BF00281CBF4FF0FF317E
:100110004FF0FF3000F00CB8ADF1080C6DE904CEE3
:1001200000F018F8DDF804E0DDE9022304B07047C0
:10013000704700BF034611F8012B03F8012B002A7A
:10014000F9D17047034613F8012B002AFBD1181A86
:10015000013870472DE9F04786468C460846089ED0
:10016000154674461946002B40F0C2808542B2FA0B
:1001700082F245D94AB1C2F1200300FA02FC2EFAFC
:1001800003F3954043EA0C0C94404FEA154EA8B295
:10019000BCFBFEF8230C0EFB18CC08FB00F943EA6D
:1001A0000C43994528D9EB1808F1FF3704D299453B
:1001B00002D9A8F102072B44A3EB0903A4B2B3FBB5
:1001C000FEFC0EFB1C330CFB00F044EA0344A0428F
:1001D00014D92C190CF1FF3304D2A04202D9ACF18E
:1001E00002032C44241A43EA07401EB1D4400023E2
:1001F00034607360BDE8F0874746DDE76346F1E7AA
:1002000092BB431B01214FEA154EAFB2B3FBFEFC7C
:10021000200C0EFB1C330CFB07F840EA0343984507
:1002200062D9EB180CF1FF3004D2984502D9ACF139
:1002300002002B44A3EB0803A4B2B3FBFEFC0EFBAD
:100240001C330CFB07F744EA0344A7424ED92C1990
:100250000CF1FF3304D2A74202D9ACF102032C44C3
:10026000E41B43EA0040C0E7C2F1200320FA03F197
:10027000954090402EFA03F303434FEA154EAFB278
:10028000B1FBFEFC0EFB1C10190C0CFB07F841EA3D
:100290000041884504FA02F422D969180CF1FF30B4
:1002A00004D2884502D9ACF102002944A1EB08012F
:1002B0009BB2B1FBFEFC0EFB1C110CFB07F743EAE3
:1002C00001439F420ED9EB180CF1FF3104D29F423B
:1002D00002D9ACF102012B44DB1B41EA004192E759
:1002E0006046E3E76146F7E76046A3E76346B7E7A2
:1002F000834206D916B9002108467BE7C6E900E02B
:10030000F9E7B3FA83F78FB9834201D3724508D86E
:10031000BEEB020460EB030301209C461EB90021E2
:1003200068E73846FAE7C6E9004CF8E7C7F1200C61
:10033000BB4022FA0CF41C432EFA0CF120FA0CF309
:10034000B84001434FEA14490EFA07F5B3FBF9F838
:100350001FFA84FE09FB18300B0C08FB0EFA43EA67
:1003600000439A4502FA07F240D9E31808F1FF303A
:1003700004D29A4502D9A8F102002344A3EB0A0350
:1003800089B2B3FBF9F809FB183308FB0EFE41EA0A
:1003900003418E452CD9611808F1FF3304D28E45F4
:1003A00002D9A8F10203214443EA0040A0FB0298CD
:1003B000A1EB0E014145CE46434602D306D14D4541
:1003C00004D2B9EB020E68EB04030138002EA6D06C
:1003D000B5EB0E0261EB030101FA0CFC22FA07F304
:1003E0004CEA0303F940C6E9003198E74046C5E707
:1003F0004346D9E7000000002DE9F843D0E907386B
:10040000856903EB08042F34A5420F46164619D818
:10041000DFF86C80A3FB080117A3D3E90023FFF7E3
:100420006FFE0346601BA0FB080123F07F4412A36C
:10043000D3E90023FFF764FE20F07F403C6030608A
:10044000BDE8F883DFF838900BA3D3E90023A5FBC0
:100450000901FFF755FE20F07F440A480A2106A350
:10046000D3E90023E8FB0901FFF74AFE20F07F40B3
:100470003C603060BDE8F8838D49FD1A070000003C
:1004800000CA9A3B00166BF1002800F030812DE97C
:10049000F04FC34C94F85E30DA078DB000F1618103
:1004A000627F94F8293004EB820204EB8303166A1E
:1004B000DF6A0EB3354615F8020BC0F3801007F063
:1004C00007FD0368C6F802308388AB8033785B068B
:1004D00006D50621284606F04FF8002800F0438193
:1004E0003D4615F8020BC0F3801007F0F1FC0368DD
:1004F000C7F802308388AB80337813F00E0F40F0DA
:100500008E8063691BB10C200DB0BDE8F08F08F040
:100510006FFB8146002800F0338108F075FB8246AE
:10052000002800F02A810AF0A7FF0546002800F005
:100530002981C06E4FF6FF73AB8405F1100B0028C4
:1005400000F0178105F1600205F15C0106F020F86A
:10055000B5F8583023F4EF6323F0070343F48C73AA
:1005600043F00103A5F8583095F8373003F03F0306
:1005700063F07F0385F8373095F8723023F0070376
:1005800085F8723095F83C3023F00F034FF00008E7
:1005900085F83C304FF4C023C5F870312846C5E9D2
:1005A0001288C5F86C80A5F8708085F83980A5F8A8
:1005B0002A80C5F82E80C5F85080A5F87681A5F868
:1005C0006C810CF0EBFD85F83881C5F83C910BF09F
:1005D000DBF995F87C3160F3020385F87C310BF090
:1005E000D9F995F87C3160F3C50385F87C3195F82D
:1005F000683168F3410385F8683105F1B8000CF003
:10060000BFFBC4E9159AC4F814B0C5E9028885F89F
:1006100000802D6110F066FC002840F0A680237E4B
:100620000121C3F342030DF12B008DF82B3006F0AE
:100630004BF9024600285CD0797830460AF036FA49
:100640005849594BB4F85C70A0FB0101C0184FF039
:10065000000551A3D3E9002341F10701C4E9025584
:100660002570FFF74DFD606007F0F6FB00F109080B
:100670003FB9357805F00F05A5F10105B5FA85F507
:100680006D09207E636865F3000010F00105207697
:1006900036D0464A0992002010600225444A454F50
:1006A00004930BAE019305920321CDE90200069459
:1006B00043460090089607972A460B9507F0CEFA16
:1006C000314608F029FBA0B93B4905914AF2D833DD
:1006D0000093CDE90300CDE9010007970896069441
:1006E0004346012203210B9507F09CFA2EE00AF005
:1006F00031B96369002B3FF406AF0AF0E7F802E76F
:100700002A4A2E48049303F2471306940295912136
:100710001360A7FB000301FB0731264B0793244B13
:1007200005934FF6FF730992022703930BAE1AA3AA
:10073000D3E900230B970896FFF7E2FC4346CDE987
:1007400000503A462846032107F088FA314608F05F
:10075000E3FA0028CDD194F85E3043F0010384F829
:100760005E300020D0E61220CEE60AF0AFF803207B
:10077000CAE605F16400E866E4E6484608F03EFA99
:100780000720C1E6504608F045FA484608F036FA18
:10079000F6E700BFAFF300808D49FD1A07000000A7
:1007A0004C19002000CA9A3B8C49FD1A40190020C0
:1007B00029AB0000B97F000031A60000002AE784C1
:1007C00070B5037E8AB0C3F342030D46044601218F
:1007D0000DF1230016468DF8233006F075F8717878
:1007E000024628460AF062F91F49204AA0FB01315F
:1007F000981841F107011AA3D3E90023FFF780FC01
:1008000063689842054621D21B1A00220192184AB9
:100810000293184BA21AA3FB023202219209002371
:100820000A4409AE099114490591CDE90333032126
:10083000D2B206960093184607F070FA314608F0D7
:100840006BFA38B9656000200AB070BDFBD9C21AD6
:100850000023DBE70C200AB070BD00BFAFF30080BF
:100860008D49FD1A0700000000CA9A3B8C49FD1A09
:100870004C190020ABAAAAAAB97F00000000000012
:100880002DE9F04F06468DB08A4601200221994697
:10089000154612F08FF900220B900221012005F07D
:1008A000C7FE3B494FF4C072304605F051FEC71CED
:1008B000384B0093FFB201964B463A460121002087
:1008C00007F086FA10F0FD0F0ED0334A3349344852
:1008D00040F6B40316F07BFA002383F31188BFF3CC
:1008E0006F8F0323184602DF2E4CA5FB044526A379
:1008F000D3E9002320462946FFF702FC0896069616
:1009000073680493284B20F07F48A8FB0331E01A5A
:10091000264B07934FF00702254B059302FB081166
:100920004FF6FE7365EB010103934FF47A720023D7
:10093000FFF7E6FB4FF0000BCDE90180CDF800A0FA
:100940004B463A460121584607F06CF910F0FD0F6E
:100950000DD0114A1149124840F6C90316F037FA72
:100960008BF31188BFF36F8F0323184602DF0B9BB5
:1009700013B90DB0BDE8F08F0122022110460DB071
:10098000BDE8F04F05F054BE8D49FD1A0700000088
:1009900058090020A9B300004CAC010010AD0100C3
:1009A00004A7010000CA9A3B8D49FD1A49B3000013
:1009B000ADFF0000000000002DE9F0418468A28C2A
:1009C0004FF6FF739A428CB044D0054620460CF097
:1009D00059FE2B7D012B00F03981022B00F02C8178
:1009E000002B00F00B8194F83861002E40F0278135
:1009F0002B8AE78D94F93720CDE90A666BB3002A7C
:100A0000C0F271810023A4F87231AB7CA28D03F097
:100A10000303551C012BADB23AD0B4F87631002B4C
:100A200000F01D81AB4240F271815B1B9BB2002242
:100A3000062BA4F87631E28540F20E8194F9373026
:100A40009342C0F26881002325E09DF827102046DC
:100A50000BF07EF80CB0BDE8F081002AB8BF84F836
:100A60005D61AB7CA28D03F00303551C012BADB27D
:100A70000ED0B4F87231002BCFD0AB4240F255818A
:100A80005B1BA4F87231B4F87631002BCAD102E0B6
:100A90000023A4F8763194F83C2063F3820284F8B2
:100AA0003C2029460DF1270220460CF0B3FB7430A0
:100AB000CBD0B4F870312BB1AB4240F205815B1B57
:100AC000A4F87031B4F86C312BB1AB4240F2F38032
:100AD0005B1BA4F86C31E58D16B9AF4200F0E280E3
:100AE0000135ADB294F8B53013F0010731D1DDE92D
:100AF0000A130A46002B40F0E580002900F0D4805C
:100B00001F461846A28C24690694CDE90356033289
:100B1000A54D0290CDE90017D2B201210020059524
:100B200007F0FCF810F0FD0F94D008F01FF9844294
:100B300090D09E4A9E499F4840F2825316F047F952
:100B4000002383F31188BFF36F8F0323184602DF5E
:100B500080E794F937206FF30003002A84F8B5305A
:100B6000C0F2988094F85800C0F3C00100F007006C
:100B70000FF0D4FF94F8582094F8593002F0030194
:100B80002831C2F34002C900D14003F003022832E9
:100B9000C3F34003D200DA40E38B03F23F13B1F515
:100BA000A07F2CBF5B1803F5A073B2F5A07F2CBF0C
:100BB0009B1803F5A07303447F4A80480721E3FB99
:100BC0000021104676A3D3E90023FFF799FADDE967
:100BD0000A1320F07F4260686260904235BF171AA6
:100BE000801A002000270A46002B8BD157EA010CFF
:100BF00088D1002858D019461F4683E794F87230F0
:100C000003F01803182B7FF4EEAE218DB4F86E219B
:100C10008B1D9A42C4BF931F5B1AB4F86A11CCBFF4
:100C20009BB21346994200F09C80A4F86A31A4F864
:100C30006C31A4F87021D6E63D2684F8386131463F
:100C400020460CB0BDE8F0410AF082BF0023A4F8B2
:100C50007031A4F86C31C6E6012633461BE7E28CFE
:100C6000052A97BF013240F2E2434FF4FA7392B281
:100C700003FB02F2B4F8743142F2107101FB03235A
:100C8000013BB3FBF2F39BB2A4F87631002B7FF467
:100C9000C9AE00E794F85900012100F007000FF0F9
:100CA0003FFF67E735461DE7002D43D0002711467B
:100CB00038463B4626E70023A4F86C3120460CF06A
:100CC0004BFB08E738461DE707F0E4FF0146A0B3F9
:100CD0000023A4F87031A38CC3801B230371006828
:100CE00007F0AAFFEEE694F85D316BB3013B84F8A0
:100CF0005D3104F1B80840460CF084F8B8B34046C2
:100D00000CF080F8B8B30023E3857BE60821204689
:100D10000AF01EFF9EE6A7B9D4F860315A0813F016
:100D2000010336D1C4F860218DE63E2120460AF049
:100D30000FFF8FE6002EB9D18CE60123A4F87031A5
:100D4000C0E613460126A6E60AAA0BA92846FFF725
:100D500053FBDDE90A231343CBD0237884F85D31BC
:100D6000C7E7B4F8701100297FF43DAE5FE7FF20BC
:100D70000AF0B0FEC3E70246D4E9170105F020FCF3
:100D80000028C0D194F83C301B0744BF238DE38575
:100D900038E642F000421E46C4F860213B467AE63F
:100DA0008D49FD1A0700000005B300004CAC01009E
:100DB0008CAD010004A701008C49FD1A00CA9A3BC2
:100DC0002DE9F04F87B0CDE90423BDF84420037826
:100DD0000292BDF84820BDF840B0BDF84C90078E97
:100DE000019104460392002B00F02781013FBFB21E
:100DF00094F85800D4F8F480A7EB09039DB2C0F32F
:100E0000C00100F0070000950FF088FEE68C052E6B
:100E100040F20B8116FB05F6B6B240F2E24ABBF196
:100E2000050F40F2F68094F8592094F8581002F01B
:100E300003032833C2F34002DB00D34001F0030276
:100E40002832B3F5A47FC1F340014FEAC20222FA6F
:100E500001F238BF4FF4A473B2F5A47F2CBF9B18E6
:100E600003F5A47303F2D5131844834A834B072177
:100E7000E0FB023118464FF09613E361962323847A
:100E80007BA3D3E90023FFF73BF95D4620F07F40C9
:100E900040F2E2430AFB06F103FB05F54B1E2B442F
:100EA000B3FBF5F31FFA83FA05FB0AF3994260607E
:100EB000564680F0A0807048591AA1FB00016CA32F
:100EC000D3E90023FFF71CF920F07F408044638DB5
:100ED000B4F8FC201344994494F83730A9EB07097F
:100EE0004E44DB09668500F0AF80236C0099624FA9
:100EF00003FB01F102FB03320B46A16C0A44616C57
:100F00008A4294BFC3EB0203C3EB0103A36410F056
:100F100039F8064694F85C01C0F3420010F034F84A
:100F2000064405FB06F6564B06F5742606F23F26E8
:100F3000A3FB0636B60CA36C26640AFB06F06A080F
:100F40000344963A934228BF1346C4E91123049BF5
:100F500040F2E24909FB03F323650023A0FB0701EC
:100F6000C4F8643142A3D3E90023FFF7C9F8454B25
:100F7000059AA8EB0008A3FB0230800A09FB00F0E9
:100F8000A0FB07013AA3D3E90023FFF7B9F8AE1B92
:100F900020F07F47029B2385039BA4F874312946E8
:100FA0002046A4F826B00CF071F9374B218D2B4464
:100FB000881DB3FBF5F39AB29042A4F86E2104D2D7
:100FC000C1F57F41FA310A4492B2019BA4F86A212B
:100FD00013B10023A4F87631434632463946204601
:100FE000FFF74EFC94F8683143F0010384F8683150
:100FF00007B0BDE8F08F2048C91AA1FB00011CA36F
:10100000D3E90023FFF77CF820F07F40A8EB00082D
:101010005DE74FF096130BF10105E36196232384FE
:10102000ADB20A204FF4FA7334E7009B013616FB89
:1010300003F6B6B24FF4FA7AF1E6438D1F44B0F8E6
:10104000FC301F44BFB2D3E6104A1149114840F6A4
:10105000851315F0BCFE002787F31188BFF36F8F4F
:101060000323184602DF2E4694E700BFAFF300804B
:101070008D49FD1A0700000000CA9A3B8C49FD1AF1
:1010800083DE1B435917B7D17FC3C9014CAC0100A4
:10109000E0A7010004A701002DE9F04F1346154613
:1010A0000A6853F8087BD2F800A0B0F82EC00246B8
:1010B000044652F82EBBD0F81E0094F81C900E4641
:1010C0009178628CA5F808C09970D4F82A306B60CA
:1010D00091B0D4F83A30C5F82230ADF83C2094F8FD
:1010E0003E2085F826200E9010AA12E9030005F193
:1010F00022030C90ADF834101846052105F0E4FBEE
:1011000095F8273000F03F0060F3050385F827309D
:1011100094F83F30C3F3040285F82820A28EEA82B7
:101120000128C9F380190DD903F01F031B3303F005
:101130001F030B2B06D892B2063A92B240F67A43BE
:101140009A4217D90022CAF8082095F82C3062F389
:10115000000385F82C300126E568267158462146A3
:1011600007F05EFD28682E71294611B0BDE8F04FEA
:1011700007F062BD336800215960E38EB5F8168030
:101180002B8340F2E24303FB08F83846638E0B934F
:101190000CF090F894F83F2097F85C11520962F334
:1011A000430187F85C110FF0EDFE0A9097F85C019F
:1011B000C0F342000FF0E8FE0A9A104408FB00F06A
:1011C000B74A00F5742000F23F20A2FB00204FEA4E
:1011D0005802800C963A28636A6394F8312040F2F2
:1011E000E24302FB03F36B64238FA7F8743141469B
:1011F00038460CF04BF8AB4BAB4AC7F87821434468
:10120000B3FBF8F39AB2A7F86E21298B881D8242AE
:1012100004DDC1F57F41FA310A4492B2A7F86A2190
:101220006B68C7F86031234613F81C2FC2F34012D5
:101230000A92DA0700F10C81BDF83430A4F82330AB
:101240000C9884F81E904FF48073C4F81F00A38399
:10125000EB8AE3842B8B2385B7F87431638597F889
:101260005C31C3F3420384F82C3038460AF010F99D
:10127000A882E08021465846746807F0D1FCAB8A0A
:10128000E3801C2323710A9BD4F80090002B40F0CC
:10129000D3800A9B23772146484607F0CDFC95F87A
:1012A000499095F848B009F007090BF0070B0121A8
:1012B00048460FF035FC0BF003032833CBF3400B0B
:1012C00009F00302DB0023FA0BF32832B3F5A47F05
:1012D000C9F340094FEAC20238BF4FF4A47322FA9F
:1012E00009F2B2F5A47F2CBF9B1803F5A47303F297
:1012F000D5130344DFF8B49104466D480721E3FB9E
:1013000009014FF09613C5E9033363A3D3E9002322
:10131000FEF7F6FE20F07F407860F3680B982A6BAA
:1013200040F2E24101FB003101F2B341891A0C1B8A
:1013300001200221A8EB0208002205F079F95046AD
:1013400009F0ACFD0246A4FB0901144652A3D3E9FF
:101350000023FEF7D5FECDF804A0B36855490091EF
:1013600020F07F4BA21C3A3BD2B25B44012100200B
:1013700006F02EFD01287AD09AF81830DB0753D4F6
:1013800038460AF085F8494BA8FB0389044642A376
:10139000D3E9002340464946FEF7B2FE464BB66805
:1013A000464A079220F07F45A5FB0331B8EB0300C6
:1013B000434B05934FF4F873069708937B684FF0FF
:1013C000000ACDE903A34FF0070303FB051169EB06
:1013D00001014FF47A720023FEF792FE03343A3E85
:1013E000E4B2CDE90150CDF800B0334622460121E8
:1013F000504606F017FC10F0FD0F0DD0314A32496F
:10140000324840F2F11315F0E2FC8AF31188BFF381
:101410006F8F0323184602DF01220221104611B00C
:10142000BDE8F04F05F004B90023012200931846EF
:10143000114606F08BFCA3E795F8273043F04003F4
:1014400085F82730281D0EF0C7FE0123288521E7E7
:101450001C4A1F491D48FD2315F0B9FC002383F3E6
:101460001188BFF36F8F0323184602DFE4E607F00D
:101470007DFC824580D0134A164914484FF42673E8
:1014800015F0A5FC002383F31188BFF36F8F0323AE
:10149000184602DF70E700BF8D49FD1A0700000003
:1014A00083DE1B437FC3C901404B4C0000CA9A3BFB
:1014B0008C49FD1A6DFF00008D49FD1A39FF0000AF
:1014C000ADFF000028B2010010AD010004A701002B
:1014D00020AA010084B20100F0B5C468636883B03B
:1014E0000546002B4FD110F077FF002010F09AFF37
:1014F0000021084610F088FF00222521082010F066
:10150000C5FF3D4B019301A810F0ACFF3B4940F2F1
:101510005B6011F05BF8237AC3F3420262F30613B7
:10152000237220460FF036FF27682E6838460FF0EA
:101530009DFA06446A6806F10901012011F06EF96E
:1015400011F02CFA204609F0B5FC811C3246C9B2D4
:1015500038460FF08DFA054600BB20460FF02EFAF4
:1015600010B9002003B0F0BD254A2649264840F2B4
:10157000294315F02CFC85F31188BFF36F8F0323EB
:10158000184602DFEDE793F82C309B07ABD01F48DD
:10159000214610F0DFFE10F0C5FFE2E7184A1C49B3
:1015A000194840F2114315F012FC1A4B0721A5FB14
:1015B000030301FB05310EA3D3E90023FEF7A0FDD1
:1015C00015490246154815F002FC002585F31188DF
:1015D000BFF36F8F0323184602DF1148214610F036
:1015E000B9FE10F09FFF6FF08B00BBE7AFF30080F8
:1015F00000CA9A3B00000000D6BE898E55555500A2
:1016000064B40100ECA8010004A70100F90B01007B
:10161000E0A701008D49FD1A14B50100E8B40100EE
:10162000950F0100000000002DE9F041C468A28A76
:101630004FF6FF739A4282B000F0DF80054610F04B
:101640005FF92B89628B208CA3831A4492B21044D9
:1016500094F82730E28380B2411C21845E064FF06B
:101660000001618304F1220100F1A18003F03F0039
:101670000B4694F82810009004F129000EF064FD48
:101680000646D4E90C31A28B02FB0333A26B134450
:10169000E26B8B4294BFD21852188A4228BF0A4686
:1016A000E263616C226C94F849301144616494F8EF
:1016B000622094F82C10C3F3020363F3061112F0B6
:1016C00004024FF0000384F82C10A363236478D045
:1016D00010F082FE002010F0A5FE201D10F0C2FECA
:1016E0002389A17A40F25B6043EA014110F06EFF6A
:1016F00030460FF0CFF92146594810F02BFEA08953
:1017000011F080F894F8482094F84900C2F3C0031F
:10171000002102F0070200F0070010F0BDFF204694
:1017200010F0A0F927682E6838460FF09FF906449C
:101730006A6806F10901002011F070F8804611F086
:1017400001F9002011F018F9E36B94F8490003F156
:101750002F02636C00F00700012103EB420510F03B
:10176000D3FE4544054494F8490000F007000228E0
:1017700025D004280CBF4FF4BC73282301211D443D
:1017800010F0C4FE284411F0CFF8A18A033132468C
:10179000C9B238460FF06CF90546002834D120460E
:1017A0000FF00CF9D0B9002002B0BDE8F0810A4674
:1017B00003F03F03218D0EF013FD064661E7182369
:1017C000DCE7D4E9130104F0FBFE002880D194F893
:1017D000623043F0040384F8623079E7214A2249F9
:1017E00022484FF4B07315F0F2FA85F31188BFF375
:1017F0006F8F0323184602DFD5E71D48214610F0FE
:10180000A9FD10F08FFECEE7164A1A4917484FF48B
:10181000AB7315F0DCFA184B0721A5FB030301FBA2
:1018200005310DA3D3E90023FEF76AFC13490246F4
:10183000134815F0CCFA002585F31188BFF36F8F9C
:101840000323184602DF0F48214610F083FD10F0F5
:1018500069FE6FF08B00A7E700CA9A3B000000000A
:10186000CD1C0100A0B50100ECA8010004A70100F7
:10187000F90B0100E0A701008D49FD1AF4B5010044
:10188000E8B40100D90B01002DE9F04F89B003281D
:10189000059152D82C4B53F82030D3E900629D6853
:1018A0009B8902920493B36802995B6806AA30464A
:1018B000984700283BDBDDE9064BA5FB0423039298
:1018C00005FB0B380398DFF884901DA3D3E90023B0
:1018D0004146FEF715FC039B4FF0FF3A9A4579EB22
:1018E0000803074626D3059B642B28BF6423C3F156
:1018F00064036422B5FBF2F56B43A3FB045403FBC2
:101900000B4421460EA3D3E900232846FEF7F8FB3B
:10191000AA4579EB040403460CD38742B2680CD382
:1019200004990091146802993A463046A04709B0DC
:10193000BDE8F08F6FF08500F9E76FF01500F6E76E
:1019400000CA9A3B000000006CB80100FFC99A3B36
:101950002DE9F84FBDF828500846EE18142ED0F89F
:101960000C90114698461F4608DD2448314615F074
:1019700021FA6FF006073846BDE8F88F09EB050A33
:101980001A465046002418F05AFA09F8064029462B
:101990001B481C4EDFF870B0424615F00BFA554656
:1019A000DFF868A0A0451CD1194815F003FA1949C1
:1019B0000622484618F083FA28B9012112F0CCFB20
:1019C000154815F0F7F915490722484618F077FA37
:1019D00001460028CFD112F0BFFB114815F0EAF9FB
:1019E000C9E715F8013B002C0CBF314651461A4699
:1019F000584615F0DFF90134D4E700BFF2B8010012
:101A000021B90100BEB901004AB90100F0B80100D6
:101A1000BDB9010057B901005EB901006EB90100FE
:101A200076B9010070B500208EB001F0ABFC014624
:101A300028B11C4815F0BEF900200EB070BD1A4D3B
:101A40001A4815F0B7F90FCD03AC0FC42B6823600B
:101A50000123174900930222164B03A802F0DAF97A
:101A60000146E0B9144D154E00214FF4004018F026
:101A7000ABF81148FEF766FB18220446002108A8BF
:101A800018F005FA08A90020CDE90965ADF82C4049
:101A900004F0DAFB0A4A136801331360E4E70948EB
:101AA000C8E700BF87B9010040A30100A7B9010042
:101AB000D0A30100C8A3010098040020A0A3010046
:101AC000C00D0020BFB90100014B1B68184700BFC3
:101AD00088010020014B1860704700BF880100207A
:101AE00030B585B004460D4610220021684618F036
:101AF000CEF902238DF802302A46044B0193214689
:101B0000684614F073FD05B030BD00BFC91A00006F
:101B100080B505460E461746984614F055FA03461A
:101B200018F04AFADFF81890044649F800304246A7
:101B300030463946A84754F8090000F0C1FA00BF02
:101B4000080000002DE9F047058B04462807904661
:101B500011D4022905F0070540F0CC80204615F08D
:101B60005EF978B10138218B042811D8DFE800F044
:101B7000C2106D85950001290CBF45F0100545F098
:101B80002005258388F31188BFF36F8FBDE8F087A8
:101B900001F0070AAA4500F0A5800027B9463E4695
:101BA000A368002B00F0BC8041F00801218388F37A
:101BB0001188BFF36F8FA168002900F0BA800D680B
:101BC000002900F0B680D1F8048033465246204602
:101BD000C047002D76D02B6829461D46F0E701F05E
:101BE00007035A1F012A1BD8002221F00701062BE8
:101BF000276889B2C4E9002209D13B4603E0628B21
:101C0000013262831B68002BF9D141F0020121836C
:101C1000204615F004F900287AD041F0200176E042
:101C2000042B0AD121F0070189B22183204615F047
:101C3000F6F810B141F020012183218B01F0070A51
:101C4000AA454FD00027B946AAE7236921F007012A
:101C500041F00601062DD3F8009021832DD1B9F172
:101C6000000F3FD041F00801218388F31188BFF3B2
:101C70006F8F3A492046C84729E021F007012369C0
:101C800041F0040189B2042DD3F804902183E6D0F9
:101C900000273E464FF0040A82E721F0070123693E
:101CA00041F0050189B2052DD3F808902183D6D0E3
:101CB00000273E464FF0050A72E700273E464FF0E8
:101CC000060A6DE72B4687E7B9F1000FD1D1EFF394
:101CD0001188202383F31288BFF36F8F238B23F0A7
:101CE00008032383258BEA062ED525F010032383D2
:101CF00005F007056669218B002EBFF670AF002343
:101D00002768C4E9003321F0070141F00101218374
:101D1000218B01F0070AAA454FF000097FF440AF7C
:101D2000002F9CD041F00801218388F31188BFF374
:101D30006F8F002FC8D03D68394633465246204643
:101D400015F099F82F46F4E7AB067FF51BAF25F0A9
:101D50002003238305F0070500E700BFA36E010001
:101D6000014B036000207047E0A3010030BFFFF784
:101D7000FDBF00BF2DE9F0410B4EDFF8308006EBD0
:101D80000807CC1B054632460949204618F057F88B
:101D9000A01942460021083C18F079F86C6707F159
:101DA0000800BDE8F08100BF000000000400000052
:101DB00040A30100054B5A699B689A421FBF044A21
:101DC000536843F080535360704700BF44230020A2
:101DD00000ED00E070B5264B15469A6A12F0100F20
:101DE0009A6A14BF1124102412F0080F9A6A18BFBF
:101DF0001224920706460AD5586B9A6A140634D5FF
:101E000019B19A6A22F080029A62132401E06FF0FD
:101E10001500174B9A6A12F0010F9A6A18BF142422
:101E200012F0200F9A6A18BF1524D20602D49B6ABA
:101E30009B070AD50E4B5B68190506D5314600F0A5
:101E400025FA10B180F309880224094B9A6A920698
:101E500042BF5A6A22F400525A629A6A42F0FF0262
:101E60009A6200232B70204670BD6FF01500CCE7FE
:101E700000ED00E0134B9A6A12F0007F9A6A14BFDB
:101E80001E201D2012F0807F9A6A18BF1F2012F4B6
:101E9000002F9A6A18BF212012F4802F9A6A18BF67
:101EA000222012F4003F9A6A18BF232012F4803FC8
:101EB0009A6A6FEA02426FEA12429A6218BF2420BD
:101EC000704700BF00ED00E010B5194B0246986A5C
:101ED0009C6A10F4805F14BF1720162014F4006F62
:101EE0009C6A18BF1820A40509D5986B986A00044D
:101EF00004D51AB19A6A22F400429A6219200C4B56
:101F00009A6A12F4806F9A6A18BF1A20D2050CD40C
:101F10009B6A13F4005F18BF1C20054A936A43F4C0
:101F20007F43936200230B7010BD1B20F5E700BFB9
:101F300000ED00E0F0B5484B5B688BB00446C3F39E
:101F40000803002585F31188BFF36F8F02F07F40EF
:101F5000B0F17F4F11D102F00C0008280DD010070E
:101F60004CBF0C4601250022033B8DF80720032BB4
:101F700005D8DFE803F0246367602C46F3E700230D
:101F80009DF80720CAB902AE04F1200720686168F5
:101F9000324603C20834BC421646F7D1099A002DD6
:101FA00054D0C2F3080121B96FEA52226FEA4222EB
:101FB000099202A9184615F058F80BB0F0BD264B4F
:101FC000DA6A9107DBD4DA6A002AD8DBDA6A5200CF
:101FD000D5D55A69A16942F480725A61BFF34F8F17
:101FE000BFF36F8F5A6931F8021C22F480725A6174
:101FF000BFF34F8FBFF36F8F4DF6027291420AD03D
:102000009A6AD2B24AB10DF1070201212046FFF7C8
:10201000E1FE0346B4E72368B2E79A6A12F47F4F01
:1020200005D00DF107010120FFF74EFFF1E79B6A94
:10203000B3F5803FA3D3FFF71DFFEAE70DF10702D9
:102040000021E3E70DF107010020EDE722F4FF7224
:1020500022F00102ACE700BF00ED00E0044B5A693A
:1020600042F010025A615A6922F008025A61704720
:1020700000ED00E0EFF30880EFF3098101B572464F
:10208000FFF758FF01BD00BF0B4880F3088812F02E
:1020900097F8202080F3118808484FF40461401815
:1020A00080F30988EFF314800221084380F3148839
:1020B000BFF36F8F00F0B2F8403C0020802E00206C
:1020C000084B9B6883420BD1EFF3058343B1064B6A
:1020D0005A6842F080525A605A6A22F400425A62A8
:1020E00013F078BF4423002000ED00E014498A6813
:1020F0004FF030001044EFF3098C80E8F01F2020EF
:1021000080F31288BFF36F8F0E4F4FF000664A695D
:102110008A603E60506F0C4C2060906F0023936784
:1021200080F3118804B5104600F014F9BDE80440AE
:1021300002F1300090E8F01F8CF30988704700002E
:102140004423002004ED00E0DC0D00201EF0040F0D
:102150000CBFEFF30880EFF30980816911F8021CCE
:102160000229FFD001B5724614F085FF01BD00BF02
:1021700040B2002807DB044A4109012300F01F0098
:10218000834042F82130704700E100E040B200286F
:102190000CDB4309064900F01F0020330122824076
:1021A00041F82320BFF34F8FBFF36F8F704700BFFD
:1021B00000E100E0054B420900F01F0053F8222027
:1021C000012303FA00F01040704700BF00E100E077
:1021D00040B20028A8BF00F1604001F10101B8BF82
:1021E000064B4FEA4111ACBF00F5614000F00F0013
:1021F000C9B2B4BF195480F80013704714ED00E061
:10220000044B054A23F07F039360BFF34F8FBFF366
:102210006F8F70470000000000ED00E008B5FFF789
:10222000EFFF0B4AD2F8883023F47003C2F88830ED
:10223000EFF3148323F0040383F31488BFF36F8F49
:1022400012F0E2FF13F0FAFF00F05AF813F020F852
:1022500000ED00E042F8203C009B42F81C3C0A499B
:10226000019B42F8183C029B42F8143C21F001010A
:102270004FF0807342F8043C42F8081C0023203AD7
:1022800002658367704700BF111B0000094A0346BF
:10229000906870B113F1160F406E05D0A0F14002A6
:1022A0009A4205D8834203D2814228BF002070475A
:1022B000002070474423002008B515460B4A0C4BFC
:1022C0009060426F1A600E4600F044F82C4686F388
:1022D00009880020034B9847204600210022002354
:1022E000014C204795700100111B00004423002081
:1022F000DC0D0020014B10221A61704700ED00E058
:10230000044800232021C2180133302B82F8001327
:10231000F9D1704700E100E008B5EFF30583064A04
:10232000103B02EBC30152F8330049688847BDE80F
:102330000840FFF73FBD00BF1CA10100024B034A4C
:102340000348012100F076B80000042000000020BE
:10235000E0A30100426E054B403A1A60044A402156
:10236000C3E901121846012100F06EB8E00D00200B
:1023700000000B15084AC2F898000B6823F01F03F1
:10238000034343F01003C2F89C308B6843F0010311
:10239000C2F8A030704700BF00ED00E02DE9F04327
:1023A000DFF8608085B00E461F4604464FF00009F6
:1023B000B14523DA6068D8B13FB1411E08421BD154
:1023C0001F2819D92368194216D12368019314F0E4
:1023D00084FEA36803430393D8F89050C5F3072500
:1023E000D0B2013DA84207D801A9FFF7C3FF421CA4
:1023F00009F101090C34DBE76FF01502104605B056
:10240000BDE8F08300ED00E0044B0522C3F8942002
:10241000BFF34F8FBFF36F8F704700BF00ED00E039
:10242000BFF35F8F024B0022C3F89420704700BFB8
:1024300000ED00E010B5034C01232278FFF7AEFF5A
:10244000207010BD9A23002008B50B4A0023127893
:10245000FFF7A4FF10F1160F07D0084A0021D2F8A9
:102460009030C3F30723984200DB08BDC2F8980000
:10247000C2F8A0100130F2E79A23002000ED00E03E
:102480002DE9F043534B544CD3F890302568C3F3F7
:1024900007239D4285B000F29A80FFF7C1FF00201C
:1024A0000C2685421AD14D4C4D4F25706846FFF7DA
:1024B00057FCDFF82081DFF82C9106460025AE425C
:1024C00013D1237843490020D1F89020C2F307228A
:1024D000934276DBFFF798FF002042E0616806FB3D
:1024E0000011FFF747FF0130DBE7009800EB051113
:1024F0004FEA051CCB683B40B3F5000F48D00AD823
:10250000B3F5001F30D0B3F5800F36D0B3F5801F80
:1025100010D00135D3E7B3F1807F42D0B3F1007F13
:10252000F7D150F80C3088684A6814F0D6FD40F4B2
:10253000802009E050F80C3088684A6814F0CDFD1E
:1025400040F0885040F43020CDE901230390D8F8C2
:1025500090302078C3F30723013B98422AD96FF0CB
:10256000150005B0BDE8F08350F80C3088684A6863
:1025700014F0B3FD40EA0900E6E750F80C30886833
:102580004A6814F0AAFD40F0C06040F40030DBE778
:1025900050F80C3088684A6814F09FFD40F0827053
:1025A000D2E750F80C3088684A6814F096FD40F085
:1025B0008870C9E701A9FFF7DDFE23780133237096
:1025C000A7E7C1F89830C1F8A00001337CE74FF0CD
:1025D000FF30C6E700ED00E0ECA301009A230020E5
:1025E0000000F0FF0000081108B5024B1B68984777
:1025F000002008BDEC0D0020034B044A18609378BE
:1026000043F0020393707047EC0D00208C01002012
:1026100008B50649064821F00701C1F1005202F54C
:10262000802214F088FB002008BD00BF074F002067
:10263000F00D002070B54169867A0B4D044659B102
:10264000437ADB0706D42C2303FB06535B6A1B6823
:102650009B689847002363612C20214606FB0050AD
:10266000BDE8704017F013B954050020024B2C222E
:1026700002FB0030704700BF54050020827A064BF1
:102680002C2101FB02339A6A1B7F1B33801A23F033
:102690000303B0FBF3F070475405002038B5074B37
:1026A000827A2C2404FB02335B6AD3E901240C6098
:1026B0001568FFF7E3FF04FB005038BD5405002008
:1026C0002DE9F04385B005466846039190461C46C7
:1026D00017F006FBDDE90067EFF31189202383F390
:1026E0001288BFF36F8F6B8B002B41D02A8B9A42DD
:1026F00025D900220023284612F084FE0446F0B1BA
:1027000089F31188BFF36F8F039B002B41D03246B2
:102710003B46684617F009FBA27A264B2C2101FBA9
:10272000023320465B6A1B6803A91D68DDE90023AC
:10273000A847606170BB2046FFF77CFF24E0698BEF
:102740004B1E6B8389F31188BFF36F8F2B7F2A8B0E
:10275000AC6A1B3323F00303521A02FB0344154BEC
:10276000154AEB1A9B105343A3722B7FE372CBE7FE
:1027700089F31188BFF36F8F23464246284612F033
:1027800041FE04460028BFD10024204605B0BDE824
:10279000F0836361012300252381039B6382E27A36
:1027A0006560294604F1180017F071FB6369258202
:1027B000E360EAE754050020A38B2EBA70B50C4CF9
:1027C0002C2500B970BD037A4668013BDBB2037269
:1027D000002BF7D1C3604360837A05FB03431B6A78
:1027E00013B198473046ECE7FFF724FFFAE700BF44
:1027F000540500200E4A0123C2F840354FF08042B4
:102800004FF08051C2F87835D1F83001082808D14E
:10281000D1F83411052904D80648415C09B1C2F841
:1028200038364FF080430122C3F8802500207047DE
:1028300000E001402EBA010020B1034B800143F0BB
:1028400001031847704700BF70A301000378012BF4
:1028500030B513D0022B27D07BB9194B0A4603F1B0
:10286000100453F8045B42F8045BA342F9D11B78CF
:10287000137043884B731B0A8B7330BD104B0A4691
:1028800003F1100453F8045B42F8045BA342F9D14E
:102890001B78137043684B73C3F307221B0CCB7375
:1028A0001B0A8A730B74E8E700F1100350F8042B3D
:1028B00041F8042B9842F9D103780B70DDE700BF93
:1028C0004EBA010008B514F04EFD13F089FA044B1E
:1028D0001B680BB10A209847BDE8084013F094BA72
:1028E000FC0D002038B50446084814F011FC0546DC
:1028F00048B1631EDBB21F2B96BF054A0021D15C95
:102900000C3014F080FC284638BD00BF3006002093
:102910005FBA01000F2810B50CD80D280CD90A4851
:1029200014F0F6FB044618B104210C3014F06BFCD3
:10293000204610BD1328F2D009B10448F0E7BDE8E5
:1029400010400220FFF7CEBF5C060020AC0500203F
:1029500070B5C6683378B6F8014083B90F212046B8
:1029600001F0C2FDF378054650B90A4A118831B921
:102970006FEA04506FEA10501080074A137070BD60
:102980004372012101F026FD2846BDE8704001F0A8
:10299000F7BC00BF782300209B23002010B5084C13
:1029A0000146062294F86F0001F0D8FF38B994F878
:1029B0006F000449BDE81040052201F0CFBF10BDF3
:1029C0000000002034BA010010B5012104460C308B
:1029D00014F03AFC2146034A0078BDE81040002379
:1029E00014F082BDC0A4010010B5012104460C30D2
:1029F00014F02AFC2146034A0078BDE81040062363
:102A000014F072BD90A4010070B5314814F099FB28
:102A1000044600285BD000F10C05284614F01CFC8D
:102A2000022805D004282FD02046FFF7C7FE21E05A
:102A3000238A032BF8D90421284614F005FCFF2231
:102A4000438806882276228AC6F30B009A42608366
:102A5000EAD10F2101F048FD05460028E4D001F03D
:102A600077FD320B20762146284615F011F92846CD
:102A700001F086FC174BD3F84C3143B3BDE87040EE
:102A80001549164816F0B0BF238A012BCCD9284629
:102A9000022114F0D9FB0546007814F0C1FC10F0B7
:102AA00002060DD10E4A0F490F4840F60C4314F0B0
:102AB0008EF986F31188BFF36F8F0323184602DF68
:102AC0000A4A28780423214614F00EFDACE770BDB5
:102AD0004C01002000000020AC01002088060020EE
:102AE0007FBA0100B3BA0100E1BA010070A401008D
:102AF0002DE9F047884616468246002872D0BFF37B
:102B00005B8FDFF8E490002359E8004F49E800327A
:102B1000002AF9D1BFF35B8F002C63D02046FFF76A
:102B2000ADFD324D0C2303FB00502746438853452F
:102B300011D0BFF35B8F59E8003F49E80072002ACB
:102B4000F9D1BFF35B8F002B4CD01F463846BDE850
:102B5000F047FFF733BEA64208D0204614F0D3FA60
:102B6000328AF16804F10C0014F044FB2046FFF7B0
:102B700085FD0C2606FB00504368ABB1B8F1000F91
:102B800012D12046FFF77AFD06FB00500121426872
:102B9000D2E90003127A03F01F06B1405B09DAB1F3
:102BA00000EB830014F04EFC2046FFF767FD0C2677
:102BB00006FB00508368002BC8D02046FFF75EFD5F
:102BC000704305F800802046FFF758FD06FB0055CE
:102BD000A86812F049FCB9E7C94300EB830014F080
:102BE0009AFCE1E7BDE8F08748010020000E0020D4
:102BF000094BBFF35B8F1A68BFF35B8F02F00B02C8
:102C0000BFF35B8F53E8001F43E800200028F9D191
:102C1000BFF35B8F704700BFD400002010B5C1E93F
:102C200000239DF808300B720C46FFF727FD034B7D
:102C30000C2202FB00335C6010BD00BF000E0020C0
:102C4000F8B502460B46104814F062FA0446C0B1CB
:102C500004210C3014F0BDFA2046FFF70FFD0B4D98
:102C60000C2707FB0050002646802046FFF706FD94
:102C700007FB005086602046FFF700FD07FB00556C
:102C80006E602046F8BD00BF04060020000E002044
:102C9000034B0146D3F86C0182689268104700BF6D
:102CA000000000202DE9F84300F10C0604463046F0
:102CB00014F0E2FA012105463046B4F8108014F011
:102CC000BBFA238A012B04D82046BDE8F843FFF75E
:102CD00075BD3046022114F0B7FA0746007814F0AB
:102CE0009FFB10F0010906460DD10F4A0F4910480D
:102CF00041F2360314F06BF889F31188BFF36F8F3C
:102D00000323184602DF05230A4A3878214614F0C7
:102D1000EBFBB307D8D56369A4F8108013FA85F5E7
:102D2000E560BDE8F88300BF7FBA0100FEBA01008C
:102D3000E1BA010048A4010038B50C4613F050F880
:102D4000E3681A78022A17D0042A05D02046FFF734
:102D500035FD6FF015040BE0587814F061FBC207E5
:102D6000054602D52046FFF79DFFAB0704D400249B
:102D700013F04AF8204638BD2146044814F0CCF937
:102D80000349044816F030FEF1E700BF4C01002073
:102D9000AC010020880600200148042114F052BB39
:102DA000D400002000487047E5B90100014812F046
:102DB0004FBD00BF9C01002070B505460C4659B9B7
:102DC0004FF0FF304FF0FF31FFF73AFF044618B9DC
:102DD0006FF06805284670BD2046FFF74FFC164B84
:102DE0000C2202FB0033A61830465D8014F044FA32
:102DF00003280BD90321304614F00DFA0580238AED
:102E0000033B83700121304614F00DFA40F6354340
:102E10009D4208D12046FFF73BFF054648B12046BA
:102E2000FFF7CCFCD6E70548214616F025FDFFF755
:102E3000BDFF0025CEE700BF000E0020540100209A
:102E400038B502460B46244DD5F8541109B9002077
:102E500038BD05F5987012F041FB0028F7D100222B
:102E6000002305F5AA7012F0CDFA044668B91B4A92
:102E70001B491C4840F61B4313F0A9FF84F311883B
:102E8000BFF36F8F0323184602DFD5F8480120B146
:102E9000FFF794FC0023C5F84831204614F067F989
:102EA000C5F848012046FFF7F3FE98B10E4812F02E
:102EB000DBFA2046FFF7E2FB0C4B0C2202FB003052
:102EC0001F2140882246FFF713FE2046FFF776FCBD
:102ED000FFF76CFF0120BBE7000000207FBA010074
:102EE00017BB0100E1BA010030010020000E0020F4
:102EF0002DE9F04F064687B017460C4669B94FF0EA
:102F0000FF304FF0FF31FFF79BFE044660B96FF0D2
:102F10006805284607B0BDE8F08F887AFFF7A6FB62
:102F2000454B834240F0828001220021684616F022
:102F3000BCFC2046FFF7A2FBDFF800A10C2303FB3B
:102F400000A0C0F808D0204614F011F90146304620
:102F5000FFF732FF054618B12046FFF72FFCD8E7F0
:102F600017F02AF8364B1A58364B9A4220D1DFF820
:102F7000D8B0364816F095FC002181464FF4A020C9
:102F8000FFF75EFF804688B9314A32484FF4F97343
:102F9000594613F01CFF3048314613F018FF88F3F0
:102FA0001188BFF36F8F0323184602DF4C45E0D131
:102FB0004FF4A0220023684612F090FA804698B1A0
:102FC0004FF4FC73224A2549224813F000FF24489D
:102FD0004246314613F0FBFE002383F31188BFF312
:102FE0006F8F0323184602DF2046FFF747FB0C23B1
:102FF00058431AF80060AEB12046093EFFF7DEFBE9
:10300000092E0CD8DFE806F0150B0B08050B0B0B8F
:103010000B126FF00B057CE76FF00C0579E76FF092
:10302000040576E7002F97D03C6072E76FF0150536
:103030006FE76FF06E056CE704060020000E0020BD
:1030400008000000800C00201BBB01005401002080
:103050007FBA0100E1BA010023BB010043BB0100BC
:103060004CBB0100F7B50022114640F60340FFF7C4
:103070003FFF0446002853D1FFF7BAFD214601AABD
:1030800041F20300FFF734FF0446002848D1019ABB
:10309000B34DD168D1F80100D1F8051005F17803DE
:1030A00003C31046FFF78AFB214601AA41F2010043
:1030B000FFF71EFF044698BB0198C3685A7885F84D
:1030C00070205A88A5F872201A7985F87120B3F813
:1030D0000720A5F87420B3F80530A5F87630FFF77F
:1030E0006DFB214601AA41F20200FFF701FF0446F1
:1030F000B0B9019FFA6805F18006531C4132186887
:103100005968344603C4083393422646F7D13846FB
:10311000FFF754FB95F87C30580604D46FF0120486
:10312000204603B0F0BD01AA002142F20300FFF7E0
:10313000DFFE04460028F3D1019B8A4EDA68D2F8FC
:103140000100D2F8051003C61846FFF737FB2146E9
:1031500001AA42F20200FFF7CBFE04460028DFD1AD
:10316000019CE368B3F8012091B249B1D97839B133
:10317000A5F80421DA78114606F1280016F095FB2F
:103180002046FFF71BFB95F87C601F2316F02006F6
:10319000A5F8203118D14FF0FF304FF0FF31FFF785
:1031A0004FFD044600287DD002210C3014F01CF89D
:1031B0000123037046702146324640F66D40FFF70A
:1031C00097FE04460028ABD195F89C30190712D51C
:1031D00001AA002142F21C00FFF78AFE04460028E3
:1031E0009ED10198C368D3F80120D3F80530C5E912
:1031F0003823FFF7E3FA4FF0FF304FF0FF31FFF7CE
:103200001FFD044600284DD008210C3013F0ECFFC0
:1032100095F8D83095F8D92013F0020F14BF2F235A
:103220000F2312F0090F18BF43F40063002203704C
:103230001B0A43708270C270027142718271C27146
:10324000214642F20100FFF753FE044600287FF4B6
:1032500067AF95F87C30B5F804119A0625D4C9B942
:1032600001AA41F20500FFF743FE044600287FF45F
:1032700057AFB5F80431019C4BB9E368B3F80120AE
:10328000A5F804219A883848114616F00EFB20460E
:10329000FFF794FA4FF0FF304FF0FF31FFF7D0FC0B
:1032A000044638B96FF068043AE70029F2D16FF0AC
:1032B000040435E708210C3013F096FF1023037047
:1032C0008823437002230022C3702023827002717E
:1032D00042718271C371214640F60140FFF708FE3A
:1032E000044600287FF41CAF014601AA4FF60140B6
:1032F000FFF7FEFD044620BB0198FFF75FFA214669
:1033000001AA4FF60240FFF7F3FD0446C8B9019841
:10331000C368B3F80130A5F8C130FFF74FFA95F84C
:10332000C1305B070DD501AA21464FF60340FFF7D8
:10333000DFFD30B90198C3685B7885F8C030FFF7CE
:103340003DFA00F099FB044600287FF4E9AE01F055
:10335000D9FB044600287FF4E3AEFFF71DFDDFE64E
:1033600000000020D80000200801002010B5FFF761
:1033700079FE034B1B6813B1BDE81040184710BD20
:10338000180E002073B5254D0646D5F86C0116F0D1
:10339000FAF800283BD06FF0020105F1D40014F0D8
:1033A000BAF8012114F04EF810EA010432D11C4B96
:1033B0001E600A4605F5987016F077FA05F5AA70B2
:1033C00016F01CFA174816F03AFB174915480094F6
:1033D0006FF007034FF4966212F040FA1349114858
:1033E00016F058FBD5F86C01114983681B689847A3
:1033F000044648B926B902B0BDE87040FFF732BEB6
:1034000005F1C40012F024FA204602B070BD6FF03E
:103410001204F9E76FF07704F6E700BF0000002020
:10342000180E002088060020C023002091BB010058
:10343000392D00002DE9F0435A4BB0F8018019886E
:1034400048F4704291424FF0000602BF1E80564B76
:103450001E78C378012B08BF544B00F1040485B0DB
:10346000054620460CBF93F86F70002713F077FFD6
:103470002146B0B102A813F067FFD5F81130CDF89E
:103480000130B5F81530ADF805304FF00109EB7893
:10349000012B1DD01321404614F0A2F905B0BDE860
:1034A000F083384614F040FA0346006802909A8888
:1034B0009B796868ADF80C208DF80E30A288A3794E
:1034C00095F804900090ADF804208DF80630DEE702
:1034D00002A8FFF763FAEB78012B04460AD100F04B
:1034E00061FB6FF080010746103014F014F8384685
:1034F00014F08CFB002CCDD02346B5F8012023F826
:10350000702B02989DF80E20BDF80C1020679A7160
:103510009980B5F81730A4F88630B5F81930A4F8BA
:103520008C30B5F81B30A4F88E30EB78E3700022B5
:10353000012B627224D18DF80090BDF804209DF813
:1035400006300098A4F87B2084F87D30C4F877001A
:1035500000F028FB237A154AC3EBC3039918D3580C
:10356000C4F87E308B88A4F882308B7984F884305C
:10357000D2E9381303F03F03194301D000F0B8FC3F
:103580000721204600F026FF26B166720121204661
:1035900000F020FF204601F00DF8204600F0F0FE7C
:1035A0007CE700BF782300209B2300200000002040
:1035B00000B5C3681A7889B032B13C2A32D109B05B
:1035C0005DF804EB13F0B3BF8DF80020B3F80120D1
:1035D000ADF80120DA788DF80320B3F80B20ADF8B0
:1035E0001720B3F80D20ADF81920B3F80F20ADF86F
:1035F0001B205A7C8DF81D20586801901A899B7AEF
:103600008DF80A30094BADF8082068461A689B8887
:10361000CDF80B20ADF80F30CDF81120ADF81530F6
:10362000FFF708FF09B05DF804FB00BF48BA0100CE
:1036300038B5032104460C3013F006FEE368057824
:10364000B0F80100197840F6354398420AD0224676
:10365000FFF74EFA35B1044811F006FFBDE83840D7
:10366000FFF7A4BB38BD00BF3001002038B50421EE
:1036700004460C3013F0E8FD457801784088224676
:10368000FFF736FA35B1044811F0EEFEBDE83840D8
:10369000FFF78CBB38BD00BF3001002070B54FF084
:1036A000FF320D464FF0FF3300210646FFF732F997
:1036B000044660B90A4A0B490B481A2313F087FBEA
:1036C00084F31188BFF36F8F0323184602DF0221B2
:1036D00004F10C0013F088FD06704570204670BDA3
:1036E0009ABB010017BB0100E1BA0100F8B50A4D11
:1036F000EF7906460024E3B29F4202D86FF0010042
:1037000007E02946304614F007F90735631C08B175
:103710002046F8BD1C46EEE70000002070B5144EB0
:1037200006223146044616F0BAFBE0B14FF0FF30F6
:103730004FF0FF31FFF784FA0546B0B1062221466B
:103740000C3013F057FD0022294642F20500FFF726
:10375000CFFB48B93346226843F86929A288B28072
:10376000012283F86820002070BD6FF06800FBE73D
:103770006900002037B504460D4689B1184928462E
:1037800014F0CAF860B9174A2968C4EBC404A31836
:103790001151AA889A80AA799A71002003B030BD8D
:1037A000684613F0C3FD0028F8D16846FFF79EFF76
:1037B0000028F5DA0B4A00989DF80610C4EBC40403
:1037C000A3181051BDF8040098809971002DE4D021
:1037D00012592A609A88AA809B79AB71DDE700BFF5
:1037E0003BBA01000000002070B5044611B16FF033
:1037F000150070BD80B11C4914F08EF860B92046E8
:10380000FFF774FF002829DA2378012BEFD1A37981
:1038100003F0C003C02BEAD1144DEB79012B20D06B
:10382000BFF35B8FD5F8D430BFF35B8FDB0707D4D2
:10383000002CDCD00C49204614F06EF80028D6D1BC
:10384000EE792146731C3046EB71FFF793FF08B900
:103850003046CEE7EB79013BEB71CAE76FF07700BA
:10386000C7E76FF00B00C4E73BBA0100000000207F
:103870002DE9F3410446D8B101AA002141F2090023
:10388000FFF736FB054698B9019E1249D6F80C8021
:1038900008F101070622384616F001FB28B10E494F
:1038A0000622384616F0FBFA30B93046FEF786FF9E
:1038B000002002B0BDE8F081D8F80130C4F8013032
:1038C000BB88A4F8053030462570FEF777FF01204D
:1038D000EFE700BF48BA010042BA010007B56846E9
:1038E000FFF7C6FF044BD87118B169460020FFF7F7
:1038F00041FF03B05DF804FB00000020F0B5294D46
:10390000EE7989B0002E46D195F8C230DB0722D57A
:103910006A4631464FF60940FFF7EAFAD8B9DDF8B2
:1039200000C0DCF80C406378012B1E4628BF01263E
:1039300073B1A31C02AA123418685968174603C74A
:103940000833A3423A46F7D1186838609B88BB8099
:103950006046FEF733FFEE71002416260127EB794F
:10396000E0B2834202D8B3B1002012E008AB06FBFC
:103970000033694653F8182C33F8143CCDF8012075
:10398000ADF805308DF80070FFF7F4FE0134002823
:10399000E5D009B0F0BD0021084609B0BDE8F0400F
:1039A000FFF722BF000000202DE9F0410D46174629
:1039B0001C460646002856D0002B54D00A03037834
:1039C00008D56D074FD413F0BCFF002849D101235F
:1039D00023700CE0E9072CD526480FB1AA0608D4BD
:1039E000C3EBC302825C012A12D002B9227000200C
:1039F00037E090F8D820510638D5C3EBC302825C7B
:103A0000012A05D002B92270237843F00203DFE7D0
:103A10004FF00108072111FB03810144304613F0E8
:103A200088FFF0B984F80080002FE0D0AB06DED527
:103A3000EAE76A0711D50F49C3EBC3028E5C012E7A
:103A400008D1072212FB0363194413F072FF40B937
:103A50002670EBE7002EE9D1FAE713F072FF01239D
:103A60002370BDE8F0816FF01500FAE76FF0850074
:103A7000F7E700BF0000002010B50A4CE3790BB156
:103A8000002010BDFFF72AFF0028FAD1E379002BB0
:103A9000F6D1FFF733FF0028F3D1601CBDE81040DA
:103AA000FFF73CBE00000020F8B5456869050646F2
:103AB00035D4046914B115F0010330D0194F3078B2
:103AC000FB7983422BD9C0EBC00017490722384449
:103AD00016F0E5F9A8B115F0010306D197F87020AA
:103AE000082A02D8B2689F2A19D915F0300F09D0D8
:103AF000ACB1EA060AD405F46035B5F5603018BFFC
:103B00000120F8BDEB0601D4002CF4D1D6E9022344
:103B10009A4204D81F2A02D9B3F5804FEBD900206E
:103B2000EFE700BF000000203BBA010008B50449E0
:103B30000722093016F0B3F9003818BF012008BD7C
:103B40003BBA0100F8B5154B067883F86F60044660
:103B50000D46FFF7EBFF70B91149304600F0BAFE91
:103B6000044610B96FF00B00F8BD052100F032FCDF
:103B70002C600020F8E704F109073946304614F0BC
:103B800056F940B92078394600F0A4FE04460028D2
:103B9000E8D00621EAE76FF01500E5E70000002015
:103BA00034BA010000487047180000202DE9F04F9A
:103BB000D1F810908DB09A460023B9EB0306054664
:103BC0009148059218BF0126079313F0E4FE0C46B6
:103BD000410740F10D812046FFF766FF28B96FF0DD
:103BE000150B58460DB0BDE8F08F204613F0C0FE0F
:103BF00080460028F3D005F11007384613F0CBFEBD
:103C00000206C0F3C01300F1F680CDE90933CDF808
:103C10002B30A3686068ADF82030E368ADF822303F
:103C200013F0AAFE6FF480718DF82D00764813F022
:103C3000B8FE764A23782B7082F86F3061680DF1F8
:103C4000250332462846FFF7AFFE83460028C8D139
:103C500005F10903B9F1000F18D021690868C5F80A
:103C600009008888988089799971204613F098FF17
:103C700063680646D8071BD49A0503D4169B0BB974
:103C8000022E57D102238DF8243023E0604A1168B8
:103C9000C5F809109188927999809A71204613F09D
:103CA0007FFF6368D9070646E6D58DF8249011E0BA
:103CB00013F0100F0CBF012304238DF82430236967
:103CC0001968CDF826109988ADF82A109B798DF8DF
:103CD0002C30D8464FF0FF304FF0FF31FEF7B0FFE9
:103CE0008346002800F08A800F2208A90C3013F0C8
:103CF00081FA0022594642F20600FFF7F9F800283F
:103D00007FD1B9F1000F1BD06368DB0726D42846AA
:103D1000012113F055FF079D8346002860D0002D38
:103D20003FF45FAF2846002100F054FB284600F026
:103D300027FB56E70323DDF858808DF82430C9E7C8
:103D4000179B0093CDE90186169B0599524628469C
:103D500013F0AFFE83460028D6D042E707A92846D5
:103D6000FFF7F0FE83460028D1D010F10C0F7FF44E
:103D700038AFB9F1000F7FF434AF636898073FF5AF
:103D800030AF626882F00202C2F3400B0BF0010216
:103D90000E21384613F076FE731E5A425A4108210E
:103DA000384613F06FFEB11E4A424A413846092197
:103DB00013F068FE62680A2102F00102384613F02F
:103DC00061FE42460B21384613F05CFE62680D210D
:103DD000C2F38002384613F055FE4FF0000B00E7A7
:103DE00015B1284600F0CCFAB9F1000FCED1C8E7E2
:103DF0006FF00A0BF5E66FF0770BF2E66FF0680BE9
:103E0000EFE68346EDE600BFD4000020000000206E
:103E10003BBA010073B51546069A0C46CDE900324F
:103E20002B460A4601461148FFF7C0FE21460646CA
:103E3000002340F201109D4202D1304602B070BD15
:103E40000A88824204D14A6812B11278D20702D499
:103E500001330831EFE70649064815F0F6FD4FF447
:103E600070220023034811F097FDE6E718000020B8
:103E7000137C01003000002010B5194813F0C6FE75
:103E800018486FF4804113F08CFD164813F083FD41
:103E900003461A06C0F3C01021D5124813F07BFD6B
:103EA000430513D50E48FFF741FE0F490346087E30
:103EB00093B90E49052200F051FD044630B10021AE
:103EC000417200F087FA204600F05AFABDE810402F
:103ED0000348002113F074BE06222131EBE710BD28
:103EE00018000020280000200000002034BA010043
:103EF00073B53248314C13F04EFD10F4804F5AD058
:103F0000204613F048FD030655D4204613F043FD28
:103F1000460550D501A9A4F11000FFF713FE0028B3
:103F200049D1A4F11000FFF701FE0246204613F02C
:103F300032FDC0F38031204613F02DFD81F00101E8
:103F400045054FEA41011D4848BF41F0010113F00A
:103F500022FD800448BF41F0040119480DF103031C
:103F6000FFF722FD054630BB1548012113F028FE5E
:103F7000019E28B9304602B0BDE8704000F000BA9A
:103F80002946304600F026FA6FF480410B4813F0C2
:103F900008FD0546304600F0F3F96B040BD5BFF37E
:103FA0005B8F54E8003F43F4804344E80032002A2A
:103FB000F7D1BFF35B8F02B070BD00BF28000020B7
:103FC0001800002070B50C4B1C68054644B154F82D
:103FD000143C143C13B1697A284698476469F5E7A4
:103FE000064C074EB44200D370BD236813B1697A02
:103FF000284698471834F5E7500E002028A3010002
:1040000028A3010010B50446FEF738FB044901EB74
:104010000011204613F0E4F9BDE81040FEF7C6BEDB
:104020001C0E002070B5D1E9015600220446C1E9FA
:104030000122064815F020FC3DB1314620462B46B2
:104040006FF06D02BDE87040184770BD3C05002060
:1040500013B5837A072B044625D1BFF35B8F043059
:1040600050E8003F43F4806240E800210029F7D186
:10407000BFF35B8F590516D413F0DDFDC2030CD5D9
:104080000A4B93F8D930DB070DD5002102230091AC
:104090001A46204613F0E5FB05E0204613F0C6FB68
:1040A000A37A072BECD002B010BD00BF00000020A7
:1040B00070B505460F480022002311F00FFAB8B979
:1040C0000D4B1C6834B154F80C3C143C03B19847B8
:1040D0006469F7E7094C0A4EB44204D32846BDE8A8
:1040E000704011F0B5BBA36803B198471834F3E7EB
:1040F00070BD00BF24050020500E002028A3010041
:1041000028A301002DE9F843DFF854800446202756
:104110000025EFF3118387F31288BFF36F8FE169F6
:1041200029B983F31188BFF36F8FBDE8F883206A44
:104130000A68E261814208BF226283F31188BFF3FB
:104140006F8FD1E901694046C1E9015515F094FB33
:104150001EB1002249462046B047FEF727FED8E7A9
:104160003C0500200448B0F80431002B00F58470B1
:1041700008BF0020704700BF0000002030B5044693
:1041800015F01AFF0D4A0D460D490858D2F8801057
:1041900088428BB005D120460BB0BDE83040FFF718
:1041A000B1BF24342146104615F01EFC1DB16946EE
:1041B000204615F029FC0BB030BD00BF800C00205C
:1041C0000800000038B5002204468A4202D10024CB
:1041D000204638BD04F1C8030120BFF35B8F53E8CC
:1041E000005F002D04D143E8000CBCF1000FF6D1B4
:1041F000BFF35B8F02D0D0340244E6E7002CE6D058
:10420000C8220021204615F042FE04F14000044976
:1042100015F01BFC034904F1240015F0C9FBD7E796
:10422000094A0000437C010038B50122044600F130
:10423000BC03BFF35B8F53E8005F43E80021002914
:10424000F9D1BFF35B8F7DB913F074FD11F0C8FD98
:10425000094BC4F8B850D3F8281104F1B80239B9A1
:10426000C3E9492211F0D0FDBDE83840FEF79EBDFC
:104270000A60C3F82821F5E70000002070B53D4B27
:104280005A8B32B13C4DD5F8244134B90024204634
:1042900070BD1B68002BF5D1F8E754F8B83903B1AD
:1042A000B83B3649002601E01C461346B5F8042108
:1042B000002A5DD0D5F810214AB904F1B806002BC8
:1042C000E4D0D3F8B820002AEED0B83AECE70A6878
:1042D000002AF2D0D4F8A420002AEED0D4F8A820E6
:1042E000002AEAD0D4F8AC20002AE6D0A37A072B23
:1042F0000DD12046904750B104F1C00013F09BFC53
:10430000022804DC2046BDE8704013F013BDD4F849
:10431000B83004F1B8021EBBD5F82811C5F8243115
:104320008A4201D1C5F828310022C4F8B82004F12E
:10433000BC03BFF35B8F53E8001F43E80020002855
:10434000F9D1BFF35B8F2046D4F8AC3098470028F2
:104350009DD0A37A072B9AD12046FFF765FF96E7F9
:104360003360D5F828319A4208BFC5F82861DBE7E9
:104370009368FFDED8050020000000203C050020E7
:1043800037B5C83010F8C65C10F8C54CBFF35B8F6A
:1043900050E8003F5A1E40E800210029F8D1BFF341
:1043A0005B8F01A8019313F046FC01280BD107484D
:1043B00011F05AF8064811F04BFA012D03D1012CE7
:1043C00001D1FFF795FD03B030BD00BF24050020EB
:1043D000CC01002070B5857A8D4204467ED0817272
:1043E00025B98378082B01D013F0A4FCA37A012B04
:1043F00009D13B4D05F58476616900295CD1BDE8A2
:104400007040FEF7D3BC072B09D0002B66D1A378F0
:10441000042B20D12046BDE87040FFF7B1BFA37840
:10442000042B5BD02F48002112F05AF80023C4E976
:104430000D33E378012B51D1A378012B04BF032363
:1044400084F8943004F140004FF42032BDE870400D
:10445000002311F06DBA082D40D801A353F825F0C0
:10446000DD44000085440000AB440000154400001A
:104470001544000015440000AB440000DD4400007A
:10448000DD44000004F14005284615F0EAFA204614
:104490000121FFF773FE204613F0F1FB28460022AE
:1044A000BDE87040002311F077BA637A002BB1D0D9
:1044B0002046FFF787FDADE7A2690B686361914273
:1044C00008BFA3612046FFF7ADFDB5F80431002B0E
:1044D00014BF3046002010F0C7FF8DE770BD00BF4D
:1044E00000000020DC01002010B502460C46074801
:1044F000012113F03AFC034610B90023184610BD01
:1045000082781442FAD1FFF73BFFF6E72807002034
:10451000F8B5074609480D46164613F00BFC04464D
:1045200050B183781F4203D1BDE8F840FFF728BFA0
:104530003146A8472046F7E7F8BD00BF280700200E
:10454000024900220120FFF7E3BF00BF51400000F5
:10455000034BC01A034B00115843C0B2704700BF51
:1045600028070020C54EECC470B51C461443054610
:104570000E460AD015F020FD0B4908580B49D1F81A
:104580008010884204BF002213460949002D14BF41
:104590002846084612F0BCFD044618B1711D0C30C7
:1045A00012F017FE204670BD08000000800C0020AD
:1045B0005405002010B50446054811F049F920467D
:1045C00000F0D0FA2046BDE81040FFF7FBBC00BF6A
:1045D000BC0100202DE9F04F87B000230393059321
:1045E000FFF74CFE0446002800F0BC80837A072BBE
:1045F00040F0D7806F4FD0F8A430B7F8041104AA68
:1046000098470646002800F0AA80B7F80421049BCA
:104610009A4206D30146D4F8A85005AB03AA204617
:10462000A847059B0193338ADDE9039A002B00F02C
:10463000BB80304612F0EAFE8046002840F0B7808A
:10464000B7F80431DFF870B1002B14BF58460020D2
:104650000022002310F042FF70B9584800220023C6
:1046600010F0D0FE0546A0B9B7F80431002B18BFF2
:104670005D46284610F0F8FE6FF00B053046FEF759
:104680009DF8B9F1000F66D001992A462046C84727
:1046900061E0019BC0F804908360B7F804B148481A
:1046A000DA454FF000024FF000034FF0000198BFD1
:1046B0001FFA8AFBFEF704F8814650B1FDF7DEFFD2
:1046C000404B5A4603EB00133146484612F063FE56
:1046D0008146B7F8043194F8C4609A458CBF4FF016
:1046E0000108023684F8C48098BFF6B204F1C0080D
:1046F000BFF35B8F58E8003F013348E80032002ADF
:10470000F8D1BFF35B8F00232B60A3696BBBC4E9B7
:104710000555A378012B2BD0BFF35B8F58E8003FE2
:10472000013B48E80032002AF8D1BFF35B8F2946ED
:1047300004F1140013F088FA4846FEF73FF82046CB
:104740002946FFF76FFCB7F804311B48002B08BF60
:10475000002010F089FE1321204613F028FB20468C
:10476000FFF70EFE07B0BDE8F08F1D60A561D0E732
:1047700009F10C0A0421504612F04DFD238806F081
:10478000FD0643EA06330380B9F81030043B43804A
:104790000221504612F047FD4846FEF779FA0028FC
:1047A000BAD1FEF703FBDAE76FF0790566E76FF041
:1047B000040563E700000020080100203C050020FC
:1047C000D80500201C0E0020F8B5031D044618462D
:1047D00013F031FA820419D5B4F88620B4F88810A1
:1047E000914213D8B4F88A1091420FD3D4E923121E
:1047F00091420BD1BFF35B8F53E8001F21F40051AE
:1048000043E80012002AF7D1BFF35B8F104B1D68FD
:104810006DB155F8046C143D3EB1B4F88E30B4F867
:104820008C20B4F886102046B0476D69F0E7094D3A
:10483000094FBD4200D3F8BD2E693EB1B4F88E30A9
:10484000B4F88C20B4F886102046B0471835F0E74D
:10485000500E002028A3010028A301002DE9F041FB
:10486000074608460D4612F026FF064618B90026F0
:104870003046BDE8F081144B1C6884B154F8083C04
:10488000143C0BB96469F8E7294638469847002874
:10489000EDD0284612F00FFF0028F3D1E7E70B4CCC
:1048A000DFF82C804445E3D2E3680BB91834F9E70C
:1048B0002946384698470028D9D0284612F0FBFEF2
:1048C0000028F3D1D3E700BF500E002028A3010039
:1048D00028A3010038B505460C460E480121FFF714
:1048E00071FCB0B1057223680367A388A0F8743027
:1048F000A37980F8763001238370074BC0F8A43089
:10490000064BC0F8A830064BC0F8AC30054BC0F8D9
:10491000883038BD28070020414C0000237C01006E
:10492000177C01001800280070B505460A480E469D
:1049300013F000FA044620B18378012B04D0FFF76E
:104940001FFD0024204670BD3246294613F04FFA61
:104950000028F7D12046F2E728070020F8B50546E1
:104960000E480E46174613F0E5F9044620B1837849
:10497000012B03D0FFF704FD00240DE036B13246D1
:10498000294613F034FA08B92046F3E7A37ABB426C
:10499000FAD1237AAB42F7D12046F8BD2807002090
:1049A00038B5044608460D4612F085FE38B3154B5F
:1049B00093F8D830990707D4E37873B12946204695
:1049C000BDE8384000F0A8B994F895309A07F3D5BF
:1049D000201D13F030F94304EED42946204613F08D
:1049E0003EFA58B92B88A4F888306B88A4F88A302E
:1049F000AB88A4F89030EB88A4F8923038BD6FF003
:104A00001500FBE700000020F7B510F8363C04461F
:104A1000A0F140060BBB304613F0D3FA354B1D68AE
:104A20004DB155F8103C143D1BB114F8371C3046FD
:104A300098476D69F4E7304D304FBD4205D330469D
:104A400003B0BDE8F040FFF79BBC6B681BB114F8E6
:104A5000371C304698471835EFE710F83E3C012BDD
:104A600030D1BFF35B8FA0F13C0555E8003F23F444
:104A7000005245E800210029F7D1BFF35B8F9B046A
:104A800022D5A36C00936946236D01933046FFF74E
:104A900087FF58B9BFF35B8F55E8003F23F480537D
:104AA00045E80032002AF7D1BFF35B8FBFF35B8F7D
:104AB00055E8003F43F4006345E80032002AF7D18F
:104AC000BFF35B8F03B0F0BD0D4A106851686B46B1
:104AD00003C369463046FFF763FF0028E6D1BFF302
:104AE0005B8F55E8003F43F4805345E80032002ACD
:104AF000DAD0F6E7500E002028A3010028A3010019
:104B000064A3010010B50C4814F078FE0B490A4864
:104B100014F0B2FE0A49084814F0AEFE09490648EE
:104B200014F0AAFE13F077FF14F04AFA044608B90D
:104B300013F00AFB204610BD3C0500202C0E00207F
:104B4000380E0020440E0020044B186818B9044A9F
:104B50005A600B6070476FF00B007047580E0020D2
:104B6000F0A40100F7B5274D274F04460026BD42AB
:104B700001D303B0F0BD6B6801A920469847002817
:104B80003BDB019B2A889A829A8403F11002A86871
:104B9000BFF35B8F52E8001F42E8006CBCF1000FCE
:104BA000F8D1BFF35B8FC3E913669E649E60A16B6F
:104BB00003F1080219BBC4E90D221C60D86003F19F
:104BC000300014F01BFE019843681B6803B198473E
:104BD000019BBFF35B8F103353E8001F41F00101CD
:104BE00043E80012002AF7D1BFF35B8F01984368B6
:104BF000DB6913B100F1100198470C35B7E70A6083
:104C0000A263DAE704A3010028A3010070B50446FB
:104C100052EA03000AD015F0CFF9074D074ED5F838
:104C200080503058854204BF00221346204604318C
:104C3000BDE87040FFF798BC800C00200800000021
:104C40002DE9F843D0F8B0400E4690464CB1483CB0
:104C5000236B63B104F13009484614F022FE054687
:104C600050B9FEF7A3F800252846BDE8F883204692
:104C700013F040F9A46CE9E712F0C8FB0028F2D168
:104C8000284612F074FA236D05469BB9A38C078A57
:104C9000403B9BB23F2B03D8238D9F4228BF1F462A
:104CA000042105F10C0012F0B6FA0780A38C4380B2
:104CB00004372765236D2A8A9E420ED3934215D06E
:104CC000A38C403B9BB23F2B20D9204613F012F916
:104CD000236B13B1204613F0EDF8236DC8F80030B4
:104CE0009E4234BF9E1B00262665BDE7002200239E
:104CF000484610F087FBFDF761FDA38CA3F140024D
:104D00003F2AE2D8034AAA61EB61DEE7002213469C
:104D1000F9E700BF6F80010070B5124B0C4619789F
:104D20000131C9B2012938BF0121054608221220EC
:104D3000197013F05EF9064688B108210C3012F0A4
:104D400053FA2288028062884280A2888280E288A8
:104D5000C28031462846BDE8704013F095B96FF027
:104D60000B0070BD9C23002023281FD81A2804D8CC
:104D7000431E182B0ED906207047A0F11B03082BE9
:104D80001ED8DFE803F0051D1B231D19251D050096
:104D9000032070470F4A012383401A40C2B90E4ACC
:104DA0001A40002A14BF01200620704700F07F033C
:104DB000522B05D100207047012070470520704715
:104DC00010F0400F0CBF06200020704704207047F1
:104DD00002207047AAAA8A025455450170B50E46B2
:104DE000438D418B8B4202F1010228BF0B469A4250
:104DF000054620D83046FFF7B7FF022812D0042816
:104E000010D015F0D9F8154B1958154BD3F8803040
:104E1000994213D0134B1B685A1A18BF4FF0FF3238
:104E2000134602E04FF4702200230F480021FFF7E1
:104E3000EDFE044620B90024204670BD0022EFE7B5
:104E4000FDF71CFC094B182202FB0033012104F181
:104E50000C009D6012F0C8F90670EDE70800000034
:104E6000800C0020F40E002080050020AC0E0020F5
:104E7000011F014814F0F6BBEC04002010B500F14E
:104E800054030446BFF35B8F53E8001F41F0010158
:104E900043E80012002AF7D1BFF35B8F201F13F005
:104EA000B3FA04F17400044914F0CFFD2068BDE8A2
:104EB000104001F0BFBA00BF4F8A010070B50378FF
:104EC0008AB004460E4607AD032B20D8DFE803F076
:104ED00002191B1D11492846FBF72CF9059563782B
:104EE0000493A3780393E37802932379019363797E
:104EF0000093A3790A4A1E21304611F04DFB0AB0F7
:104F000070BD0849E7E70849E5E70849E3E7084ACB
:104F10000A21284611F040FBE0E700BFD0BB0100AA
:104F2000F9BB0100D7BB0100DEBB0100E8BB0100FB
:104F3000F2BB01002DE9FF4105460E464FF0000887
:104F40004FF42053006817688DF8088002A91446B2
:104F5000ADF80A3012F09CF9A0B142F601032868BE
:104F60008DF80C8003A9ADF80E3012F091F948B11C
:104F700023691BB15A88B24200D25E80012004B07E
:104F8000BDE8F0816168286812F082F910B1002351
:104F90002361F3E7E368A0681A786AB1B7F82AC01A
:104FA000798B038A8C4594BFC3EB0C03C3EB0103DD
:104FB000934201DA0020E2E704210C3012F014F9E8
:104FC0002061068023695E80074B00930194A268EC
:104FD00000232946384613F05AFA0028EADB2069F4
:104FE000003818BF0120CAE76F840100F7B500231D
:104FF00004460E462B480022694610F0D5F90546B6
:10500000D0B914F0D9FF284B009F1A58274B2946D6
:105010001A60381D282214F03AFF3C60009C244896
:105020000195C4E90155C4E909550022002301A9ED
:1050300010F0BAF9054620B16FF00B05284603B011
:10504000F0BD019B0146B022184614F020FF194A1A
:105050008260603014F0D2FB019BBFF35B8F58334A
:1050600053E8002F43E800510029F9D1BFF35B8FCB
:10507000019B1C60636A019F1BB904F10C0014F0D2
:10508000BDFB626AC7F8A820A26A07F1A8036362A1
:1050900002B9A362019B17225A855A8304333360F5
:1050A000CCE700BFD004002008000000F40E002070
:1050B000EC040020EC0100202DE9F74317680546B9
:1050C0008846006851687E68144612F0E1F881460F
:1050D000002842D130469522294613F062FE06464A
:1050E000207540B1E3681B780BB184F81490002060
:1050F00003B0BDE8F083A06812F03DF802210C3047
:1051000012F072F8164B2061A0F800800093019411
:10511000A26833462946384613F0B9F9002807DA61
:1051200010F1FF0F26BF4042C0B20E202075DEE70F
:105130002369002BDBD0A06813F011F87B8D7A8BEC
:105140009A4294BFC0EB0200C0EB0300E3681B78F7
:10515000984294BF00200120CAE70120C8E700BFA1
:105160006F8101002DE9F74F064608460C46FDF712
:1051700085FADFF898801823434308EB03020546BD
:10518000D2F808A0E068BFF35B8FB16DBFF35B8F0F
:10519000C90738D5E16809781171002248F8032061
:1051A0000378D22B0ED133682146186813F005FF1F
:1051B00040B101902046FDF701FB019B184603B06A
:1051C000BDE8F08F04F10C0012F056F818235D438F
:1051D00008EB050900231A4607462146301DB4F89E
:1051E00010B0C9F8086012F01AFF03460028E5D095
:1051F0006269A4F810B012FA87F7E76048F8050072
:10520000C9F808A0DAE76FF01503D7E7AC0E002065
:105210002DE9F14F0546FDF731FA3349182202FB1B
:1052200000F3C81851F803A00779B0F80680D0F849
:1052300010900021D0E9024614F029FEA87AFDF76B
:1052400015FA6969834651B16B7AD80705D4DBF842
:1052500024301B6828469B68984700236B612946C9
:10526000584614F014FB002F31D084B3236873B375
:105270001B6863B3BAF1000F29D1201D13F0CBFADC
:105280003846FFF771FD052821D8DFE800F0160346
:1052900020162003BFF35B8FA36DBFF35B8FDA078C
:1052A00015D5E36D9BB14FF47022002304F1780013
:1052B00001B0BDE8F04F10F06FBB23681D68BFF36D
:1052C0005B8FA36DBFF35B8FDB0700D556B901B0D1
:1052D000BDE8F08F49462846B0470134A3B298454F
:1052E000F8D8F4E70024F9E7AC0E0020F8B50B8AF3
:1052F000076804460D46002B39D0012105F10C004A
:1053000011F0A2FFBB7A072B064630D154F8043CBB
:105310006BB301781748043C002310F833708F42B8
:1053200000EBC30208D1298A53789778994213D2A7
:10533000012F1CD1042317E001330E2BEDD10846B9
:10534000FFF712FD98B1052811D081B10623002284
:10535000204613F0A3FA0AE05368294620469847EE
:10536000012F034603D110B131780029EFD100207D
:10537000F8BD00BF18A50100F0B51E4603680D4634
:10538000003987B0044618BF01211868174613F08A
:10539000EDFD40B904F1580013F03BF9002844D06A
:1053A000002007B0F0BD002E41D018220021684631
:1053B00014F06DFD47BB23681E4A1B680093002351
:1053C000ADF812300C9B0393BDF83430ADF81030BB
:1053D00001238DF8143031466B4630468DF8085065
:1053E00012F008FF9DF81430C3B1002FD8D00198F7
:1053F000FDF7E4F99DF81430002DD1D0324629464E
:10540000204613F04BFACBE7002239462046FFF73F
:10541000E5FC01900028CED11120C2E701990029B6
:10542000BED0204613F02CFABAE71220B9E70120CB
:10543000B7E700BF93810100F8B54FF4702207462B
:1054400000230D480E4611F063FE044690B100F1B2
:105450000C050921284611F0BCFE2046FDF70EF987
:10546000064B182202FB0033012128469F6011F0F1
:10547000BBFE06702046F8BD80050020AC0E002063
:105480002DE9F0410E8A043EF6B2022E04468CB09D
:10549000084601D0102E64D104210C3011F0D4FE46
:1054A0000DF1080805884788011D3246404611F075
:1054B0001DFF002857D09DB3002687B3BD422FD8CB
:1054C0004FF4205301A940468DF80460ADF8063032
:1054D00011F0DEFE40BB1422002107A814F0D7FC17
:1054E00011212046FFF7A8FF0990002837D001219D
:1054F0000C30CDE9074811F077FE00230A901B4AD3
:10550000037039460B93284607AB12F073FE0A9BD3
:105510001B78FBB90998FDF751F90A2301E03D46D4
:1055200001232A4610210EE042F6010307A9404656
:105530008DF81C60ADF81E3011F0AAFE0028CAD00C
:1055400010232A461946204613F0A8F900200CB073
:10555000BDE8F0810999204613F092F9F6E7112091
:10556000F5E70420F3E70E20F1E700BF354F000018
:105570002DE9F043036885B004460D461868012103
:1055800013F0F4FC40B904F1580013F042F8B0BB3A
:10559000122005B0BDE8F08310220021684614F007
:1055A00076FC21212046FFF747FF029048B3DFF841
:1055B0005890009405F10C074FF001082B8A012B3D
:1055C00004D80299204613F05BF918E0384611F030
:1055D0004BFE6B464A46014606468DF80C8012F09B
:1055E00009FE9DF80C30002BE8D00298FDF7E6F894
:1055F0009DF80C3032462021204613F04FF9002050
:10560000C7E71120C5E700BF778601002DE9F04309
:10561000036885B004460D461868012113F0A6FC06
:1056200040B904F1580012F0F4FFB0BB122005B0ED
:10563000BDE8F08310220021684614F028FC0F21F9
:105640002046FFF7F9FE029048B3DFF85890009427
:1056500005F10C074FF001082B8A012B04D80299A1
:10566000204613F00DF918E0384611F0FDFD6B46A9
:105670004A46014606468DF80C8012F0BBFD9DF8A7
:105680000C30002BE8D00298FDF798F89DF80C300C
:1056900032460E21204613F001F90020C7E7112001
:1056A000C5E700BF31860100F0B51D46036885B02F
:1056B00004460E4618680121174613F057FC38B906
:1056C00004F1580012F0A5FF48BB122005B0F0BD50
:1056D00065B310220021684614F0D9FB39462046F4
:1056E000FFF7AAFE029018B3BDF82830ADF80430D9
:1056F00001238DF80C300F4A00946B46294628464A
:1057000012F078FD9DF80C305BB10298FDF756F869
:105710009DF80C302A463146204613F0BFF8002091
:10572000D4E70299204613F0ABF8F8E70120CDE763
:105730001120CBE7318601002DE9F0410E8A043EAD
:10574000F6B2022E04468CB0084601D0102E76D157
:1057500004210C3011F078FD0DF10408058847880C
:10576000011D3246404611F0C1FD002869D085B3C5
:1057700077B3BD422DD86068012113F0F7FB0646D0
:1057800078BB8DF8000042F6020369464046ADF84A
:10579000023011F07DFD20B342F6030306A9404616
:1057A0008DF81860ADF81A3011F072FDC8B1012DF6
:1057B00003D14FF6FF739F4213D004F1580012F04B
:1057C00028FF002814BF002012200CB0BDE8F08193
:1057D0003D4601232A460821204613F05FF80020A9
:1057E000F3E7182200210DEB020014F050FB092111
:1057F0002046FFF721FE0890F8B101210C30CDE9D9
:10580000064811F0F1FC0023099003700A238DF87B
:105810002C300D4A06AB3946284612F0EBFC9DF8B9
:105820002C302BB10898FCF7C9FF9DF82C30D1E73C
:105830000899204613F024F8D1E71120C5E7042089
:10584000C3E70E20C1E700BFB95000002DE9F043C7
:105850000F4687B00446062107F10C0011F0F4FC56
:105860000588B0F802808288D7F80C90C5B1002373
:10587000B8F1000F13D0A84512D38DF800308DF881
:10588000043001A94FF420536846ADF80220ADF86A
:10589000063011F0FDFC064660B10A2301E04546E2
:1058A00001232A460621204612F0F8FF002007B007
:1058B000BDE8F0830146142201A83F7C14F0E7FA0A
:1058C00007212046FFF7B8FD0290D8B10A238DF8D2
:1058D00015300D4A019401AB41462846CDE90369D4
:1058E0008DF8147012F086FC9DF815302BB10298DB
:1058F000FCF764FF9DF81530D3E70299204612F0BB
:10590000BFFFD3E71120D2E70B8201007FB5CB6840
:105910001D885E88044685B176B1AE420DD3102253
:105920000021684614F0B3FA05212046FFF784FDF4
:10593000019058B9112007E0354601232A46042179
:10594000204612F0ABFF002004B070BD6B46094A40
:1059500000943146284612F04DFC029B23B9019871
:10596000FCF72CFF0A23E9E70199204612F088FF93
:10597000E9E700BF5183010007B50B46024600214D
:1059800014F01AFB01910F4909580F48006888422A
:1059900004D00E48D0F88000884201D1002213467E
:1059A00001A90B480FF000FD014648B9019B1022E8
:1059B000184614F06CFA0346184603B05DF804FB71
:1059C0000023F9E708000000F40E0020800C0020FE
:1059D0000805002010B50446806818B1FCF7EEFEFB
:1059E0000023A36021460248BDE8104013F03ABEF0
:1059F000080500202DE9F347044678300E46174687
:105A00001D4614F02EF8E06D30B9204613F00AF868
:105A1000002002B0BDE8F087124B98424FF000081A
:105A200005D12068C4F85C8012F0AEFEF0E7D0F833
:105A30000490C0F80480E06DD0F80CA0FFF7CAFF16
:105A40002068C4F85C8012F09FFEB9F1000FDFD02F
:105A50002068CDF800A000683B4632462946C8477A
:105A6000D6E700BFF80E0020F7B550F8044C054605
:105A7000002C59D000F1A40104F1240012F0AEFD75
:105A80002E1F05F15C070022002338460FF0BAFCF8
:105A9000024678BBAB6D2BB101466FF06703304611
:105AA000FFF7A8FF002345F8043C05F15403BFF3BA
:105AB0005B8F53E8001F21F0010143E80012002A28
:105AC000F7D1BFF35B8F636A73BB04F10C0600224E
:105AD000002330460FF096FC78B9666886B9134803
