:10000000001600205D0E0000A74E0000490E000003
:10001000490E0000490E0000490E000000000000DB
:10002000000000000000000000000000210F0000A0
:10003000490E000000000000C10E0000490E000043
:10004000C5100000C5100000C5100000C51000005C
:10005000C5100000C5100000C5100000C51000004C
:10006000C5100000C5100000C5100000C51000003C
:10007000C5100000C5100000C5100000C51000002C
:10008000C5100000C5100000C5100000C51000001C
:10009000C5100000C5100000C5100000C51000000C
:1000A000C5100000C5100000C5100000C5100000FC
:1000B000C5100000C5100000C5100000C5100000EC
:1000C000C5100000C5100000C5100000C5100000DC
:1000D000C5100000C5100000C5100000C5100000CC
:1000E000C5100000C5100000C5100000C5100000BC
:1000F000C5100000C5100000C5100000C5100000AC
:1001000053B94AB9002908BF00281CBF4FF0FF317E
:100110004FF0FF3000F00CB8ADF1080C6DE904CEE3
:1001200000F008F8DDF804E0DDE9022304B07047D0
:10013000704700BF2DE9F04786468C460846089E6A
:10014000154674461946002B40F0C2808542B2FA2B
:1001500082F245D94AB1C2F1200300FA02FC2EFA1C
:1001600003F3954043EA0C0C94404FEA154EA8B2B5
:10017000BCFBFEF8230C0EFB18CC08FB00F943EA8D
:100180000C43994528D9EB1808F1FF3704D299455B
:1001900002D9A8F102072B44A3EB0903A4B2B3FBD5
:1001A000FEFC0EFB1C330CFB00F044EA0344A042AF
:1001B00014D92C190CF1FF3304D2A04202D9ACF1AE
:1001C00002032C44241A43EA07401EB1D440002302
:1001D00034607360BDE8F0874746DDE76346F1E7CA
:1001E00092BB431B01214FEA154EAFB2B3FBFEFC9D
:1001F000200C0EFB1C330CFB07F840EA0343984528
:1002000062D9EB180CF1FF3004D2984502D9ACF159
:1002100002002B44A3EB0803A4B2B3FBFEFC0EFBCD
:100220001C330CFB07F744EA0344A7424ED92C19B0
:100230000CF1FF3304D2A74202D9ACF102032C44E3
:10024000E41B43EA0040C0E7C2F1200320FA03F1B7
:10025000954090402EFA03F303434FEA154EAFB298
:10026000B1FBFEFC0EFB1C10190C0CFB07F841EA5D
:100270000041884504FA02F422D969180CF1FF30D4
:1002800004D2884502D9ACF102002944A1EB08014F
:100290009BB2B1FBFEFC0EFB1C110CFB07F743EA03
:1002A00001439F420ED9EB180CF1FF3104D29F425B
:1002B00002D9ACF102012B44DB1B41EA004192E779
:1002C0006046E3E76146F7E76046A3E76346B7E7C2
:1002D000834206D916B9002108467BE7C6E900E04B
:1002E000F9E7B3FA83F78FB9834201D3724508D88F
:1002F000BEEB020460EB030301209C461EB9002103
:1003000068E73846FAE7C6E9004CF8E7C7F1200C81
:10031000BB4022FA0CF41C432EFA0CF120FA0CF329
:10032000B84001434FEA14490EFA07F5B3FBF9F858
:100330001FFA84FE09FB18300B0C08FB0EFA43EA87
:1003400000439A4502FA07F240D9E31808F1FF305A
:1003500004D29A4502D9A8F102002344A3EB0A0370
:1003600089B2B3FBF9F809FB183308FB0EFE41EA2A
:1003700003418E452CD9611808F1FF3304D28E4514
:1003800002D9A8F10203214443EA0040A0FB0298ED
:10039000A1EB0E014145CE46434602D306D14D4561
:1003A00004D2B9EB020E68EB04030138002EA6D08C
:1003B000B5EB0E0261EB030101FA0CFC22FA07F324
:1003C0004CEA0303F940C6E9003198E74046C5E727
:1003D0004346D9E7000000002DE9F04F89B003281B
:1003E000059152D82C4B53F82030D3E900629D6818
:1003F0009B8902920493B36802995B6806AA30460F
:10040000984700283BDBDDE9064BA5FB042303925C
:1004100005FB0B380398DFF884901DA3D3E9002374
:100420004146FFF76DFE039B4FF0FF3A9A4579EB8B
:100430000803074626D3059B642B28BF6423C3F11A
:1004400064036422B5FBF2F56B43A3FB045403FB86
:100450000B4421460EA3D3E900232846FFF750FEA4
:10046000AA4579EB040403460CD38742B2680CD347
:1004700004990091146802993A463046A04709B0A1
:10048000BDE8F08F6FF08500F9E76FF01500F6E733
:1004900000CA9A3B00000000E85D0000FFC99A3BDB
:1004A00010B50446002001F0D9FF58B1224BD97C89
:1004B000224B01EB410103EB8101204604F042FD98
:1004C000002010BD012001F0C9FF0028EED102205C
:1004D00001F0C4FF0028E9D1032001F0BFFF00288C
:1004E000E4D1174A138801339BB2092B01D813803A
:1004F000E6E71080134A144C11782378B1B1632BCE
:1005000002D80233237000E010702178002004F03C
:1005100044FF2178012004F040FF2178022004F0FC
:100520003CFF2178032004F038FFC9E70BB1023B00
:10053000E8E701231370E8E720050020885C00004D
:1005400044060020280200204E06002010B5074B6C
:1005500000241C70064B214620461C7002F012F845
:1005600021460120BDE8104002F00CB872060020C0
:100570007106002038B511490B78072B044616D8B0
:100580000F4D2A78013340EA42020B702A70012194
:1005900038B901F0F7FF21460120BDE8384001F0ED
:1005A000F1BF084601F0EEFF00210846F5E7012102
:1005B000002001F0E7FF0121EEE700BF71060020F7
:1005C0007206002008B50F4B1B78082B10D10E497E
:1005D0000A781F2A08D80D4B1878531CDBB20B7011
:1005E0000B4988540022CA54BDE80840FFF7AEBF4B
:1005F0000121002001F0C6FF0121BDE808400846A6
:1006000001F0C0BF710600204F06002072060020D6
:100610005006002010B50446002001F01FFF78B1FD
:10062000012001F01BFF58B1264B2749002220462C
:10063000DA7404F087FC254804F046FB002010BD66
:10064000002001F00BFF28B1214804F03DFB002001
:10065000FFF790FF012001F001FF28B11D4804F0D1
:1006600033FB0120FFF786FF022001F0F7FE18B1EF
:10067000FFF76CFF1848DFE7032001F0EFFE78B1C9
:10068000FFF7A0FF154B164A1B781648134413F8C2
:10069000011C04F019FB1449204604F053FCCDE77B
:1006A000238A01339BB2B3F5FA7F01D22382C5E7D7
:1006B000A17C208281F00101A174022001F062FF7F
:1006C000BCE700BF20050020AC5C00001C5E000001
:1006D000335E0000405E00004D5E00004F060020CB
:1006E000500600206F5E0000945C000010B50446C8
:1006F000022001F0B3FE70B1FFF728FF2A4A2B4811
:10070000002313702A4A137004F0DEFA29492046A8
:1007100004F018FC10E001F0A1FE78B1012001F016
:100720009DFE58B1244B254901222046DA7404F07D
:1007300009FC234804F0C8FA002010BD002001F095
:100740008DFE28B11F4804F0BFFA0020FFF712FF0A
:10075000012001F083FE28B11B4804F0B5FA012006
:10076000FFF708FF032001F079FE60B1FFF72AFFD1
:100770000D4B0F4A1B781548134413F8011C04F065
:10078000A3FA1349C3E7238A01339BB27C2B01D818
:100790002382D1E7A17C208281F00101A174022093
:1007A00001F0F0FEC8E700BF4F060020915E000098
:1007B00050060020885C000020050020AC5C000092
:1007C0001C5E0000335E0000405E00006F5E0000B3
:1007D000A05C000010B50446002001F03FFE78B197
:1007E000012001F03BFE58B11B4B1C490222204660
:1007F000DA7404F0A7FB1A4804F066FA002010BD72
:10080000022001F02BFE70B1FFF7A0FE154A16483A
:1008100000231370154A137004F056FA1449204649
:1008200004F090FBEAE7032001F018FE20B10F4925
:10083000104804F049FAF1E7238A01339BB21E2BDA
:1008400001D82382DAE7A17C208281F00101A17422
:10085000022001F097FED1E720050020AC5C0000EB
:100860001C5E00004F060020915E00005006002034
:10087000885C0000BF5E0000034804490023038237
:10088000837404F053BB00BF20050020885C000087
:10089000014804F077BB00BF20050020014B1B6816
:1008A000184700BF20010020014B1860704700BFAF
:1008B0002001002030B585B004460D4610220021ED
:1008C000684605F005F802238DF802302A46044BED
:1008D00001932146684603F0E3FE05B030BD00BF3A
:1008E0009D08000080B505460E461746984603F061
:1008F0002FFC034605F058F8DFF81890044649F835
:100900000030424630463946A84754F8090000F006
:10091000C1FA00BF080000002DE9F047058B04462E
:100920002807904611D4022905F0070540F0CC8035
:10093000204604F0D6F978B10138218B042811D86B
:10094000DFE800F0C2106D85950001290CBF45F06D
:10095000100545F02005258388F31188BFF36F8FBC
:10096000BDE8F08701F0070AAA4500F0A58000273E
:10097000B9463E46A368002B00F0BC8041F0080158
:10098000218388F31188BFF36F8FA168002900F0DD
:10099000BA800D68002900F0B680D1F80480334693
:1009A00052462046C047002D76D02B6829461D466A
:1009B000F0E701F007035A1F012A1BD8002221F09B
:1009C0000701062B276889B2C4E9002209D13B46FA
:1009D00003E0628B013262831B68002BF9D141F086
:1009E00002012183204604F07CF900287AD041F0EE
:1009F000200176E0042B0AD121F0070189B221837E
:100A0000204604F06EF910B141F020012183218BC2
:100A100001F0070AAA454FD00027B946AAE7236983
:100A200021F0070141F00601062DD3F80090218343
:100A30002DD1B9F1000F3FD041F00801218388F397
:100A40001188BFF36F8F3A492046C84729E021F04B
:100A50000701236941F0040189B2042DD3F8049001
:100A60002183E6D000273E464FF0040A82E721F0BA
:100A70000701236941F0050189B2052DD3F80890DB
:100A80002183D6D000273E464FF0050A72E70027A3
:100A90003E464FF0060A6DE72B4687E7B9F1000F97
:100AA000D1D1EFF31188202383F31288BFF36F8F26
:100AB000238B23F008032383258BEA062ED525F00C
:100AC0001003238305F007056669218B002EBFF60E
:100AD00070AF00232768C4E9003321F0070141F01B
:100AE00001012183218B01F0070AAA454FF000097B
:100AF0007FF440AF002F9CD041F00801218388F3A0
:100B00001188BFF36F8F002FC8D03D683946334638
:100B10005246204604F011F92F46F4E7AB067FF564
:100B20001BAF25F02003238305F0070500E700BF76
:100B3000674D0000014B036000207047B85C000067
:100B400030BFFFF7FDBF00BF2DE9F0410B4EDFF8CE
:100B5000308006EB0807CC1B054632460949204683
:100B600004F0A8FEA01942460021083C04F0B0FEA3
:100B70002C6707F10800BDE8F08100BF000000000D
:100B800004000000805C0000054B5A699B689A4293
:100B90001FBF044A536843F080535360704700BF3F
:100BA0001006002000ED00E070B5264B15469A6A4D
:100BB00012F0100F9A6A14BF1124102412F0080FBB
:100BC0009A6A18BF1224920706460AD5586B9A6A89
:100BD000140634D519B19A6A22F080029A6213245D
:100BE00001E06FF01500174B9A6A12F0010F9A6A34
:100BF00018BF142412F0200F9A6A18BF1524D206C9
:100C000002D49B6A9B070AD50E4B5B68190506D573
:100C1000314600F011FA10B180F309880224094B23
:100C20009A6A920642BF5A6A22F400525A629A6A3B
:100C300042F0FF029A6200232B70204670BD6FF0D5
:100C40001500CCE700ED00E0134B9A6A12F0007F2C
:100C50009A6A14BF1E201D2012F0807F9A6A18BF66
:100C60001F2012F4002F9A6A18BF212012F4802F3F
:100C70009A6A18BF222012F4003F9A6A18BF2320F4
:100C800012F4803F9A6A6FEA02426FEA12429A6255
:100C900018BF2420704700BF00ED00E010B5194BCD
:100CA0000246986A9C6A10F4805F14BF17201620D1
:100CB00014F4006F9C6A18BF1820A40509D5986B1E
:100CC000986A000404D51AB19A6A22F400429A6222
:100CD00019200C4B9A6A12F4806F9A6A18BF1A2076
:100CE000D2050CD49B6A13F4005F18BF1C20054A80
:100CF000936A43F47F43936200230B7010BD1B2063
:100D0000F5E700BF00ED00E0F0B5484B5B688BB045
:100D10000446C3F30803002585F31188BFF36F8FE2
:100D200002F07F40B0F17F4F11D102F00C00082893
:100D30000DD010074CBF0C4601250022033B8DF857
:100D40000720032B05D8DFE803F0246367602C46F7
:100D5000F3E700239DF80720CAB902AE04F120078B
:100D600020686168324603C20834BC421646F7D197
:100D7000099A002D54D0C2F3080121B96FEA52221A
:100D80006FEA4222099202A9184604F082F80BB0D9
:100D9000F0BD264BDA6A9107DBD4DA6A002AD8DB89
:100DA000DA6A5200D5D55A69A16942F480725A6153
:100DB000BFF34F8FBFF36F8F5A6931F8021C22F4D3
:100DC00080725A61BFF34F8FBFF36F8F4DF602727F
:100DD00091420AD09A6AD2B24AB10DF107020121BA
:100DE0002046FFF7E1FE0346B4E72368B2E79A6ABC
:100DF00012F47F4F05D00DF107010120FFF74EFFE0
:100E0000F1E79B6AB3F5803FA3D3FFF71DFFEAE745
:100E10000DF107020021E3E70DF107010020EDE7E6
:100E200022F4FF7222F00102ACE700BF00ED00E007
:100E3000044B5A6942F010025A615A6922F00802C2
:100E40005A61704700ED00E0EFF30880EFF309818D
:100E500001B57246FFF758FF01BD00BF0B4880F394
:100E6000088801F0C3FB202080F3118808484FF464
:100E70000461401880F30988EFF3148002210843CD
:100E800080F31488BFF36F8F00F09EF800160020E7
:100E900040080020084B9B6883420BD1EFF3058389
:100EA00043B1064B5A6842F080525A605A6A22F4A3
:100EB00000425A6203F052B91006002000ED00E033
:100EC00014498A684FF030001044EFF3098C80E831
:100ED000F01F202080F31288BFF36F8F0E4F4FF06A
:100EE00000664A698A603E60106F0C4C2060506F4B
:100EF0000023536780F3118804B5104600F000F911
:100F0000BDE8044002F1300090E8F01F8CF309883E
:100F1000704700001006002004ED00E034050020BA
:100F20001EF0040F0CBFEFF30880EFF30980816916
:100F300011F8021C0229FFD001B5724603F0AFFF81
:100F400001BD00BF40B2002807DB044A410901236C
:100F500000F01F00834042F82130704700E100E0BC
:100F6000054B420900F01F0053F82220012303FA29
:100F700000F01040704700BF00E100E040B20028E0
:100F8000A8BF00F1604001F10101B8BF064B4FEA74
:100F90004111ACBF00F5614000F00F00C9B2B4BF11
:100FA000195480F80013704714ED00E0044B054A13
:100FB00023F07F039360BFF34F8FBFF36F8F7047B2
:100FC0000000000000ED00E008B5FFF7EFFF0B4A5E
:100FD000D2F8883023F47003C2F88830EFF314831A
:100FE00023F0040383F31488BFF36F8F02F022FB16
:100FF00003F0E8F900F05AF802F060FB00ED00E0C1
:1010000042F8203C009B42F81C3C0A49019B42F8F4
:10101000183C029B42F8143C21F001014FF0807310
:1010200042F8043C42F8081C0023203A026543675A
:10103000704700BFE5080000094A0346906870B198
:1010400013F1160F006E05D0A0F140029A4205D8A8
:10105000834203D2814228BF00207047002070479E
:101060001006002008B515460B4A0C4B9060026F25
:101070001A600E4600F044F82C4686F309880020DA
:10108000034B98472046002100220023014C2047B3
:10109000BD4E0000E50800001006002034050020C9
:1010A000014B10221A61704700ED00E00448002354
:1010B0002021C2180133302B82F80013F9D1704778
:1010C00000E100E008B5EFF30583064A103B02EBB0
:1010D000C30152F8330049688847BDE80840FFF76C
:1010E00053BD00BFAC5A0000024B034A0348012124
:1010F00000F076B80000042000000020B85C00007A
:10110000026E054B403A1A60044A4021C3E90112BD
:101110001846012100F06EB83805002000000B15BC
:10112000084AC2F898000B6823F01F03034343F0FA
:101130001003C2F89C308B6843F00103C2F8A03062
:10114000704700BF00ED00E02DE9F043DFF860805C
:1011500085B00E461F4604464FF00009B14523DA1C
:101160006068D8B13FB1411E08421BD11F2819D970
:101170002368194216D12368019303F0C2FEA368C5
:1011800003430393D8F89050C5F30725D0B2013D2F
:10119000A84207D801A9FFF7C3FF421C09F10109C2
:1011A0000C34DBE76FF01502104605B0BDE8F083A4
:1011B00000ED00E0044B0522C3F89420BFF34F8FED
:1011C000BFF36F8F704700BF00ED00E0BFF35F8F8C
:1011D000024B0022C3F89420704700BF00ED00E0EE
:1011E00010B5034C01232278FFF7AEFF207010BD2D
:1011F0007306002008B50B4A00231278FFF7A4FFFE
:1012000010F1160F07D0084A0021D2F89030C3F32E
:101210000723984200DB08BDC2F89800C2F8A0106E
:101220000130F2E77306002000ED00E02DE9F04305
:10123000534B544CD3F890302568C3F307239D4299
:1012400085B000F29A80FFF7C1FF00200C2685428E
:101250001AD14D4C4D4F25706846FFF76BFCDFF8F7
:101260002081DFF82C9106460025AE4213D1237869
:1012700043490020D1F89020C2F30722934276DB45
:10128000FFF798FF002042E0616806FB0011FFF7BE
:1012900047FF0130DBE7009800EB05114FEA051C22
:1012A000CB683B40B3F5000F48D00AD8B3F5001F18
:1012B00030D0B3F5800F36D0B3F5801F10D0013594
:1012C000D3E7B3F1807F42D0B3F1007FF7D150F87C
:1012D0000C3088684A6803F014FE40F4802009E06E
:1012E00050F80C3088684A6803F00BFE40F08850D4
:1012F00040F43020CDE901230390D8F890302078D5
:10130000C3F30723013B98422AD96FF0150005B0BB
:10131000BDE8F08350F80C3088684A6803F0F1FDAE
:1013200040EA0900E6E750F80C3088684A6803F0A4
:10133000E8FD40F0C06040F40030DBE750F80C30CE
:1013400088684A6803F0DDFD40F08270D2E750F80B
:101350000C3088684A6803F0D4FD40F08870C9E713
:1013600001A9FFF7DDFE237801332370A7E7C1F859
:101370009830C1F8A00001337CE74FF0FF30C6E79A
:1013800000ED00E0C45C0000730600200000F0FFE8
:101390000000081108B5024B1B689847002008BDE3
:1013A00044050020034B044A1860937843F002037D
:1013B00093707047440500202401002008B50649B9
:1013C000064821F00701C1F1005202F5802203F026
:1013D0003CFC002008BD00BF871A00204805002003
:1013E0000E4A0123C2F840354FF080424FF0805141
:1013F000C2F87835D1F83001082808D1D1F8341175
:10140000052904D80648415C09B1C2F838364FF0C6
:1014100080430122C3F880250020704700E001408E
:10142000E05E000020B1034B800143F00103184748
:10143000704700BF805C0000084B70B5C31A0D46B2
:1014400007499B10044659430648402203F0B3FD68
:101450002B4601462046BDE870401847680500202D
:10146000B76DDBB60C5A000073B50C4C0C4A402328
:10147000041B00930D460B460A49A410614306461F
:10148000094803F0C4FD011E05DA30462B4602B0C0
:10149000BDE87040184702B070BD00BF680500206D
:1014A00079500000B76DDBB60C5A000010B5EFF3B1
:1014B0001184202383F31288BFF36F8F074A1368C8
:1014C00023F00201DB07116002D4012003F084FF46
:1014D00084F31188BFF36F8F10BD00BFB8050020E3
:1014E000002270B5012104461046FFF747FD0F4862
:1014F00001F006FA0E4B984215D101F011FA266957
:101500000C49304603F03CFC00280BDB0125356418
:101510002469084904F11C0003F032FC002801DBB7
:10152000E564002070BD6FF00400FBE73116000099
:101530000000AD0BE45C00001FB500220123CDE9E3
:101540000223094ACDF800D06B46CDF804D003F051
:101550008CFD002805DB4FF480420023684602F032
:1015600049F905B05DF804FB9750000030B4104B0A
:101570000C2202FB003301460020D3E90E5298638F
:10158000EFF31180202484F31288BFF36F8F1C6C5B
:1015900004F0C00444F002041C6480F31188BFF31B
:1015A0006F8F1DB12B46034830BC184730BC7047C5
:1015B000680500200C5A000010B4EFF311822023BC
:1015C00083F31288BFF36F8F1748016841F002045C
:1015D0000460C80707D482F31188BFF36F8F01201E
:1015E00010BC01F0AFB94FF08041D1F80C04D1F834
:1015F0000C14C907EFD5EFF3118083F31288BFF302
:101600006F8F0A490B6C03F0C00343F002030B64B5
:1016100080F31188BFF36F8F82F31188BFF36F8F50
:10162000002010BCFFF7A2BFB8050020680500200D
:1016300010B1012804D07047034B1B6C5B0701D12C
:10164000FFF794BF704700BF680500202DE9F04107
:101650003849BFF35B8F0746012251E8003F41E85C
:1016600000200028F9D1BFF35B8F33B932493348EA
:101670004B60CB608A6003F096FB7B1E012B2BD85E
:10168000012F07D14FF08043D3F81C3403F003033C
:10169000012B21D004F00FF80546F8B9284B1B7830
:1016A000E3B14FF080430222C3F808230646DFF877
:1016B00094804FF08044D4F81824D4F81834D2031E
:1016C00015D503F00303012B01D0012F0FD155B322
:1016D00086F31188BFF36F8FBDE8F081EFF31186B9
:1016E000202383F31288BFF36F8F0125DFE7ADB1AD
:1016F000304603F0F7FBD4F81835002BDBD1D4F8D3
:101700000421002AD7D0C4F80431D4F804310123CD
:10171000C4F81835C8F88031A360CCE70021212037
:1017200004F03CF8E7E74FF080430222C3F80423BB
:10173000D2E700BF64050020540500208405002086
:101740007606002000E100E008B5074803F02CFF12
:1017500038B10648FFF726FE0448FFF7A5F8002039
:1017600008BD6FF01200FBE76C5A00007117000013
:101770000A2838B5074D044604D1AB680D215B68D3
:1017800028469847AB6803485B68E1B29847204613
:1017900038BD00BF6C5A0000F0B516464268107B99
:1017A00001F01F0444EA4014106987B0002872D089
:1017B000B6F5001F02F1100506D12146284603F0B8
:1017C0008BFE002007B0F0BD01A80027B6F5800F02
:1017D0000197476039D1B3F1007F14BF052304237B
:1017E0008DF804300023CDE904030393936823FAB2
:1017F00001F111F001010DF103073ED1B6F1A07F17
:101800003BD104F01F03620903F5E07328D0012ADD
:1018100047D1254A52F82330DB072ED43A462146D9
:10182000284601F077FB214B98421CD0029703AA6F
:101830002146284601F030FA1D4B98422ED1012254
:101840002146284601F0CAFBBBE7B3F1C06F05D0C3
:10185000B3F1007F14BF01230223C1E70323BFE7D5
:101860004FF0A042D6E73946284601F0B1FB104BB5
:101870009842DBD06FF00B00A4E73A462146284699
:1018800001F048FB0A4B9842D1D19DF8031028463D
:1018900001F098FBCBE76FF0850093E76FF0150040
:1018A00090E751F82330FFDE000300500400AD0B39
:1018B0000000AD0B420970B5034602D0012A17D0D3
:1018C00070BD0D4E326951680029F9D003F01F0335
:1018D00001250C689D400029F2D08A682A4002D078
:1018E0004B68304698472CB1236821461C46F2E7E6
:1018F000024EE7E72346F8E74C5A00002C5A000056
:1019000038B545682B69B3B11035284601F050FB56
:10191000044680B90146284601F016FB084B984260
:101920000BD108492246284601F0EEFA224605214D
:101930000620FFF723FB002038BD6FF00400FBE713
:101940000000AD0BB51800002DE9F043466840F2E9
:101950000635D006337B87B002EA050554BFC2F3D3
:101960004010032001F01F07B5F5837F144647EAB6
:1019700043178DF8030045D00DD8062D16D005D895
:10198000A5B1022D40D06FF0150038E0B5F5807F8D
:10199000F9D101250AE040F20222954236D0B5F590
:1019A000407F35D0B5F5007FEDD10225012322031C
:1019B00003FA01F12ED57368C3F80815326992BB9A
:1019C00007F01F037F092BD0012F79D13F4A02EB8B
:1019D000830284F48033D2F80017C3F30043C4F3C6
:1019E000404444EA430421F4E16144EA800421F0E4
:1019F000070144EA05230B43C2F80037002007B073
:101A0000BDE8F0830725D1E70425CFE70525CDE71D
:101A10000325CBE7630344BF7368C3F80C15CDE718
:101A20004FF0A042D3E710360DF10202394630469E
:101A300001F070FA14F4403F80460CD1394630462C
:101A400003F048FD224B9845D8D19DF8021030464E
:101A500001F0B8FAD2E701AB4FF0000903AA39460A
:101A60003046CDE90439CDE90199CDF80C9001F06B
:101A700013F9174B9842C1D114F4003315D09DF8D7
:101A800003308DF80E3084F48034C4F300444B46A8
:101A900003AA394630468DF80C508DF80D4001F000
:101AA000B5F90B4B9842A9D1CCE7CDE9043303AA91
:101AB0000DF1030339463046039301F0EDF8F0E7EA
:101AC00003F5E07352F82330FFDE00BF000300503F
:101AD0000000AD0B036803F01F025B09026004D035
:101AE000012B034818BF002070474FF0A0407047FB
:101AF000000300502DE9F04FDFF89491DFF894A136
:101B000085B01546834600EB810140F2FF18594528
:101B100003D1002005B0BDE8F08FDBF800305E0493
:101B2000C3F3C322C3F3080400F1AC801B0E19F801
:101B30000270444508BF4FF0FF34222B00F2A5800D
:101B4000DFE803F012191F22252B22A3A3A3A33B36
:101B500068A3A3A3A3A3A3A3A3A36B818487A3A325
:101B6000A38A9194979A9D00C5F80C45601C5ED19C
:101B70000BF1040BCBE7C5F81445621CF8D0002626
:101B80005FE0C5F80845F1E7C5F81045F5E7631CC7
:101B9000C5F80845ECD0002604E0661CC5F80C45E5
:101BA000E6D0012603A80394FFF794FF039B0122CC
:101BB00002FA03F3C0F80C3508E0C5F80845002F19
:101BC000DBD1631CD4D0002632460627DBF8003078
:101BD000019303F40040002818BF002203A80092DC
:101BE00018BF01260394FFF775FF039C019B009A21
:101BF00000EB8400C3F3412CD0F800473B0243EADA
:101C00008C03134304EA0A04234343EA4603C0F85F
:101C10000037ADE7C5F80C45D1E7C5F86045601C55
:101C2000DBF80030A4D0C3F30043002BB9D003A8E5
:101C30000394FFF74FFF039B012606FA03F3C0F856
:101C400008353246C2E7C5F86445E8E7C5F8684597
:101C5000E5E7C5F86C45E2E7C5F82445621C87D086
:101C600000220126B2E7C5F828457FE7C5F83045D0
:101C7000F4E7C5F83445F1E7C5F83845EEE7C5F8AF
:101C80003C4573E76FF0150044E76FF0850041E7CE
:101C9000115F0000F0F8FCFF036803F01F025B090E
:101CA000026004D0012B034818BF002070474FF09A
:101CB000A04070470003005073B504460022012184
:101CC0001C20FFF75BF960682369244A00F10801D2
:101CD00001F05EFB224B98423CD16568AE6B01AAD5
:101CE0000021304603F02FFA002805DB019B326803
:101CF00019791868FFF7FEFE002631462B6801F5BA
:101D0000AC7253F82230002B0EDB01A80193FFF7D1
:101D1000C3FF019AD0F80435D34013F001031CBF70
:101D200001238B403343DEB201310429E6D1002385
:101D300001206268916A00FA03F232420CBF01226C
:101D40000022D20321F813200133042BF1D100200B
:101D500002B070BD6FF00F00FAE700BF6D510000D8
:101D60000000AD0B2DE9F041044647680D4603F035
:101D7000A2FC4FF0200888B9264B1B7873B164266B
:101D8000606803F0ACFAF0B9012003F017FB013EE4
:101D9000F6D10021212003F001FDF0E7EFF31186D9
:101DA000314688F31288BFF36F8F606803F097FAAB
:101DB000A8B986F31188BFF36F8FEFE786F3118818
:101DC000BFF36F8FE5E7EFF31186314688F3128892
:101DD000BFF36F8F606803F082FA0028EED0BB6912
:101DE0001D706368BA691B680020C3F8442501228E
:101DF000C3F84825C3F82001D3F82041C3F858019F
:101E0000D3F858019A6081F31188BFF36F8FBDE852
:101E1000F08100BF76060020F7B5054600220121BB
:101E20000220FFF7ABF80220FFF78CF86A68116810
:101E30001369C1F82435137D507D927D034313430C
:101E4000C1F86C356E68D6E9004313F0010348D041
:101E50002F6907F1080003F0BDFA304B98425AD1C0
:101E6000387A04F10C0204F5907103F0A9FA387A7B
:101E7000012707FA00F000F0DBFC0823C4F8003566
:101E8000B369C4F844350023C4F84835A760D4F8D2
:101E90005831002BFBD00021C4F800156B68DC68BA
:101EA00001AA204603F04FF9002805DB019B2268B8
:101EB00019791868FFF71EFE6A6813680821C3F8CD
:101EC0000015117A51B9D269C3F834250122C3F83B
:101ED0003825C3F81011D3F810111A60002003B090
:101EE000F0BD0822C4F80025B269C4F84425C4F83E
:101EF00048350123A360D4F82031002BFBD0002308
:101F0000C4F82031D4F820310123E3604FF480730A
:101F1000C4F80433BBE76FF00400E0E70000AD0B4A
:101F200070B5012383400E4ABFF35B8FDC4352E858
:101F3000001F01EA040542E80056002EF7D1BFF366
:101F40005B8F4FF4803282400648C0F80823BFF30D
:101F50005F8FBFF36F8F0B4214BF0120002070BD55
:101F6000EC0500200010014070B40E49D1E90034A6
:101F7000D01AC31844F1000422F07F46C1E90034AE
:101F8000A6F50013B3F5400F09D2074B1B681A0AD8
:101F90001B069C19054B42F10005C3E9004570BCC6
:101FA00002F0EABA48020020F005002050020020AA
:101FB00011B3BFF35B8F0123104A834052E800CF77
:101FC0004CEA030C42E800C10029F7D1BFF35B8F54
:101FD0000B4A4FF480338340C2F80433094BBFF3FC
:101FE0005B8F1B68BFF35B8FC340DB0742BF064BB1
:101FF0004FF40032C3F80021704700BFEC05002009
:1020000000100140E805002000E100E00D4B1868D9
:10201000010A0006BFF35F8F0B4BD3F80435181885
:1020200041F10001B3F5801F0AD2084BD3E9002328
:10203000904271EB030303D210F1807041F1000173
:10204000704700BFF0050020001001405002002042
:102050002DE9F04F85B016461F469DF840A0044676
:10206000FFF75EFF0190FFF7D1FFB04271EB07036E
:1020700054D23E4B301A67EB0101984271F10001D6
:102080004FD23B4B03EB0413D3E902239F4208BF1B
:1020900096425ED037494FF4803804F1500508FA73
:1020A00004F8AD00C1F848832046ADB203F048F90A
:1020B00026F07F4B05F1804504F5A87305F58835BA
:1020C000DC464FF003090293029A2CF07F4341F85B
:1020D0002230C1F84483D1F80435274A6FF002005A
:1020E000C01A604420F07F40904232D9286868B11D
:1020F000D1F804350393A3EB0B0020F07F40B0F53B
:10210000000F26D9204603F01BF9039BBAF1000FFC
:1021100007D109EB030C09F10109D5E7BAF1000F6A
:1021200009D06FF0150520460199FFF741FF2846B9
:1021300005B0BDE8F08F0123104ABFF35B8FA340C9
:1021400052E8000F184342E800010029F8D1BFF31C
:102150005B8F07490E98230101EB0412C8500F9BB7
:102160005360C2E902670025DDE700BF010080007F
:102170003802002000100140FDFF7F00E80500202C
:102180007FB51C4C1C4BC4F80833C4F848331B4BB8
:1021900000254FF0FF304FF0FF31C4F80855C3E978
:1021A00002014FF48033C4F80433154B02264FF478
:1021B00000320121C4F804631120C3F880212A46AB
:1021C000FEF7DCFE1120FEF7BDFE0E4A0123A360E0
:1021D000236013600C4B0D4A0093CDE90155002399
:1021E0002846FFF735FF3046FFF730FA284604B09F
:1021F00070BD00BF0010014003000F003802002036
:1022000000E100E0EC050020691F0000FFFF7F00F7
:102210002DE9F7432F4CD4F8043399070BD5D4F8A4
:10222000043143B12C4A0023C4F80431D4F80431FA
:10223000136801331360D4F80433DA0329D5BFF3EC
:102240005B8F264B53E8002F22F0010143E800107A
:102250000028F7D1BFF35B8FD30702D4D4F8403105
:10226000BBB10025C4F84051D4F84031FFF7CEFE91
:10227000EFF31182202383F31288BFF36F8F184B83
:10228000D3E90267B042B94106D282F31188BFF3A5
:102290006F8F03B0BDE8F0834FF0FF384FF0FF3988
:1022A000C3E90289D3E900101D604FF48033C4F8FC
:1022B0004833C4F84051D4F8403182F31188BFF359
:1022C0006F8F0029E5D0009032463B46284688476C
:1022D000DFE700BF00100140F0050020E805002006
:1022E0003802002030B5431C124C85B005D0844222
:1022F000A8BF0446012CB8BF0124FFF787FE0E4B90
:102300000C4DD3E90013401AB0F5000F10D222187B
:10231000AA4228BF2A4652184FF0000007490091F0
:10232000CDE9010043F10003FFF792FE05B030BD97
:102330002A46F0E7FFFF7F0048020020691F0000E7
:1023400008B5FFF763FE024B1B68C01A08BD00BF4B
:102350004802002070B50A4E1546002456F8040BBA
:10236000037925FA03F3DB0705D54FF42472002324
:10237000183001F0D5FB0134E4B2042CEED170BD6D
:10238000D85D00002DE9F84F304EDFF8C480DFF84B
:10239000C490314F002556F8044B206803F004F92F
:1023A00018B96FF00400BDE8F88FE3882068217940
:1023B00043F48032D0F810E0D0F808A013F0010FF9
:1023C0004FF0010CDEF800300CFA01FC14BF4CEAAF
:1023D000030323EA0C03CEF80030DAF80030984704
:1023E0000028DEDB2068217982680369D2F818B002
:1023F000BBF1000FD5D01B684FF0010A0AFA01F2B9
:102400001A4214BF4FF070734FF0B86303EA080329
:102410004FF0A072D8470028C3DB237920680AFA5E
:1024200003F3C4E904938368DB6904F10C010BB185
:10243000524698470135394604F11800EDB203F0D1
:102440002EF9042DA7D10020ADE700BFD85D000014
:1024500040000006552300008153000003289FBF61
:10246000044B53F82030187A00229ABFC0B21A7277
:1024700000207047D85D000003280DD8074B0122CB
:10248000824093F8840020EA020083F8840018B99F
:10249000D3F8800001F0A8BC704700BF58020020AC
:1024A00030B5154B89B0186803F07EF8134B1868E7
:1024B00003F07AF8124B186803F076F8114B18689D
:1024C00003F072F8104D114900220023CDE90623D4
:1024D00000240123CDE90334CDE901440C4B0094E1
:1024E0004FF4C072284601F06DFBC5F8800001F082
:1024F0007BFC204609B030BD7C0100206401002037
:102500004C010020340100205802002080060020E9
:102510003925000003280AD8064A52F820301A7DCF
:10252000002A14BF002164211975FDF755BF6FF013
:1025300015007047E85D000070B5104D104E4FF467
:102540007E70002103F02AF9002495F88430E340DE
:10255000DB070ED556F82420538A118A03F635433B
:102560009BB29942538204D800235382E0B2FFF712
:10257000D1FF0134042CE8D1E1E700BF580200206C
:10258000E85D0000032838B505460C460ED8FFF775
:1025900073FF084B002C53F8253018BF64241C75BA
:1025A00021462846BDE8384002F0F7BE6FF015001E
:1025B00038BD00BFE85D00004FF08053D3F83021F4
:1025C000082A06D1D3F83431052B02D8024AD05C50
:1025D00070470020704700BF3A5F0000024AD2F8FF
:1025E0000034002BFBD0704700E0014010B54FF0E5
:1025F0008053D3F83021082A4ED14FF08042002179
:10260000C2F80C11C2F81011C2F8381502F5404298
:10261000D3F80414C2F82015D3F80814C2F824150E
:10262000D3F80C14C2F82815D3F81014C2F82C15DE
:10263000D3F81414C2F83015D3F81814C2F83415AE
:10264000D3F81C14C2F84015D3F82014C2F844156E
:10265000D3F82414C2F84815D3F82814C2F84C153E
:10266000D3F82C14C2F85015D3F83014C2F854150E
:10267000D3F83414C2F86015D3F83814C2F86415CE
:10268000D3F83C14C2F86815D3F84014C2F86C159E
:10269000D3F84434C2F87035FFF78EFF18B13A4BC7
:1026A0003A4AC3F88C26FFF787FF18B1384BFB2254
:1026B000C3F81825FFF780FF70B14FF080414FF04D
:1026C0008053D1F8E42ED3F8583222F00F0203F0F1
:1026D0000F031343C1F8E43EFFF76EFF20B12D4B0B
:1026E0004FF40072C3F840264FF08053D3F83031D6
:1026F000082B1AD14FF08043D3F80024D20744BFEF
:102700006FF00102C3F800244FF08053D3F8343146
:10271000052B02D8204AD35C3BB14FF01023D3F8ED
:1027200008224FF08043C3F858254FF01023D3F808
:102730000022002A03DBD3F80432002B22DA1749E7
:1027400001234FF01020C1F804351224FFF746FF93
:10275000C0F80042FFF742FFC0F80442FFF73EFF17
:102760000023C1F80435FFF739FFBFF34F8F0C4941
:102770000C4BCA6802F4E0621343CB60BFF34F8F87
:1027800000BFFDE710BD00BF0050004048810300BE
:1027900000F0004000900240345F000000E0014083
:1027A00000ED00E00400FA0530B50468CCB1BFF3D9
:1027B0005B8FB4FA84F3C3F11F03DBB201229A40AA
:1027C00024EA020250E8005FA54204D140E8002C50
:1027D000BCF1000FF6D1BFF35B8FE6D102480B705E
:1027E00030BD0248FCE700BF0000AD0B0200AD0B9E
:1027F00010B50368CB40DB0714D401238B4002687B
:10280000BFF35B8F43EA020150E8004F944204D1CA
:1028100040E8001CBCF1000FF6D1BFF35B8FEED196
:10282000014810BD0148FCE70000AD0B0400AD0BF2
:10283000014BC3F80405704700F00140F7B50546A9
:10284000F8B101281BD104224FF4807301464FF0E8
:10285000804003440244C0F808130026012111609F
:102860001E608D421B688DF8071008BF0DF107062A
:1028700042F210744FF0804745B1012D28D003B0CB
:10288000F0BD0C224FF482730221E0E7D7F8183430
:1028900003F480333EB9002BF1D0012002F08EFD0D
:1028A000013CF3D1EBE7D7F8182402F003023260C1
:1028B000002BE4D09DF80700012803D102F07EFD33
:1028C000013CD9D1012DDAD10C4B00225A71D6E747
:1028D000D7F80C3403F480333EB9002BF4D0012038
:1028E00002F06CFD013CF3D1EEE7D7F80C2402F0C6
:1028F00001023270002BDDD1E6E700BFF4050020B5
:10290000044B1A7922B9012218609A800248704754
:1029100002487047F40500200000AD0B0C00AD0B21
:1029200008B5074B1B682BB10020FEF719FB08B94F
:10293000FEF708FB4FF080430022C3F8182508BDBE
:10294000F405002010B510B1012843D010BD4FF0A0
:102950008043D3F81814D3F81824C80321D502F003
:102960000303012B04D013B10020FFF767FF0023FE
:102970004FF080420220C2F8183508224FF48273CB
:1029800003F180430021196002F180421C68012498
:102990001460154A12680AB34FF08043C3F8040369
:1029A000D4E7D3F81424D107E1D5D3F81C24920737
:1029B000DAD40D4A12681AB10222C3F80423C5E71B
:1029C000D3F80421002AFBD00022C3F80421D3F855
:1029D0000431BBE700224FF48073D1E71A68002A64
:1029E000FCD019601B68B1E7F4050020F8B54FF082
:1029F00080431C4ED3F804430125002704B9F8BDD9
:102A0000B4FA84F0C0F11F00830003F580739BB219
:102A100003F1804305FA00F2196892B224EA020435
:102A20000029EBD01F601B684FF08043012AC3F8D8
:102A3000082305D0022A08D03368C0B29847DDE7E2
:102A40007379002BDAD17271F6E7D3F81814D3F842
:102A500018148907F0D1C3F81855C3F804239D60F2
:102A6000CCE700BFF4050020036803F01F025B09F8
:102A7000026004D0012B034818BF002070474FF0BC
:102A8000A040704700030050034A430900F01F00B4
:102A9000D35C1844C0B27047405F000070B5054673
:102AA000FFF7F2FF0C4C08300E4634F81030DA0510
:102AB00008D5C3F3432304EBC302284654F833304C
:102AC00052689847A3682BB1E26831462846BDE8B2
:102AD0007040184770BD00BF9401002008B5FFF793
:102AE000D3FF034B083033F81000400B08BD00BF84
:102AF0009401002008B5FFF7C7FF034B083033F8F7
:102B00001000C0F3400008BD9401002008B5FFF795
:102B1000BBFF034B083033F81000C0F3401008BD72
:102B200094010020034611F0010010B5CCB20DD184
:102B3000A207C4F3400012D5094AD2F82005586014
:102B4000C2F82005003818BF012008E04FF0A0416E
:102B5000D1F820251A60C1F82025002AE8D010BD40
:102B60000003005010B5FFF78FFF124A083032F80B
:102B70001030D9051CD5C3F3432123F4F85322F8B0
:102B8000103002F10E04002034F8023F13F4807F6D
:102B900003D0C3F3432399420AD001303028F3D144
:102BA000002342F831300448BDE81040FFF720BE52
:102BB00010BD00BF940100200C020020F0B50546B6
:102BC00000200446012607468C420BD1114BD3F856
:102BD0007C2132B10022C3F87C21D3F87C3140F053
:102BE0000040F0BDE3B29B0003F580729B0806FA3B
:102BF00003F31D420BD002F1804202F5C042D2F82D
:102C000000C0BCF1000F02D01760126818430134F5
:102C1000DAE700BF00600040F7B506460846FFF758
:102C200033FF194F00F108050C4637F81530DB0764
:102C300027D5304602F02AFC2046FFF767FF40B157
:102C40002046FFF74BFF316800F5A270002341F8E2
:102C500020302046FFF786FF002301A827F8153013
:102C60000194FFF701FF019B00EB8300074BD0F8B5
:102C70000027134043F00203C0F80037044803B0B4
:102C8000F0BD0448FBE700BF94010020F0F8FCFF12
:102C90000000AD0B0400AD0B2DE9FF411646804648
:102CA0000846FFF7F1FE0D463168044609B3284691
:102CB000FFF720FF18B12846FFF728FF10BB0023BD
:102CC000CDE900338DF80E308DF80F300DF10F0285
:102CD0000B4628460DF10E0102F080FB474A04F135
:102CE000080132F8113023F0020343F0010322F807
:102CF0001130736863B328461F785968FFF7FAFEEE
:102D000010B1D1B13E4826E03C4A04F1080032F847
:102D1000103023F02003DB04DB0C22F8103061B10B
:102D2000032FEFD87168496891F800C0D8F80010F7
:102D3000A7B90CF5A27C41F82C70304A04F10801C7
:102D400032F8113023F01C0343EA870322F81130D4
:102D5000B3684BBB2B4804B0BDE8F08101EB8C019C
:102D600043EA4C33D1F810E52EF0030EC1F810E51C
:102D7000D8F8001001EB8C0E43F02003DEF810159C
:102D800022F8103021F44F3121F44071CEF81015A3
:102D90002902DEF8108501F47C5141EA074141EA3D
:102DA0000801CEF81015C8E7D3E900672846FFF7F9
:102DB000D9FE002ECED0114DD5E90023964203D185
:102DC0009F4201D1002209E00F480DF10F01FFF7EA
:102DD000EBFC0C4B9842BED19DF80F2045F83260B9
:102DE00005EBC20308345F6035F8143043EA422330
:102DF00043F4807325F81430ACE700BF9401002041
:102E00000400AD0B0000AD0B0C0200202DE9F043D7
:102E10000C4685B08046204611461E46FFF734FE1C
:102E2000054629B32046FFF765FE18B92046FFF78F
:102E30006DFE18BB314F05F1080937F8193013F052
:102E40001C0F02D04B78012B18D001238DF80F30C6
:102E50000023CDE900134A1C8B1C20460DF10F0105
:102E600002F0BCFA37F8193043F0030327F81930A1
:102E7000002E41D02046FFF73DFE18B9204805B08E
:102E8000BDE8F08396F800C0D8F800301B4F0CF571
:102E9000A272002143F8221005F1080237F812103F
:102EA00021F02001C904C90C27F8121075781DB350
:102EB000D8F80000B67800EB8C002D04D0F810355F
:102EC00023F4991323F4F853C0F81035230203F4C4
:102ED0007C5305F440353605D0F810E52B4306F455
:102EE000801641EA4C31334341F0200143EA0E039E
:102EF00027F81210C0F810350248C0E794010020EE
:102F00000400AD0B0000AD0B014BC3E9021270478A
:102F10009401002010B508461446FFF7F7FD50B1A4
:102F20000846FFF7B1FD054B083033F81030044870
:102F30005B0B237010BD0348FCE700BF9401002029
:102F40000000AD0B0400AD0B70B5164D95F8804038
:102F500006462CBB2146602205F1100002F0B8FCA9
:102F600030682E6F21468E420ED10023C0F87C318E
:102F7000D0F87C3140F30730FDF7E4FF01230A4825
:102F800085F88030AB6770BDCBB29B0003F58072D3
:102F90007C2B08BF845001F1010108BF8358E2E790
:102FA0000248F0E7940100200000AD0B0C00AD0BCF
:102FB000034B93F88000003818BF0120704700BF12
:102FC000940100200148FFF713BC00BF0802002055
:102FD0000148FFF7E9BB00BF0802002073B5036892
:102FE0001646D3F80423002AA8BF4FF00042054636
:102FF000A8BFC3F8042308460C46FFF787FD00B3BB
:103000000846FFF777FD0146D8B92046FFF766FD71
:1030100004B2A40004F58072034628688150296830
:1030200082582144D1F8102542F00102C1F8102540
:103030002EB12968012202FA03F3C1F8043302B069
:1030400070BD2046FFF720FD0F4B083033F81030DD
:10305000C3F38203042B12D0052B12D001A80194D4
:10306000FFF702FD019AD0F81035D34003F00103B9
:10307000991C204602B0BDE8704002F0F8B9032167
:10308000F7E70221F5E700BF940100202DE9F04F9A
:10309000694BDFF8A891D3F80403D9F87010C0B2D7
:1030A00089B040F00040FFF789FD051E2EDACA46C0
:1030B00000235AF87C1F06A8CDE90633FFF732FD3E
:1030C0005F4B01930DF118084FF0000B019A12F8B5
:1030D000013B0192DA0803F007031AF8022022FAF2
:1030E00003F3DA071BD408F10408BBF1000F13D077
:1030F00000214FF00040FFF761FDD9F87C1006A8D1
:10310000FFF710FD0028DBD125F000450124002D3C
:1031100079D109B0BDE8F08F4FF0010BD6E7494BEC
:103120005B440293D8F800100029DCD0029B91FA8E
:10313000A1F11C78B1FA81F141EA44142046FFF76D
:10314000A3FC0830059439F81070C808BB0818F8BB
:103150000020039301F00701012303FA01F122EAA1
:10316000010208F8002005A8FFF77EFC059A039BE2
:1031700002F5E072C7F3820650F822205B0737465B
:10318000C2F3014224D520463946D6B2FFF786FC69
:1031900005A80594FFF768FC059B03F5E07350F85C
:1031A0002330C3F301439E4207D10021204602F0A1
:1031B0005EF93146204602F05AF905A80594FFF75A
:1031C00053FC059B012202FA03F3C0F82035A9E75E
:1031D000022A0CD10321204602F049F906F005032A
:1031E000012BEAD139462046FFF758FCE5E70221DA
:1031F0002046039202F03BF9032EF3D0039A032AF0
:10320000DBD1022EEDE795FAA5F3B3FA83F304FAC6
:1032100003F29B0003F1804303F5C04325EA020556
:10322000D3F81005D3F81015C0F30520C1F3014100
:10323000FFF734FC6BE700BF006000409401002002
:10324000505F0000505F000001460148FFF7ACBA34
:1032500018020020036803F01F025B09026004D01B
:10326000012B034818BF002070474FF0A040704763
:103270000003005070B505790A4C14236B43E6181F
:10328000E35833B90068022102F05DF908B1012367
:103290003372142303FB0544207A023818BF01203F
:1032A00070BD00BFFC0500202DE9F3470B7F0446ED
:1032B0006BBBDFF8D8900D1F01F1100601F10C086F
:1032C000012755F804AFBAF1FF3F1CD03378CDF891
:1032D00004A001A8002B50D0FFF7BCFF019B07FA08
:1032E00003F3C0F8083501A8CDF804A0FFF7B2FF3A
:1032F000019B00EB8300D0F8003703EA090343F099
:103300000303C0F80037A84506F10106D9D191F8AA
:103310001DC00D8B4F7D8E7D8A7EC87E2368BCF1DB
:10332000000F0BD1D1E9008ED1E902C1C3F860854D
:10333000C3F864E5C3F868C5C3F86C1542EA002217
:10334000C3F80C75C3F80465C3F80855C3F8102515
:1033500020680023C0F81031D0F81021C0F80831DF
:10336000D0F80821C0F80C31D0F80C3140F3073008
:1033700002B0BDE8F047FDF7E5BDFFF76BFF019B2D
:1033800007FA03F3C0F80C35ADE700BFF0F8FCFF17
:103390002DE9F04190F804800D4C142606FB08F648
:1033A000A71997F808C0BCF1000F0ED1A2517B609D
:1033B00019B10B7F3B74FFF777FF142303FB08441D
:1033C000044801232372BDE8F0810348FBE700BFF6
:1033D000FC0500200000AD0B0C00AD0B70B40C46DA
:1033E0000179266815461A461A4B01EB810103EB59
:1033F00081010368C3F82065A688C3F82465A66820
:10340000C3F82865E668C3F82C6503682668C3F826
:103410004065A688C3F84465A668C3F84865E468B3
:10342000C3F84C45046805F0010303EB5505C4F8E7
:103430001455D4070CD412F0020403D0002B14BF8F
:10344000082404240568C5F8004270BC02F046B8A0
:103450001024F7E7FC05002038B503680579002241
:10346000C3F800220368012204465A6071B1204665
:10347000FFF700FF0028FAD023680022C3F80025D8
:10348000054B142202FB053301221A722046BDE8C7
:103490003840FFF7EFBE00BFFC05002010B5B22199
:1034A0001A4802F050F8C106044608D5184BDA68ED
:1034B000520704D51A6812B1596801209047A00636
:1034C00008D5134BDA68110704D51A6812B1596888
:1034D00002209047220608D50D4BD86810F0100046
:1034E00003D11A680AB159689047A3070DD5074B55
:1034F0000022C3F80025064B01221A721A6822B175
:10350000BDE8104059680320104710BD00C00140BD
:10351000FC05002038B5EFF31185202383F31288D2
:10352000BFF36F8F064B9C6802F051F885F311884A
:10353000BFF36F8F2046BDE83840FDF7ABBC00BF3E
:103540001006002038B50A4B53F82040013053F8DC
:103550002050A54200D838BD606830B1037FDB073A
:1035600001D402F037F80834F3E723689847FAE704
:10357000F85D000070B52A4B2A4C2B4D012286B015
:1035800003201A70FFF7DEFF01F06EF80420FFF74A
:10359000D9FF2646AE4204F1300410D300F0E4FC1B
:1035A000204C224EAC4226D300F0F2FC01F0D5FABA
:1035B0001F4A137B23F00103137306B070BD54F848
:1035C0000C3C059354F8103C049354F8143C0393BA
:1035D00054F8183C029354F81C3C019354F8203CD6
:1035E000009354E90A2354E90C0100F09FFA54F8BF
:1035F000303C5E65CDE7D4E90A23B3F1FF3F08BF55
:10360000B2F1FF3F05D052EA0301206803D100F078
:103610007BFD3034C6E73146183000F01DFFF8E777
:10362000760600202C5C00002C5C00009557000002
:103630006003002008B50348034A0021121A01F074
:10364000E0FF08BD380200207806002070B5002396
:1036500086B00122CDE90423134E144D01930F22AD
:10366000CDE902321249142303FB005506EBC016C4
:1036700004464FF4C07000FB04110E4B00954FF44C
:10368000A072304600F052FA737B0B4AEE6023F0D2
:10369000040373734FF4046304FB033313442C7467
:1036A0006B6006B070BD00BFE00200201006002075
:1036B000801000200B56000040080020BFB50020FD
:1036C000FFF740FF294B83F30888294C294F636992
:1036D00043F4007363610025E02384F82230E5772A
:1036E00025766576A57684F82050636A43F4E02356
:1036F000636284F82350FDF79BFBFDF7D1FC4FF08C
:10370000FF33A362E362FDF791FDFDF7EDFC1A487C
:103710001A4C00F083FA01F046FF0120FFF712FF78
:103720000220FFF70FFF00F067FC154B15495C61A5
:10373000154B05930123CDE903534FF480623B46BB
:10374000CDE901550095204600F0F0F9627B064670
:1037500022F004022046627301F0F0FF2846FFF7D2
:1037600075FF3A4631462046FDF77CFC801000206C
:1037700000ED00E075350000E0030020600300204C
:103780001006002000120020525F000070B5EFF319
:103790001186202383F31288BFF36F8F0468A04241
:1037A0001AD0CCB1D4E9003213605A60637B002593
:1037B00023F002036373C4E90055A56004F1180007
:1037C00002F04CF82046A56701F0B8FF31460848E2
:1037D000BDE8704000F0A2BBD0E902329A4218BFA7
:1037E0000133836086F31188BFF36F8F70BD00BF14
:1037F0007706002013B5EFF31181202484F312889B
:10380000BFF36F8F846844B1013C846081F31188F9
:10381000BFF36F8F002002B010BD52EA030406D13F
:1038200081F31188BFF36F8F6FF00F00F3E7CDE9DD
:1038300000230246014800F04FFBECE7770600202A
:103840002DE9FF414F4E04462027EFF3118887F3FF
:103850001288BFF36F8FD4F88450F5B9022104F1B8
:103860009C0001F0DDFE002868D004F194050022E0
:103870000121284601F0B9FF0028F8D10023029366
:103880004FF0FF324FF0FF33CDE90023414604F102
:103890008C023D4800F0FEFCD7E7D4F888202B6866
:1038A000C4F88430954208BFC4F88830D4F89C30FE
:1038B00043F00203C4F89C30EB6823F0040343F0A8
:1038C0000103EB606B6888F31188BFF36F8F2846A4
:1038D0009847EFF3118887F31288BFF36F8FEB6877
:1038E000D80623F0010236D4EA60EB689A0716D5B1
:1038F000306823F00203EB6088B10368002170B1E7
:103900004268954235D1036869BB72683360824270
:1039100000D17360002340F8083BFFF737FFD4F86D
:103920009C3023F00203C4F89C3088F31188BFF365
:103930006F8FDB0589D400F067FB86E7D4F89C30F5
:10394000D9069BD5C4F89C0088F31188BFF36F8F0C
:1039500004B0BDE8F08123F01103EB6005F1100025
:10396000FFF714FFC1E70B607368834208BF716003
:10397000D0E723B11A68014618461346BFE71A4636
:10398000F9E700BF3006002077060020F8B5C368CD
:103990009A0704460F46C3F340062ED45B071CD497
:1039A0000B680BB983680B60E368DD0744BFA3684D
:1039B0003B603D684CBF02260126002D3CD0204BC9
:1039C0009A68D5F880309A420AD0D5F89C30D8074A
:1039D000C3F3800214D46FF0120600233B6025E08D
:1039E00001F069FED5F89C300028F0D1D907C3F367
:1039F000C002F0D552B15B0708D46FF00F06ECE7B8
:103A0000002AFAD1C3F3C003002BF6D100232360B0
:103A1000D5F8883063B9C5E92144284601F01AFE7B
:103A2000E36843F00403E3603B68A3603046F8BDFD
:103A30001C60C5F88840F0E76FF01506CDE700BFC1
:103A400010060020F0B589B004460020C4E921002A
:103A50000E9D04F18C00C4E9230004F19400C4E934
:103A6000250055B32879002840F2011008BF012035
:103A7000C4F89C0000204FF0FF364FF0FF37CDE92F
:103A80000330CDE90100CDE906670D4B00942046D7
:103A900000F098F855B1296811B1204601F011FEE7
:103AA0006B791BB1237B43F001032373204600F0A5
:103AB0002BFBC4F8804009B0F0BD0120D8E700BF5F
:103AC00041380000F7B50C46019016461D46EFF34D
:103AD0001187202383F31288BFF36F8F084601F00C
:103AE000AAFD55EA060309D101A92046FFF74EFFBA
:103AF00087F31188BFF36F8F03B0F0BDE368074908
:103B000043F00803E360019BA36232462B4604F1B5
:103B1000100000F0A1FC0120EAE700BF635600009E
:103B200001460148FFF7CEBF800400202DE9F04395
:103B3000073285B022F007020E461F461099017326
:103B400000F158037F32C0E916330446002322F007
:103B50003F020421836041733F2A0F98A073C4E998
:103B60000633E37306F14009A2F1400805D883F358
:103B70001188BFF36F8F084602DFB518294620462B
:103B8000FCF7E2FF07300E9B20F00700A066C4E9B7
:103B9000189802930D9B01932D1A0C9B00932A46B3
:103BA0003B4631462046FDF72BFA00236365044B64
:103BB0009B6803B1DB6EE366284605B0BDE8F08381
:103BC00010060020F0B587B000250595109D0495DE
:103BD0000F9D03950E9D0295DDE912760D9D0195D1
:103BE0000C9D00950446FFF7A1FFB6F1FF3F08BF0B
:103BF000B7F1FF3F05D056EA070305D1204600F094
:103C000083FA204607B0F0BD3A46334604F1180067
:103C1000014900F021FCF4E79557000040F2011340
:103C200083810023C0E91833C366014B9860704755
:103C300010060020094A93686FF00A019967084945
:103C400058674B6843F080534B60002383F311881F
:103C5000BFF36F8F9368986F704700BF1006002006
:103C600000ED00E070B590F90D20437B002A36DBB3
:103C7000D90634D11B4C63F07F032246437352F8BC
:103C8000183FE169934207D1C0E900210860E06173
:103C900011E09942F8D01B68002BF5D090F90E5036
:103CA00093F90E60B542F4D0AE42F2DD5968C0E936
:103CB000003108605860A569954200D005B9E568F3
:103CC000A3685A7BD20604D1DA897F2A01D9AA696E
:103CD00032B1AB4202D0284600F01CFB656170BDDA
:103CE0006361FCE71006002038B590F90D20437B96
:103CF000002A014604DA03F07F03437301F0E4FC79
:103D00000D4D2A46AB6852F8184F944200D004B9C2
:103D1000EC688B4207D05A7BD20604D1DA897F2A1D
:103D200001D9A2692AB1A34202D0204600F0F2FADA
:103D300023466B6138BD00BF10060020B3F1FF3F82
:103D400008BFB2F1FF3F03D00249183000F084BB36
:103D5000704700BF9557000070B590F90D20437B68
:103D6000002A014604DA03F07F03437301F0ACFC40
:103D70004B7B1C4C63F07F0322464B7352F8183F79
:103D8000E069934207D1C1E900200160E16111E0DF
:103D90009842F8D01B68002BF5D091F90E5093F99A
:103DA0000E60B542F4D0AE42F2DD5868C1E9003091
:103DB00001605960A569A368954200D005B9E5681E
:103DC0008B4207D05A7BD20604D1DA897F2A01D9E7
:103DD000AA692AB1AB4202D0284600F09BFA2B46D2
:103DE000636170BD10060020F8B5394CA2688242AC
:103DF000074624D1EFF305830BBBEFF31186202395
:103E000083F31288BFF36F8F537B03F07F0343F07C
:103E10001003537301F058FC234653F8185F9D427A
:103E200000D005B9E568A3689D4202D0284600F09D
:103E300071FA65613046BDE8F840FFF7FBBEEFF36D
:103E40001185202383F31288BFF36F8F7B7BD90604
:103E500004D585F31188BFF36F8FF8BDD90943F0FE
:103E6000100219D17A73A6691A4B9E4200D006B986
:103E7000E668A368B34202D0304600F04BFAA3686C
:103E800066619F42E5D1EFF30583002BE1D13A7BD8
:103E9000D2070AD42846CEE703F07F0343F010038D
:103EA0007B73384601F010FCDDE785F31188BFF322
:103EB0006F8F83F31188BFF36F8F0423184602DFDF
:103EC000EFF31180202383F31288BFF36F8FB2E7E3
:103ED0001006002028060020F8B50E4B0C461146AF
:103EE0000D4A98681060DDE90667EFF31182202221
:103EF00082F31288BFF36F8F9D68284601F0F6FBAE
:103F0000284632463B46FFF719FF2046BDE8F840F9
:103F1000FFF790BE100600203806002049B9EFF3E5
:103F2000058030B9054B5A699B689A4201D0FFF76A
:103F300081BE81F31188BFF36F8F70471006002098
:103F4000034648B9EFF3058232B9064A51699268CF
:103F5000914201D0FFF76EBE83F31188BFF36F8FDC
:103F6000704700BF10060020EFF31181202383F378
:103F70001288BFF36F8F054B9A68D37B013BD373D5
:103F800081F31188BFF36F8F704700BF10060020C8
:103F900070B5EFF31186202383F31288BFF36F8F80
:103FA000144DAB68DA7B0132DA732A4652F8184FA7
:103FB000944200D004B9EC685A7BD20604D1DA8965
:103FC0007F2A01D9A2692AB1A34202D0204600F07B
:103FD000A1F923466B6186F31188BFF36F8FEFF36E
:103FE0001180202383F31288BFF36F8FBDE87040E8
:103FF000FFF7A6BF10060020024B03F11802C3E929
:10400000062270471006002070B5EFF311862023BA
:1040100083F31288BFF36F8F1B4CA168E0690B68B4
:10402000814214BF1A46002249680B605960A36898
:10403000E1692AB9154AC3E900210B60E3610CE08C
:1040400093F90E0092F90E50A84218D0854216DD61
:104050005168C3E900210B605360A5690B4B9D4279
:1040600000D005B9E568A3689D4202D0284600F05B
:1040700051F965613046BDE87040FFF7DBBD8A420B
:10408000D8D01268D5E700BF10060020280600200F
:10409000F8B550EA010306460C4603D1FFF7B4FF1A
:1040A0000020F8BDEFF31187202383F31288BFF3BC
:1040B0006F8F124D124BA8681860FFF715FEA868A5
:1040C000104923463246183000F0C6F9AA68537BDF
:1040D00043F00403537304463846FFF7ABFDAB6867
:1040E000D3E90A23B3F1004F08BF002AD8D101F069
:1040F000DDFB201A20EAE070D3E700BF10060020A5
:10410000380600209557000038B50446EFF31185B6
:10411000202383F31288BFF36F8F437B5B070FD598
:10412000183001F09BFB637B23F00403204663738C
:10413000FFF798FD29460548BDE83840FFF7EEBE79
:1041400085F31188BFF36F8F38BD00BF770600205D
:10415000014B9868704700BF100600202DE9F84316
:104160000446077BEFF31185202383F31288BFF306
:104170006F8F437B190705D585F31188BFF36F8FC8
:10418000BDE8F883D90943F008025AD14273A36805
:1041900013B1204601F0A0FA04F1180001F05EFB13
:1041A000A66D04F15808B04511D04FF0000976B162
:1041B000304601F091FA06F1180001F04FFBC6F805
:1041C00078903046FFF74EFDA66DB045EFD1DFF891
:1041D000B880D8F808309C423BD1EFF30589B9F19B
:1041E000000918BF4FF00109D8F81860274A964215
:1041F00000D00EB9D8F80C60B34202D0304600F0BF
:1042000089F8C8F81460B9F1000F02D02048FFF710
:1042100005FDD8F808309C4231D1EFF3058373BB1C
:10422000227BD20718D42846FFF704FDFB07A7D549
:10423000002383F31188BFF36F8F0423184602DF36
:104240009EE703F07F0343F00803437301F03CFA59
:104250009DE74FF00009C7E785F31188BFF36F8F23
:1042600083F31188BFF36F8F0423184602DFEFF347
:104270001180202383F31288BFF36F8FD4E785F377
:104280001188BFF36F8FD1E71006002028060020A9
:10429000E0030020D3B5DDE90667089CCDE900679F
:1042A000FFF71AFE1CB1034B9B681B69236002B029
:1042B000D0BD00BF10060020044BC01A044BC01034
:1042C0005843044B01221A54704700BF6004002079
:1042D000ABAAAAAA77060020C3897F2B12D80A4B63
:1042E0001B6863B1094B90F90E201B689A4209DBE9
:1042F000437BDB0606D1064BC31A18BF012303F02C
:10430000010070470023FAE71C0200203C06002051
:10431000E002002070B50E4B0E4C1E7C06EB4603EF
:1043200004EBC3040546204601F098FA0A4B00222C
:1043300028469A55FFF7D0FF48B1084B08491A683C
:10434000013A2046D317BDE8704000F085B870BD33
:104350001006002060040020770600201C020020C8
:10436000B942000038B5EFF31185202383F312889A
:10437000BFF36F8F104B114A9C681068A04206D1A2
:10438000FFF7C8FF85F31188BFF36F8F38BD002199
:104390001B7C11600A4AD35C002BF3D02046FFF748
:1043A0009BFF0028EED0637BDB0602D12046FFF79F
:1043B000D3FC2046E4E700BF1006002038060020AA
:1043C000770600200748084A084908B5121A01F084
:1043D0001AF90748074A0849BDE80840121A01F0CF
:1043E00012B900BF0000002038020020985F0000D2
:1043F0000000002000000020985F0000024B1868B9
:10440000984208BF0020704720020020034B1B6821
:104410000BB9FDF795BF0020704700BF4006002094
:1044200030B570B10B4B5B6898420AD0036843B15A
:10443000D3E90421D0E90445121941EB0501C3E990
:104440000421D0E9003213605A600023C0E9003330
:1044500030BD00BF20020020B3F1FF3F08BFB2F122
:10446000FF3F2DE9F84F0446994615461F467AD07E
:104470008160EFF31188202383F31288BFF36F8FDD
:10448000B9F1000FDFF8E4A020DBFFF7BFFFDAE9A6
:104490000027013549F100092D1849EBE073C4E903
:1044A0000453AD18064643EB07074FF00109FFF729
:1044B000A5FFDFF8BCE0DEF804A00346EBB9C4E9D1
:1044C00000EACAF80040CEF8044028E0DAE9001219
:1044D0006FF001035B1A4FF0FF3161EB02025B1BCF
:1044E00062EB0902012B72F10001BCBF0123002223
:1044F000C0E904324FF00009D9E7D3E9041CD4E93C
:1045000004208A4270EB0C0B24DA891A5A686CEB8F
:104510000000C3E90410C4E9003214605C60FFF7D6
:104520006DFF84420ED1134B1B685BB9B9F1000FCC
:1045300002D1FFF76BFF0646304601F078F9002103
:10454000FDF7D0FE88F31188BFF36F8F28463946F8
:10455000BDE8F88F521A60EB0C009A45C4E90420BC
:10456000ADD01B68AAE700252F46EFE778040020AE
:1045700020020020400600202DE9F047EFF31185CE
:10458000202383F31288BFF36F8FDFF8A490DFF846
:10459000A480C9F80000FFF731FF00260027D9F8F2
:1045A0000030D8E900ECD91750B1D0E90442A34259
:1045B00071EB020A1CDAE41A62EB0102C0E9044260
:1045C00013EB0E034FF000044CEB01012046C8E949
:1045D0000031C9F8004001F02AF92146FDF782FEBA
:1045E00085F31188BFF36F8FBDE8F047FFF7BABEC0
:1045F00014EB0E024CEBE473C0E90467C8E9002336
:10460000FFF70EFF85F31188BFF36F8F836898471C
:10461000EFF31185202383F31288BFF36F8FD9F84E
:1046200000301B1BC9F80030FFF7E8FEB7E700BFFA
:10463000400600207804002010B5EFF311842023F9
:1046400083F31288BFF36F8FFFF7E0FE054A03463E
:10465000D2E90001181841EBE37184F31188BFF32C
:104660006F8F10BD78040020014800F02DBB00BF03
:10467000575F000007B5074B0093074907484FF005
:10468000FF334FF48062FFF7DDF9002003B05DF8DF
:1046900004FB00BF105E00004016002080040020D4
:1046A0002DE9F04F8DB043680293837815469A0741
:1046B000804640F10D8100240E78002E00F00A8122
:1046C000252E0BD04B1C03930134029B41463046F0
:1046D00098470028C0F2F6800399EDE74E788B1CCE
:1046E000252E0393F0D00027B946BB46BBF11F0F20
:1046F00038D8A6F12003102B0AD8DFE803F02A09E6
:1047000009300909092109090928092D09091F008A
:10471000A6F13003092B33D92A2E37D11BF0400FD5
:1047200055F8043B40F08280002BA7BF4BF0200BD4
:104730009946C3F100094BF0280B01E04BF0010B47
:10474000039B13F8016B0393002ECFD130E04BF0A5
:10475000020B4BF0040BF3E74BF0080BF0E74BF0C8
:10476000100BEDE7BBF17F0F19D8A6F13003092B31
:10477000D2D81BF0400F03D00A2101FB0737DFE737
:104780000A2101FB09394BF0200BD9E72E2E06D167
:104790001BF0400F40F09E804BF0400BD0E76C2E9A
:1047A00031D02BD8682E36D06A2E3CD04C2E3AD041
:1047B000002F46F02003B8BF2BF04002A3F16501A3
:1047C000BCBF1FFA82FB0027022901D9612B2FD120
:1047D000073525F00705DFF8ACA2083507271BF0E1
:1047E000080F66D00AEB070B56465E4563D1A4EB73
:1047F0000A0A06EB0A02A9EB07096FE1742E9FD0A3
:104800007A2E9DD0D4E71BF0800F18BF4BF4007BAD
:104810004BF0800B94E71BF4807F18BF4BF4007BB8
:104820004BF4807B8CE74BF4207B89E71F4687E7BE
:10483000A6F16301122900F2F080DFE811F0130005
:104840004F00EE00EE00EE00EE004F00EE00EE0036
:10485000EE00EE00EE00FE00E900EE00EE001B00B0
:10486000EE00AF0055F8043B8DF8183001270DF12C
:10487000180AB4E755F804AB834BBAF1000F08BF30
:104880009A461BF0400F14BF39464FF0FF31504697
:1048900001F026F80746A2E7029B414620209847F0
:1048A00000280FDB013EB742F6D34C44A41BB146AF
:1048B00098E74E46F7E716F8010B029B41469847EA
:1048C000002892DA98F8023043F0040388F80230A6
:1048D0004FF0FF3420460DB0BDE8F08F1BF0800F85
:1048E00034D01BF4007F2CD0073525F00705AA46ED
:1048F00069685AF8080B2BF010050029ADB237DAB9
:10490000404261EB410145F480650DF1180B0A232B
:104910005A4600F0F1FFA0EB0B0301936B0662D542
:10492000019B25F001019F4289B240F3A180002E36
:1049300000F0998015F0100240F09C80BB460D46B7
:1049400023E0AA465AF8040BC117D4E7AA461BF481
:10495000807F5AF8041B01D10846F5E71BF4007F5D
:1049600015BF48B208B241F3C01141F3C031C2E7EC
:1049700050EA0103C9D11BF0400FC6D0002FC4D1AB
:104980002BF0110295B2BB46019740F2064115EAA1
:1049900001021CBF0BF1010B00222CE02BF01002D6
:1049A0001FFA82FB0A231BF0800C49D01BF4007114
:1049B0001DBF073525F00705AA46AA461ABF5AF8B3
:1049C000080B69685AF8040B50EA010545D12BF031
:1049D00016051BF0400FADB242D0002F40D12BF096
:1049E000170295B2019715F0100248D0019B002ED6
:1049F00042D103F1010B29075AD4EB0706D5D9455B
:104A00006FDD0199A9EB0B035F18CB465B4649E0CC
:104A10004BF0100B10237826C5E7782B04D1C6F194
:104A2000780343F01003BEE7029B414625209847D8
:104A30000028FFF647AF023447E608230026B2E716
:104A4000AA461BF480715AF8040BBDD01BF4007108
:104A50001ABFC0B2614680B2B6E72BF0060295B22B
:104A60000DF1180B54E725F01105ADB2BB468CE7EC
:104A70000D46B8E73B460D4603F1020BBBE7DDF8F8
:104A800004B082E78F5F0000885F0000CDE9043248
:104A90004146029B202098470028FFF613AF049B55
:104AA000059A01339945F1DCA4EB0B01CC189B4628
:104AB0000AB3029B4146302098470028FFF602AF18
:104AC0008EB901342744019B391B994224DC1D46D1
:104AD0005DBB019AA9EB0B0922445546144691444B
:104AE00035E0019F92E7023441463046029B9847E9
:104AF0000028E7DAE6E640F206410D42E2D015F082
:104B0000020F14BF2B20202015F4806F04F1010444
:104B1000414618BF2D20E9E7029B414630209847C7
:104B2000002804F10104CEDACCE606AB013D414693
:104B3000585D029B98470028CADAC3E6029B4146AB
:104B400020209847002804F10104FFF6BBAEA9EB32
:104B50000403002BF2DCBFE5704708B5FDF712FC3B
:104B600000280EDBFDF79CFC00280ADBFBF784FE27
:104B7000FBF78EFE002804DB0021212000F00EFE52
:104B8000F6E7002008BD704710B500240482847445
:104B900021462046FDF7F6FC21460220FDF7F2FCF7
:104BA00021460120FDF7EEFC21460320BDE8104020
:104BB000FDF7E8BCFFF7E8BFFFF7E6BF10B500243C
:104BC0000482847421462046FDF7DCFC2146022045
:104BD000FDF7D8FC21460120FDF7D4FC2146032037
:104BE000FDF7D0FCBDE81040FBF7B0BC7047704744
:104BF000704700EBC100408840087047F8B5034695
:104C0000FFF7F7FFB0FA80F0C0F11F0003EB800C54
:104C1000CA00DCF81060171D0C4606328DB256B97A
:104C2000012101FA00F0D9680143D960CCF81040A5
:104C3000DD539D52F8BDF1000431585AD85303EBAF
:104C4000C0009E52C5805D52F4E7043A2DE9F04160
:104C5000CC1D114424F0070421F007010E1BF708B6
:104C6000B7FA87F2C2F12405AD004FF0000807350E
:104C7000C2F12002ED0804604146A760C4F80C8030
:104C8000920004F1100000F023FE6B0043F00103DA
:104C9000638004EBC5027B1B5900A4F8008051809F
:104CA000A21924F83550A2F80280A35304EBC703DD
:104CB00029465A8842F001025A802046BDE8F04158
:104CC000FFF79CBF002070470FB407B504A951F847
:104CD000040B0191FBF7EEFD03B05DF804EB04B0AB
:104CE0007047038B13F0070305D10368002B0CBF3B
:104CF000002003207047022B05D1408BB0FA80F0D2
:104D0000400980007047012B05D10368002B0CBFC0
:104D10000020052070470020704710B50C4600B1F8
:104D200011B96FF0150010BD081D00F093F80028B0
:104D3000F9D1A368032BF6D9F3E72DE9F0410D462D
:104D400007461946281D90461E4600F094F8044672
:104D500038B13346424629463846A446BDE8F041BC
:104D60006047BDE8F08110B4EFF31182202484F392
:104D70001288BFF36F8F416110BC0121FBF7CCBDDE
:104D800038B50C46054658B151B10B6843B14B6874
:104D900033B11C22002100F09BFD2C61002038BDA6
:104DA0006FF01500FBE770B505460E46FFF7B5FF3F
:104DB000041E14DBEFF31182202383F31288BFF368
:104DC0006F8F6B8B2C8B4FF6FF718B4204F00704B7
:104DD00007D182F31188BFF36F8F6FF00A0420466A
:104DE00070BD022C0CD101336B8382F31188BFF3A9
:104DF0006F8F0023224631462846FFF79EFFEEE7DD
:104E0000062C14D8DFE804F004131313041A04006A
:104E1000002333606B683BB9C5E90066ACB9022179
:104E20002846FBF779FDDAE71E606E60F6E782F34D
:104E30001188BFF36F8F6FF00404D0E782F31188FD
:104E4000BFF36F8F6FF08504C9E782F31188BFF35A
:104E50006F8FC4E7034658B1426802F00302012A8B
:104E600003D0032A04D1026812B100209860704771
:104E70006FF0150070474268816002F00302032A58
:104E80004FF0000203460CBF006810465A6070479E
:104E90007047012801D1EFF30583FEF73BBB0146C4
:104EA0000068FFF7F6BF08B5FBF74AFEBDE808400B
:104EB000FBF76ABE00210120FFF7EBBF61B662B6C7
:104EC00080F31188BFF36F8F704772B6002383F3AE
:104ED0001188BFF36F8FBFF34F8F30BF62B6BFF340
:104EE0006F8F704772B6002383F31188BFF36F8F03
:104EF000BFF34F8F20BF80F31188BFF36F8F62B66F
:104F00007047202809D9B0F1004F08D80138B0FA0D
:104F100080F0C0F11F0040007047082070473E201D
:104F2000704708B5FCF736FA002008BD0022C0E93A
:104F30000122027B016022F00F0202730B6803B1B1
:104F40001847704770B504460D46D1B1037B5A0728
:104F500017D40268916859B143F00403037393684E
:104F60009847237B13F002020BD162F38203237371
:104F70002368C4E900532B681BB12046BDE870408C
:104F8000184770BD08B5027B910701D5806808BD40
:104F9000036822F00F0202735B680BB90020F6E78A
:104FA0009847FBE70369C9B20C2201FB0233186C76
:104FB00000F00700704770B5C9B20369EFF31185BF
:104FC000202484F31288BFF36F8F0C2606FB013474
:104FD000246C14F0C00408D0A24206D085F31188D6
:104FE000BFF36F8F4FF0FF3070BD06FB013301221E
:104FF0001A6485F31188BFF36F8F436803EBC10315
:105000005B6898470020EFE78022FFF7D4BFF8B530
:10501000069F0469C9B2EFF31186202585F3128833
:10502000BFF36F8F0C2505FB0144256C05F0070CC1
:10503000BCF1010F0CD1276486F31188BFF36F8F89
:10504000C4E90E23436853F8313098470020F8BD77
:1050500005F0C005AF4286F31188BFF36F8F0CBF18
:105060006FF077004FF0FF30F1E713B58024009424
:10507000FFF7CDFF02B010BD10B40069CBB21C2405
:1050800003FB0400002110BC10470020FDF75ABCB0
:10509000002000F0A1B91046FEF778BB43685B68BA
:1050A000D3F810350B600020704743685B6802EA54
:1050B000010021EA0201C3F80805C3F80C1500201D
:1050C000704743685B680020C3F808157047436861
:1050D0005B680020C3F80C15704743685A68D2F823
:1050E000043521EA03000B40C2F80805C2F80C356C
:1050F0000020704710B503695868F8B1884219D18B
:105100009C6808685860A14200D19860002008603F
:105110002AB15A680A609A68596002B999600020F9
:1051200010E0814206D10868206098688142EDD184
:105130009C60EBE7044600680028F2D1002AE8D121
:105140006FF0150010BD30B543681360057A4468F0
:1051500004EBC504A34202D36FF0010030BD5C79BB
:105160008C4201D00833F0E70020F7E7704743682E
:10517000DB6B0020C2E9003070472DE9F341BDF838
:1051800020C045680469032906460CF0010C5ED86E
:10519000A87F012808BF5B084FF0010008BF520834
:1051A0008840002B56D0934257D22768BA4211D07C
:1051B000277987434BD19646BEF5004F42D22260F5
:1051C00067712A6895F81E80C2F80C75C2F80485CC
:1051D000C2F808E5627923FA02F292B24FF0010EAA
:1051E00077688CF00108BF6A42EAC83227F81120BC
:1051F000C7B2BEF1000F3FD12A6801F5AC7152F879
:105200002120002A0FDBBCF1000F4AD0B3FA83F350
:105210005B093BBB01A80192FCF73EFD019A01230B
:105220009340C0F80C35217921EA0701217139B387
:10523000A37973BB1023012205F128012846FEF74C
:10524000CDF822E00137082F4FEA5E0EB4D16FF09F
:1052500015001BE09E461A46C2E74FF0000E47F6C7
:10526000FF72BDE701A80192FCF716FD019A012328
:105270009340C0F80835D6E723793B432371D7E73D
:105280007068FEF7E9F80123A371002002B0BDE8C1
:10529000F0810023A371284600F07FF90028FAD09E
:1052A000C8E7003B18BF0123B3E743681B68D3F886
:1052B0008004C3F88004704742681368D3F8100173
:1052C00050B1D269002012780A70C3F81001D3F8E7
:1052D000102101221A6070474FF0FF3070470268BA
:1052E0000346D2F8580140B95B68DB0706D4D2F810
:1052F0002001003818BF0120704701207047436823
:105300001B68D3F80423D20517D5D3F82021A2B106
:10531000EFF31182202181F31288BFF36F8FD3F84E
:10532000201131B10021C3F82011D3F8201101213F
:10533000D96082F31188BFF36F8FD3F8583170476B
:1053400000F150039B009BB203F1804303F58833C7
:1053500000221A601B68704737B50C4605698368E0
:1053600001A95B68984748B9019B2A685A40012304
:1053700003FA04F10A4214BF1846002003B030BDFE
:1053800010B5044610F8141C50F8180CFFF7E4FF91
:1053900010B1012304F8103C10BD032838B50446B1
:1053A0000D4607D8FDF768F829462046BDE8384085
:1053B000FBF712B86FF0150038BD004700F0EFB8EA
:1053C000C00000F1804000F5F830C0F81015C0F8BA
:1053D00014257047FDF738BFFDF730BAF7B50190D7
:1053E00001A8DDE9084716461D46FDF73DFB019B78
:1053F000B6F1000C18BF4FF0010C00EB83000B1E40
:1054000018BF0123002D43EA4C0314BF4FF00C0CCE
:105410004FF0000C002C43EA0C0314BF4FF4E06C77
:105420004FF0000C002F43EA0C03D0F8002714BF04
:105430004FF4403C4FF0000C43EA0C0322EA030314
:1054400001B109780EB13678760019430DB12D7887
:10545000AD0031430CB12478240229430FB13F78C9
:105460003F040C433C43C0F8004703B0F0BD1FB5F8
:105470000DF10F03019300238DF80F1000931A46CE
:105480001946FFF7ABFF05B05DF804FB38B50546DC
:1054900008460C46FDF73AFBB0B10846FDF72AFB7B
:1054A00090B90846FDF71AFB2A6801238340C2F829
:1054B00008332A6803B202EB8303D3F8102522F0E5
:1054C0000302C3F8102538BD20460021BDE838404E
:1054D000FFF7CDBFFDF7A0BBFFF7D8BF30B5022463
:1054E0000C72CA6004680125C4F80055096879B1D6
:1054F00012F0040F0CBF82219221150748BF41F022
:105500002001D406046848BF21F08001C4F80013CC
:105510009B000168083312F0800006BF0122CA50C8
:10552000C81830BD30B5A2F58075AD080124AC4077
:105530000C4207D0815829B10021815082581A6845
:1055400022431A6030BD13B500230C4601934FF47B
:10555000887201ABFFF7E6FF21464FF48A72FFF72E
:10556000E1FF21464FF48E72FFF7DCFF21464FF436
:105570008272FFF7D7FF21464FF48472FFF7D2FF04
:1055800021464FF48672FFF7CDFF4FF48C7221460F
:10559000FFF7C8FF019802B010BDFDF76BBE08B160
:1055A000FBF740BF7047704740B1C368587810F0B0
:1055B00001001EBF1878B0FA80F040097047EFF381
:1055C0001183202383F31288BFF36F8FFEE708B5A2
:1055D000FFF7F5FF10B54369044633B90020E268D0
:1055E000537843F00103537010BD98470028F5D05D
:1055F0000028B8BF4042E368FF28A8BFFF2018700A
:10560000EDE700F065B900F055B908B52024EFF3D7
:10561000118384F31288BFF36F8FFFF756FCF6E710
:10562000026801238B4022EA0303036022FA01F09F
:1056300000F00100704710B5032104460C30FFF75D
:10564000EFFF30B104F1100000F008F9B0FA80F07B
:10565000400910BD20B1002211468C3000F0C5B8C1
:10566000704773B50446EFF31185202383F3128846
:10567000BFF36F8F0023A0F11006032104380193BC
:10568000FFF7CEFF28B1A369019301A93046FEF7C9
:105690007DF985F31188BFF36F8F02B070BD38B507
:1056A000302204460D46002100F012F94FF48073B9
:1056B0006560E36038BDEFF30580003818BF012056
:1056C00070476FF057007047D0E9003213605A609E
:1056D0000023C0E90033704708B5FFF7F5FF437BAF
:1056E00023F0020343730023836008BD38B50446EA
:1056F0000D46FEF7F9FA637B43F002036373E5B1ED
:10570000A5602B689D4209D16B68C4E900531C60F9
:105710006C6012E06A689A42F6D01B68002BF3D0E6
:1057200094F90E2093F90E108A42F3D09142F1DDE4
:105730005A68C4E9003214605C6038BD10B5EFF3FC
:105740001184202383F31288BFF36F8FFEF78AFA48
:1057500084F31188BFF36F8F10BD10B50146EFF3CE
:105760001184202383F31288BFF36F8F437B13F0E0
:10577000280F0AD183680BB1FFF7AEFF4B7B23F0F4
:1057800004034B730846FEF76DFA84F31188BFF3E8
:105790006F8F10BD01211838FFF7DFBF38B5044601
:1057A0000D46FEF775FCB5F1FF3F08BFB4F1FF3FB2
:1057B0000246204618D000204FF47A7447F6FF7353
:1057C0000146C2FB0431B3F5004F71F100020BD367
:1057D0006FF400429A4243F6FF728A4126BFD80B0B
:1057E00040EA41406FF0004038BD38B5EFF3118515
:1057F000202383F31288BFF36F8F0468A04212D076
:105800009CB1A16722612046FFF766FF04F11800F2
:1058100000F024F82046FEF725FA012085F31188D0
:10582000BFF36F8F38BD0020F8E72046F6E708B5D4
:105830000246FEF7E3FD70B1D0E904319B1A61EB3B
:10584000E272B3F1004F72F1000104DA002AACBF3A
:105850001846002008BD6FF00040FBE738B502464F
:10586000EFF31185202383F31288BFF36F8F036852
:10587000CBB1FEF7C3FD04461046FEF7D1FD002272
:105880004FF000438442C0E9042306D1FEF7BEFD79
:10589000FFF7CDFF0021FCF725FD002085F31188DF
:1058A000BFF36F8F38BD6FF01500F7E708B5FEF74F
:1058B000C3FE08BD0A44914200F1FF3300D1704796
:1058C00010B511F8014B03F8014F9142F9D110BD09
:1058D00002440346934200D1704703F8011BF9E7E5
:1058E00010B5024601448A42134603D01C780132A7
:1058F000002CF8D1181A10BDF0B5C3F137070446D3
:10590000FFB203F01F031046082BE6B233D0102B72
:105910003ED06508A40844EA817445EAC1752D1992
:105920004FEA910242EB5102290941EA02716D18D6
:1059300042EB1212290A41EA02616D1842EB12226F
:10594000290C41EA02416D1842EB1242AD1842F1B6
:105950000002EC0844EA4274D10804EB8402A6EB8E
:105960004205EDB2092D0CD90134A5F10A0541F12A
:105970000001EDB212E0E40844EA417406F00705C4
:10598000C908303554EA010200F8015BBCD1F0BD12
:10599000240944EA017406F00F050909092D84BFA2
:1059A000ED19EDB2EDE70000014800687047000016
:0459B000340500209A
:0859B40080A7FF7F0100000045
:1059BC00E113000000000000000000000C5A000081
:1059CC00000000004C5A0000000000002C5A00009F
:1059DC00000000006C5A0000491700000000000095
:1059EC008121000000000000BD1300000000000039
:1059FC007546000000000000000000008C5A0000FA
:105A0C00E65E0000F05C0000585C00002C020020F8
:105A1C0068050020E11400000000000000000000F8
:105A2C00F55E0000005D00002C5C00002E020020E2
:105A3C00BC0500200119000000000000000000005F
:105A4C00035F0000185D00002C5C00003002002099
:105A5C00C805002001190000000000000000000033
:105A6C00265F0000945D0000745C0000340200208E
:105A7C00DC050020191E00000000000000000000E2
:105A8C00195F0000305D0000505C00003202002005
:105A9C00D4050020B91C000000000000000000002C
:105AAC00ED290000BB53000000000000B54E0000C3
:105ABC006C5A0000FF52000000000000B54E0000C0
:105ACC0000000000B54E000000000000B54E0000C4
