:1000000000E90120F10A00004BBB0100DD0A0000FD
:10001000DD0A0000DD0A0000DD0A0000000000002B
:10002000000000000000000000000000B50B000010
:10003000DD0A000000000000550B0000DD0A000092
:10004000810D0000810D0000810D0000810D000078
:10005000810D0000810D0000810D0000810D000068
:10006000810D0000810D0000810D0000810D000058
:10007000810D0000810D0000810D0000810D000048
:10008000810D0000810D0000810D0000810D000038
:10009000810D0000810D0000810D0000810D000028
:1000A000810D0000810D0000810D0000810D000018
:1000B000810D0000810D0000810D0000810D000008
:1000C000810D0000810D0000810D0000810D0000F8
:1000D000810D0000810D0000810D0000810D0000E8
:1000E000810D0000810D0000810D0000810D0000D8
:1000F000810D0000810D0000810D0000810D0000C8
:100100007BB972B90029BEBF00204FF0004106E064
:1001100008BF00281CBF6FF000414FF0FF3000F017
:1001200057B8ADF1080C6DE904CE002909DB002BAE
:100130001ADB00F057F8DDF804E0DDE9022304B033
:100140007047404261EB4101002B1BDB00F04AF895
:10015000DDF804E0DDE9022304B0404261EB410137
:10016000524263EB43037047524263EB430300F098
:1001700039F8DDF804E0DDE9022304B0404261EB28
:1001800041017047524263EB430300F02BF8DDF866
:1001900004E0DDE9022304B0524263EB43037047FD
:1001A00053B94AB9002908BF00281CBF4FF0FF31DE
:1001B0004FF0FF3000F00CB8ADF1080C6DE904CE43
:1001C00000F010F8DDF804E0DDE9022304B0704728
:1001D000704700BF034613F8012B002AFBD1181A01
:1001E000013870472DE9F04786468C460846089E40
:1001F000154674461946002B40F0C2808542B2FA7B
:1002000082F245D94AB1C2F1200300FA02FC2EFA6B
:1002100003F3954043EA0C0C94404FEA154EA8B204
:10022000BCFBFEF8230C0EFB18CC08FB00F943EADC
:100230000C43994528D9EB1808F1FF3704D29945AA
:1002400002D9A8F102072B44A3EB0903A4B2B3FB24
:10025000FEFC0EFB1C330CFB00F044EA0344A042FE
:1002600014D92C190CF1FF3304D2A04202D9ACF1FD
:1002700002032C44241A43EA07401EB1D440002351
:1002800034607360BDE8F0874746DDE76346F1E719
:1002900092BB431B01214FEA154EAFB2B3FBFEFCEC
:1002A000200C0EFB1C330CFB07F840EA0343984577
:1002B00062D9EB180CF1FF3004D2984502D9ACF1A9
:1002C00002002B44A3EB0803A4B2B3FBFEFC0EFB1D
:1002D0001C330CFB07F744EA0344A7424ED92C1900
:1002E0000CF1FF3304D2A74202D9ACF102032C4433
:1002F000E41B43EA0040C0E7C2F1200320FA03F107
:10030000954090402EFA03F303434FEA154EAFB2E7
:10031000B1FBFEFC0EFB1C10190C0CFB07F841EAAC
:100320000041884504FA02F422D969180CF1FF3023
:1003300004D2884502D9ACF102002944A1EB08019E
:100340009BB2B1FBFEFC0EFB1C110CFB07F743EA52
:1003500001439F420ED9EB180CF1FF3104D29F42AA
:1003600002D9ACF102012B44DB1B41EA004192E7C8
:100370006046E3E76146F7E76046A3E76346B7E711
:10038000834206D916B9002108467BE7C6E900E09A
:10039000F9E7B3FA83F78FB9834201D3724508D8DE
:1003A000BEEB020460EB030301209C461EB9002152
:1003B00068E73846FAE7C6E9004CF8E7C7F1200CD1
:1003C000BB4022FA0CF41C432EFA0CF120FA0CF379
:1003D000B84001434FEA14490EFA07F5B3FBF9F8A8
:1003E0001FFA84FE09FB18300B0C08FB0EFA43EAD7
:1003F00000439A4502FA07F240D9E31808F1FF30AA
:1004000004D29A4502D9A8F102002344A3EB0A03BF
:1004100089B2B3FBF9F809FB183308FB0EFE41EA79
:1004200003418E452CD9611808F1FF3304D28E4563
:1004300002D9A8F10203214443EA0040A0FB02983C
:10044000A1EB0E014145CE46434602D306D14D45B0
:1004500004D2B9EB020E68EB04030138002EA6D0DB
:10046000B5EB0E0261EB030101FA0CFC22FA07F373
:100470004CEA0303F940C6E9003198E74046C5E776
:100480004346D9E737B5274D284633F03EFB40B900
:1004900025481BF081F900214FF4004033F094FC13
:1004A000F9E707F01FF804464FF47F002CF010FA2C
:1004B000C0F307238DF80130C0F307438DF80230F5
:1004C0008DF8000000220099204620F033F92046E4
:1004D00014F006FF1549044630F0E5FE2CF02EFA24
:1004E000C0F307238DF80530C0F307438DF80630BD
:1004F0008DF8040001990022204620F031F92046B1
:100500001EF0DFFD0EF04EFFAB685B680BB12846B6
:1005100098470EF047FF00214FF4A47033F054FCCD
:10052000F7E700BF08420300DC590300EF5903005E
:10053000014B1B68184700BF00000020014B1860EA
:10054000704700BF0000002030B585B004460D465E
:1005500010220021684633F001FD02238DF802309D
:100560002A46044B0193214668461AF0B1FC05B0B7
:1005700030BD00BF3105000080B505460E46174668
:1005800098461AF03BF9034633F054FDDFF8189013
:10059000044649F80030424630463946A84754F8E8
:1005A000090000F0C1FA00BF080000002DE9F04783
:1005B000058B04462807904611D4022905F007054B
:1005C00040F0CC8020461BF0F4F878B10138218B44
:1005D000042811D8DFE800F0C2106D8595000129CC
:1005E0000CBF45F0100545F02005258388F31188E0
:1005F000BFF36F8FBDE8F08701F0070AAA4500F04E
:10060000A5800027B9463E46A368002B00F0BC80B9
:1006100041F00801218388F31188BFF36F8FA1682F
:10062000002900F0BA800D68002900F0B680D1F8EA
:100630000480334652462046C047002D76D02B68B2
:1006400029461D46F0E701F007035A1F012A1BD86F
:10065000002221F00701062B276889B2C4E9002295
:1006600009D13B4603E0628B013262831B68002B99
:10067000F9D141F00201218320461BF09AF80028AD
:100680007AD041F0200176E0042B0AD121F0070155
:1006900089B2218320461BF08CF810B141F0200173
:1006A0002183218B01F0070AAA454FD00027B946C4
:1006B000AAE7236921F0070141F00601062DD3F8CE
:1006C000009021832DD1B9F1000F3FD041F00801F6
:1006D000218388F31188BFF36F8F3A492046C847BA
:1006E00029E021F00701236941F0040189B2042DBA
:1006F000D3F804902183E6D000273E464FF0040A49
:1007000082E721F00701236941F0050189B2052D37
:10071000D3F808902183D6D000273E464FF0050A33
:1007200072E700273E464FF0060A6DE72B4687E743
:10073000B9F1000FD1D1EFF31188202383F3128890
:10074000BFF36F8F238B23F008032383258BEA06E7
:100750002ED525F01003238305F007056669218B4C
:10076000002EBFF670AF00232768C4E9003321F0E4
:10077000070141F001012183218B01F0070AAA45FD
:100780004FF000097FF440AF002F9CD041F00801EA
:10079000218388F31188BFF36F8F002FC8D03D6885
:1007A00039463346524620461BF02FF82F46F4E7D1
:1007B000AB067FF51BAF25F02003238305F007056B
:1007C00000E700BF37B80100014B0360002070470D
:1007D0004845030030BFFFF7FDBF00BF2DE9F041E2
:1007E0000B4EDFF8308006EB0807CC1B054632467F
:1007F0000949204633F08AFBA01942460021083CF3
:1008000033F0ACFB2C6707F10800BDE8F08100BFB6
:10081000000000000400000004450300054B5A6975
:100820009B689A421FBF044A536843F08053536049
:10083000704700BF80CA012000ED00E070B5264B74
:1008400015469A6A12F0100F9A6A14BF11241024E8
:1008500012F0080F9A6A18BF1224920706460AD5AA
:10086000586B9A6A140634D519B19A6A22F080023C
:100870009A62132401E06FF01500174B9A6A12F088
:10088000010F9A6A18BF142412F0200F9A6A18BF39
:100890001524D20602D49B6A9B070AD50E4B5B68CF
:1008A000190506D5314600F025FA10B180F3098804
:1008B0000224094B9A6A920642BF5A6A22F40052F5
:1008C0005A629A6A42F0FF029A6200232B70204615
:1008D00070BD6FF01500CCE700ED00E0134B9A6A95
:1008E00012F0007F9A6A14BF1E201D2012F0807F34
:1008F0009A6A18BF1F2012F4002F9A6A18BF21208D
:1009000012F4802F9A6A18BF222012F4003F9A6ACC
:1009100018BF232012F4803F9A6A6FEA02426FEAFE
:1009200012429A6218BF2420704700BF00ED00E019
:1009300010B5194B0246986A9C6A10F4805F14BF88
:100940001720162014F4006F9C6A18BF1820A40505
:1009500009D5986B986A000404D51AB19A6A22F4F2
:1009600000429A6219200C4B9A6A12F4806F9A6ABC
:1009700018BF1A20D2050CD49B6A13F4005F18BF6D
:100980001C20054A936A43F47F43936200230B7053
:1009900010BD1B20F5E700BF00ED00E0F0B5484BAF
:1009A0005B688BB00446C3F30803002585F3118808
:1009B000BFF36F8F02F07F40B0F17F4F11D102F093
:1009C0000C0008280DD010074CBF0C460125002252
:1009D000033B8DF80720032B05D8DFE803F02463E1
:1009E00067602C46F3E700239DF80720CAB902AEE2
:1009F00004F1200720686168324603C20834BC4213
:100A00001646F7D1099A002D54D0C2F3080121B936
:100A10006FEA52226FEA4222099202A918461BF09D
:100A20008AF80BB0F0BD264BDA6A9107DBD4DA6A9C
:100A3000002AD8DBDA6A5200D5D55A69A16942F496
:100A400080725A61BFF34F8FBFF36F8F5A6931F8CD
:100A5000021C22F480725A61BFF34F8FBFF36F8F75
:100A60004DF6027291420AD09A6AD2B24AB10DF1A1
:100A7000070201212046FFF7E1FE0346B4E72368A1
:100A8000B2E79A6A12F47F4F05D00DF107010120F9
:100A9000FFF74EFFF1E79B6AB3F5803FA3D3FFF763
:100AA0001DFFEAE70DF107020021E3E70DF1070161
:100AB0000020EDE722F4FF7222F00102ACE700BF54
:100AC00000ED00E0044B5A6942F010025A615A6985
:100AD00022F008025A61704700ED00E0EFF3088051
:100AE000EFF3098101B57246FFF758FF01BD00BF62
:100AF0000B4880F3088802F09BF8202080F31188CF
:100B000008484FF40461401880F30988EFF314801B
:100B10000221084380F31488BFF36F8F00F0B2F80E
:100B200000E9012040CF0120084B9B6883420BD194
:100B3000EFF3058343B1064B5A6842F080525A6086
:100B40005A6A22F400425A6219F05EBE80CA01203D
:100B500000ED00E014498A684FF030001044EFF3D4
:100B6000098C80E8F01F202080F31288BFF36F8F7C
:100B70000E4F4FF000664A698A603E60106F0C4C61
:100B80002060506F0023536780F3118804B510462E
:100B900000F014F9BDE8044002F1300090E8F01FC5
:100BA0008CF309887047000080CA012004ED00E042
:100BB000784600201EF0040F0CBFEFF30880EFF31F
:100BC0000980816911F8021C0229FFD001B5724623
:100BD0001AF0B7FF01BD00BF40B2002807DB044A8E
:100BE0004109012300F01F00834042F82130704783
:100BF00000E100E040B200280CDB4309064900F0A8
:100C00001F0020330122824041F82320BFF34F8F81
:100C1000BFF36F8F704700BF00E100E0054B420952
:100C200000F01F0053F82220012303FA00F01040C7
:100C3000704700BF00E100E040B20028A8BF00F10B
:100C4000604001F10101B8BF064B4FEA4111ACBF52
:100C500000F5614000F00F00C9B2B4BF195480F82C
:100C60000013704714ED00E0044B054A23F07F03A6
:100C70009360BFF34F8FBFF36F8F7047000000008A
:100C800000ED00E008B5FFF7EFFF0B4AD2F888301F
:100C900023F47003C2F88830EFF3148323F00403C5
:100CA00083F31488BFF36F8F18F044FE19F0E0FE51
:100CB00000F05AF818F082FE00ED00E042F8203C07
:100CC000009B42F81C3C0A49019B42F8183C029BDD
:100CD00042F8143C21F001014FF0807342F8043CCB
:100CE00042F8081C0023203A02654367704700BFA2
:100CF00079050000094A0346906870B113F1160F98
:100D0000006E05D0A0F140029A4205D8834203D27A
:100D1000814228BF002070470020704780CA012010
:100D200008B515460B4A0C4B9060026F1A600E46D0
:100D300000F044F82C4686F309880020034B9847BE
:100D40002046002100220023014C204761BB010006
:100D50007905000080CA012078460020014B10224E
:100D60001A61704700ED00E0044800232021C218FA
:100D70000133302B82F80013F9D1704700E100E015
:100D800008B5EFF30583064A103B02EBC30152F8A6
:100D9000330049688847BDE80840FFF73FBD00BF02
:100DA00088420300024B034A0348012100F076B851
:100DB000000004200000002060450300026E054B87
:100DC000403A1A60044A4021C3E901121846012141
:100DD00000F06EB87C46002000000B15084AC2F8EF
:100DE00098000B6823F01F03034343F01003C2F87D
:100DF0009C308B6843F00103C2F8A030704700BFFD
:100E000000ED00E02DE9F043DFF8608085B00E468C
:100E10001F4604464FF00009B14523DA6068D8B197
:100E20003FB1411E08421BD11F2819D9236819421E
:100E300016D1236801931AF0B6FEA3680343039307
:100E4000D8F89050C5F30725D0B2013DA84207D885
:100E500001A9FFF7C3FF421C09F101090C34DBE7CC
:100E60006FF01502104605B0BDE8F08300ED00E01C
:100E7000044B0522C3F89420BFF34F8FBFF36F8F4D
:100E8000704700BF00ED00E0BFF35F8F024B002210
:100E9000C3F89420704700BF00ED00E010B5034C8C
:100EA00001232278FFF7AEFF207010BDBCCA0120DD
:100EB00008B50B4A00231278FFF7A4FF10F1160FB4
:100EC00007D0084A0021D2F89030C3F30723984294
:100ED00000DB08BDC2F89800C2F8A0100130F2E7AC
:100EE000BCCA012000ED00E02DE9F043534B544C07
:100EF000D3F890302568C3F307239D4285B000F2F4
:100F00009A80FFF7C1FF00200C2685421AD14D4C74
:100F10004D4F25706846FFF757FCDFF82081DFF85A
:100F20002C9106460025AE4213D123784349002078
:100F3000D1F89020C2F30722934276DBFFF798FFA7
:100F4000002042E0616806FB0011FFF747FF013017
:100F5000DBE7009800EB05114FEA051CCB683B402E
:100F6000B3F5000F48D00AD8B3F5001F30D0B3F561
:100F7000800F36D0B3F5801F10D00135D3E7B3F121
:100F8000807F42D0B3F1007FF7D150F80C308868F1
:100F90004A681AF008FE40F4802009E050F80C304E
:100FA00088684A681AF0FFFD40F0885040F430200D
:100FB000CDE901230390D8F890302078C3F30723BC
:100FC000013B98422AD96FF0150005B0BDE8F083C7
:100FD00050F80C3088684A681AF0E5FD40EA0900CC
:100FE000E6E750F80C3088684A681AF0DCFD40F0FB
:100FF000C06040F40030DBE750F80C3088684A6885
:101000001AF0D1FD40F08270D2E750F80C308868B9
:101010004A681AF0C8FD40F08870C9E701A9FFF7D7
:10102000DDFE237801332370A7E7C1F89830C1F8BB
:10103000A00001337CE74FF0FF30C6E700ED00E091
:101040006C450300BCCA01200000F0FF000008113D
:1010500008B5024B1B689847002008BD8846002051
:10106000034B044A1860937843F00203937070476F
:10107000884600200400002008B50649064821F0F3
:101080000701C1F1005202F580221AF046FB002050
:1010900008BD00BF4F7002208C4600200E4A01237D
:1010A000C2F840354FF080424FF08051C2F8783599
:1010B000D1F83001082808D1D1F83411052904D815
:1010C0000648415C09B1C2F838364FF0804301222E
:1010D000C3F880250020704700E00140355A030026
:1010E00020B1034B800143F001031847704700BF54
:1010F000404503007FB50D4D0D4E4FF0FF324FF0D0
:10110000FF3301A9284618F019FD0028F5D1094C34
:10111000B442F2D2236813B1019A934203D1D4E9C5
:10112000013101A898470C34F2E700BFB801002054
:1011300004450300F8440300F0B585B0DDE90C5424
:1011400017461E46019023469DF828008DF808009A
:101150002C432A468DF80910ADF80A7003960AD080
:10116000094932F067FFD1F88040084909588C429C
:1011700004BF00221346064801A918F087FC00EAC4
:10118000E07005B0F0BD00BF204500200800000061
:10119000B8010020084B70B5C31A0D4607499B10D3
:1011A00004465943064840221AF01BFD2B460146CF
:1011B0002046BDE870401847AC460020B76DDBB64E
:1011C000E840030073B50C4C0C4A4023041B009309
:1011D0000D460B460A49A4106143064609481AF019
:1011E0002CFD011E05DA30462B4602B0BDE87040EA
:1011F000184702B070BD00BFAC460020A5BC01007E
:10120000B76DDBB6E840030010B5EFF3118420237F
:1012100083F31288BFF36F8F074A136823F002012C
:10122000DB07116002D401201BF017FB84F3118847
:10123000BFF36F8F10BD00BFFC460020002270B5C9
:10124000012104461046FFF7F7FC0F4801F07AFE33
:101250000E4B984215D101F085FE26690C493046A7
:101260001AF0F6FA00280BDB0125356424690849D9
:1012700004F11C001AF0ECFA002801DBE564002000
:1012800070BD6FF00400FBE78D1300000000AD0B94
:101290008C4503001FB500220123CDE90223094A32
:1012A000CDF800D06B46CDF804D01AF0F4FC00283D
:1012B00005DB4FF480420023684618F09DFD05B021
:1012C0005DF804FBC3BC010030B4104B0C2202FBE0
:1012D000003301460020D3E90E529863EFF31180EA
:1012E000202484F31288BFF36F8F1C6C04F0C004B9
:1012F00044F002041C6480F31188BFF36F8F1DB1AA
:101300002B46034830BC184730BC7047AC46002021
:10131000E840030010B4EFF31182202383F3128816
:10132000BFF36F8F1748016841F002040460C807DB
:1013300007D482F31188BFF36F8F012010BC01F036
:1013400023BE4FF08041D1F80C04D1F80C14C9072A
:10135000EFD5EFF3118083F31288BFF36F8F0A4943
:101360000B6C03F0C00343F002030B6480F311889D
:10137000BFF36F8F82F31188BFF36F8F002010BC13
:10138000FFF7A2BFFC460020AC46002010B10128A8
:1013900004D07047034B1B6C5B0701D1FFF794BF70
:1013A000704700BFAC4600202DE9F0413849BFF33B
:1013B0005B8F0746012251E8003F41E800200028EA
:1013C000F9D1BFF35B8F33B9324933484B60CB60FF
:1013D0008A601AF050FA7B1E012B2BD8012F07D1FF
:1013E0004FF08043D3F81C3403F00303012B21D0CA
:1013F00032F066FC0546F8B9284B1B78E3B14FF094
:1014000080430222C3F808230646DFF894804FF099
:101410008044D4F81824D4F81834D20315D503F036
:101420000303012B01D0012F0FD155B386F311888F
:10143000BFF36F8FBDE8F081EFF31186202383F3B4
:101440001288BFF36F8F0125DFE7ADB130461AF088
:101450009BFBD4F81835002BDBD1D4F80421002AEB
:10146000D7D0C4F80431D4F804310123C4F81835B6
:10147000C8F88031A360CCE70021212032F0A4FC21
:10148000E7E74FF080430222C3F80423D2E700BF0E
:10149000A846002098460020C8460020D2CA012055
:1014A00000E100E008B5074832F02FFB38B10648EC
:1014B000FFF7D6FD0448FFF741F8002008BD6FF0A4
:1014C0001200FBE768410300CD1400000A2838B57C
:1014D000074D044604D1AB680D215B682846984748
:1014E000AB6803485B68E1B29847204638BD00BF4F
:1014F00068410300EFF31182202383F31288BFF3C6
:101500006F8F0A4BD3F8001161B10021D3F80805A1
:10151000C3F80011D3F80031C0B282F31188BFF3D1
:101520006F8F70476FF00A00F7E700BF00D00040F0
:10153000F0B5034610469C7893F803C0EFF3118290
:10154000202585F31288BFF36F8F1F7893F801E091
:10155000E41B04EA0C04A04288BFA0B23E180CEAC7
:1015600006063D461E7082F31188BFF36F8F0A187E
:101570008A4216D177450CD1EFF31182202181F3F5
:101580001288BFF36F8F1978597082F31188BFF3F7
:101590006F8F1B79241AA34222BF064B01221A60C7
:1015A000F0BD5E190135767901F8016B05EA0C058D
:1015B000DEE700BF00D00040DB432DE9F04713F029
:1015C00001050E46144604D02248FFF7B1FFBDE8DE
:1015D000F0879AB3EFF31188202383F31288BFF3C7
:1015E0006F8F0D20FFF71AFB07460D20FFF702FB58
:1015F00088F31188BFF36F8FDFF85CA0DFF85C80A1
:10160000CAF80051DAF800314FF400590123CAF842
:1016100000302546C8F88091DAF8003183B1FFF731
:1016200069FF031EC8F88091F6DB013DADB273552A
:10163000002DF1D117B10D20FFF7CEFA2046C6E7F5
:10164000EFF31180202383F31288BFF36F8F1AF01A
:101650009BFAE1E72047002000D0004000E100E0D5
:101660002DE9F041124F0D46144607F1350814B923
:101670002046BDE8F0814FF0FF334FF0FF3238468F
:1016800018F0BAFB224629464046FFF751FF0646AE
:10169000384618F07DFB3EB94FF0FF324FF0FF3374
:1016A000044818F0A9FBE6E7A41BA4B23544DEE722
:1016B000004700201047002038B5184C0122114681
:1016C000204632F07AFA0122002104F1100032F0B3
:1016D00074FA40F2074323874FF0706323620C23B0
:1016E00084F8243000250E4B84F83550E586D3F875
:1016F000042522F00102C3F804250121C3F800519A
:10170000D3F80021C3F804132A4619600D20FFF70F
:1017100093FA0D20FFF760FA284638BD00470020F5
:1017200000D0004010B5FFF7E5FE002820DB174B86
:1017300093F8222093F8214093F82310141B31EAE8
:101740000404C0B20DD193F8372093F8364093F8D3
:101750003810141B31EA04040BD10D4B01225A60DE
:101760000EE09C180132114084F8250083F8221005
:1017700010BD9C180132114084F83A0083F83710EC
:101780000448BDE8104018F003BB00BF004700202C
:1017900000D0004010470020F0B516464268107B8C
:1017A00001F01F0444EA4014106987B0002872D089
:1017B000B6F5001F02F1100506D1214628461BF0A0
:1017C000DDF8002007B0F0BD01A80027B6F5800FB6
:1017D0000197476039D1B3F1007F14BF052304237B
:1017E0008DF804300023CDE904030393936823FAB2
:1017F00001F111F001010DF103073ED1B6F1A07F17
:101800003BD104F01F03620903F5E07328D0012ADD
:1018100047D1254A52F82330DB072ED43A462146D9
:10182000284601F099FE214B98421CD0029703AA4A
:101830002146284601F052FD1D4B98422ED101222F
:101840002146284601F0ECFEBBE7B3F1C06F05D09E
:10185000B3F1007F14BF01230223C1E70323BFE7D5
:101860004FF0A042D6E73946284601F0D3FE104B90
:101870009842DBD06FF00B00A4E73A462146284699
:1018800001F06AFE0A4B9842D1D19DF80310284618
:1018900001F0BAFECBE76FF0850093E76FF015001B
:1018A00090E751F82330FFDE000300500400AD0B39
:1018B0000000AD0B420970B5034602D0012A17D0D3
:1018C00070BD0D4E326951680029F9D003F01F0335
:1018D00001250C689D400029F2D08A682A4002D078
:1018E0004B68304698472CB1236821461C46F2E7E6
:1018F000024EE7E72346F8E72841030008410300CA
:1019000038B545682B69B3B11035284601F072FE31
:10191000044680B90146284601F038FE084B98423B
:101920000BD108492246284601F010FE2246052127
:101930000620FFF781F9002038BD6FF00400FBE7B7
:101940000000AD0BB51800002DE9F043466840F2E9
:101950000635D006337B87B002EA050554BFC2F3D3
:101960004010032001F01F07B5F5837F144647EAB6
:1019700043178DF8030045D00DD8062D16D005D895
:10198000A5B1022D40D06FF0150038E0B5F5807F8D
:10199000F9D101250AE040F20222954236D0B5F590
:1019A000407F35D0B5F5007FEDD10225012322031C
:1019B00003FA01F12ED57368C3F80815326992BB9A
:1019C00007F01F037F092BD0012F79D13F4A02EB8B
:1019D000830284F48033D2F80017C3F30043C4F3C6
:1019E000404444EA430421F4E16144EA800421F0E4
:1019F000070144EA05230B43C2F80037002007B073
:101A0000BDE8F0830725D1E70425CFE70525CDE71D
:101A10000325CBE7630344BF7368C3F80C15CDE718
:101A20004FF0A042D3E710360DF10202394630469E
:101A300001F092FD14F4403F80460CD13946304607
:101A40001AF09AFF224B9845D8D19DF802103046E3
:101A500001F0DAFDD2E701AB4FF0000903AA3946E5
:101A60003046CDE90439CDE90199CDF80C9001F06B
:101A700035FC174B9842C1D114F4003315D09DF8B2
:101A800003308DF80E3084F48034C4F300444B46A8
:101A900003AA394630468DF80C508DF80D4001F000
:101AA000D7FC0B4B9842A9D1CCE7CDE9043303AA6C
:101AB0000DF1030339463046039301F00FFCF0E7C4
:101AC00003F5E07352F82330FFDE00BF000300503F
:101AD0000000AD0B02780B69012A08D0022A08D059
:101AE0004AB9064A5A6203F1140018F051B9044A7F
:101AF000F8E7044AF6E7044AF4E700BF0000AD0B3C
:101B00000100AE0B0200AE0B0100AD0B2DE9F04F52
:101B1000D0F81090D0F8048085B005460C461746E2
:101B2000029309F1040A4FF0FF324FF0FF335046A1
:101B300018F062F909F1140B00230022584618F03E
:101B40005BF9404602F0F2FC7B1E00260393B7428D
:101B500001D8002322E0039B217AB34283BF237D77
:101B600083F00403C3F3800300230193029B0093DB
:101B7000D4E90023284600F04DF8034670B94FF42D
:101B800080420023584618F037F998B1404602F0D9
:101B9000DDFC284600F02CF86FF004034046029369
:101BA00002F0D4FC504618F0F3F8029B184605B03A
:101BB000BDE8F08FD9F82430034A934204F10C04B5
:101BC000EAD10136C3E700BF0000AD0B08B50346FC
:101BD0004068826900F1080102F064FC034B9842FE
:101BE00014BF6FF00F00002008BD00BF0000AD0B58
:101BF00008B543681B68D3F80805D3F80C1502F044
:101C0000ABFD034B984214BF6FF00F00002008BDDE
:101C10000000AD0B2DE9F04186B00C4647689DF8F9
:101C200034801546002112220DF106001E4632F0C6
:101C300095F9BDF830208DF8052004F0010314F06B
:101C400008028DF804300296049519D1A10704D436
:101C5000B8F1000F12D19BB9202201A9384602F039
:101C600091FC0A4B98420ED00B3398420CBF6FF098
:101C70000F006FF0040006B0BDE8F0814022ECE7F1
:101C80006FF08500F7E70020F5E700BF0000AD0B1F
:101C9000F7B5446805690646E06831F036FF00286C
:101CA00048D02846254940F8046B31F0D1FF6069DF
:101CB00000282ED0217E638BD0F810C0D0F808E029
:101CC000DCF80060DA0754BF43F4D01383F4B01398
:101CD000012723F480128F40DB074CBF3E43BE43F5
:101CE000CCF80060DEF800309847002820DB0021A7
:101CF000A42032F069F8237E6069012199400369CC
:101D00001B68194283680CBF1B69DB689847002871
:101D10000EDB18350A490022284632F0E3F84FF46A
:101D2000A47200232846CDE9002319F07BF8002097
:101D300003B0F0BD6FF01200FAE700BF99C10100D7
:101D40005BC101002DE9F74F4568EC681834804607
:101D5000002701944FF0010B6B68BB4204DC2B7D24
:101D6000002B69D1002048E00C23D5F808A003FB24
:101D700007F60AEB06095AF8060031F0C6FE0028FD
:101D80006DD0B9F806305AF8060099F8041043F4FB
:101D90008032D0F810C0D0F8089013F0010FDCF8B2
:101DA00000300BFA01FE14BF4EEA030323EA0E03D0
:101DB000CCF80030D9F800309847F0B944F8188CC6
:101DC0002969204631F070FF2B7D13B1013748346B
:101DD000C2E7D5F80890234A09EB060AA4F11401DA
:101DE0009AF804300BFA03F344E9042359F8060087
:101DF0008368DB6923B96FF0570003B0BDE8F08F4B
:101E0000012298470028F8DB9AF8041059F80600D8
:101E10001AF02FFA04F8080C59F806009AF8041082
:101E200083689E69002EE6D04FF0C0634FF0A07229
:101E3000B0470028CADAE0E72D684FF4004440F2CA
:101E4000E73000214FF47A720023E5FB0401FEF72E
:101E5000A7F902460B46019818F0BAF982E76FF02D
:101E60001200CAE79BC201007FB50346044653F83F
:101E7000185D6968CA689B1A114ADB1053438A6867
:101E8000D618D05831791AF0F4F9031E15DB14F97D
:101E9000082C9A4211D004F8083C4FF0FF304FF064
:101EA000FF313289003BCDE902014FF00101009181
:101EB00018BF01232846FFF73FF904B070BD00BFEB
:101EC000ACAAAAAA036803F01F025B09026004D04F
:101ED000012B034818BF002070474FF0A040704707
:101EE000000300502DE9F04FDFF89491DFF894A142
:101EF00085B01546834600EB810140F2FF18594535
:101F000003D1002005B0BDE8F08FDBF800305E049F
:101F1000C3F3C322C3F3080400F1AC801B0E19F80D
:101F20000270444508BF4FF0FF34222B00F2A58019
:101F3000DFE803F012191F22252B22A3A3A3A33B42
:101F400068A3A3A3A3A3A3A3A3A36B818487A3A331
:101F5000A38A9194979A9D00C5F80C45601C5ED1A8
:101F60000BF1040BCBE7C5F81445621CF8D0002632
:101F70005FE0C5F80845F1E7C5F81045F5E7631CD3
:101F8000C5F80845ECD0002604E0661CC5F80C45F1
:101F9000E6D0012603A80394FFF794FF039B0122D8
:101FA00002FA03F3C0F80C3508E0C5F80845002F25
:101FB000DBD1631CD4D0002632460627DBF8003084
:101FC000019303F40040002818BF002203A80092E8
:101FD00018BF01260394FFF775FF039C019B009A2D
:101FE00000EB8400C3F3412CD0F800473B0243EAE6
:101FF0008C03134304EA0A04234343EA4603C0F86C
:102000000037ADE7C5F80C45D1E7C5F86045601C61
:10201000DBF80030A4D0C3F30043002BB9D003A8F1
:102020000394FFF74FFF039B012606FA03F3C0F862
:1020300008353246C2E7C5F86445E8E7C5F86845A3
:10204000E5E7C5F86C45E2E7C5F82445621C87D092
:1020500000220126B2E7C5F828457FE7C5F83045DC
:10206000F4E7C5F83445F1E7C5F83845EEE7C5F8BB
:102070003C4573E76FF0150044E76FF0850041E7DA
:10208000D05A0300F0F8FCFF036803F01F025B095D
:10209000026004D0012B034818BF002070474FF0A6
:1020A000A04070470003005073B504460022012190
:1020B0001C20FEF7C1FD60682369244A00F1080175
:1020C00001F088FC224B98423CD16568AE6B01AAB6
:1020D000002130461AF026F9002805DB019B326802
:1020E00019791868FFF7FEFE002631462B6801F5C6
:1020F000AC7253F82230002B0EDB01A80193FFF7DE
:10210000C3FF019AD0F80435D34013F001031CBF7C
:1021100001238B403343DEB201310429E6D1002391
:1021200001206268916A00FA03F232420CBF012278
:102130000022D20321F813200133042BF1D1002017
:1021400002B070BD6FF00F00FAE700BF4BC3010093
:102150000000AD0B2DE9F041044647680D4631F013
:10216000AFFD4FF0200888B9264B1B7873B1642669
:1021700060681AF0A3F9F0B901201AF060FB013E83
:10218000F6D10021212031F01FFEF0E7EFF3118698
:10219000314688F31288BFF36F8F60681AF08EF9AA
:1021A000A8B986F31188BFF36F8FEFE786F3118824
:1021B000BFF36F8FE5E7EFF31186314688F312889E
:1021C000BFF36F8F60681AF079F90028EED0BB6911
:1021D0001D706368BA691B680020C3F8442501229A
:1021E000C3F84825C3F82001D3F82041C3F85801AB
:1021F000D3F858019A6081F31188BFF36F8FBDE85F
:10220000F08100BFD2CA0120F7B5054600220121A6
:102210000220FEF711FD0220FEF7DEFC6A6811685D
:102220001369C1F82435137D507D927D0343134318
:10223000C1F86C356E68D6E9004313F0010348D04D
:102240002F6907F108001AF006FB304B98425AD16B
:10225000387A04F10C0204F590711AF0F2FA387A27
:10226000012707FA00F000F005FE0823C4F8003546
:10227000B369C4F844350023C4F84835A760D4F8DE
:102280005831002BFBD00021C4F800156B68DC68C6
:1022900001AA20461AF046F8002805DB019B2268B7
:1022A00019791868FFF71EFE6A6813680821C3F8D9
:1022B0000015117A51B9D269C3F834250122C3F847
:1022C0003825C3F81011D3F810111A60002003B09C
:1022D000F0BD0822C4F80025B269C4F84425C4F84A
:1022E00048350123A360D4F82031002BFBD0002314
:1022F000C4F82031D4F820310123E3604FF4807317
:10230000C4F80433BBE76FF00400E0E70000AD0B56
:102310002DE9FF410569D0F804802B6D0646A86CB5
:10232000002835D1002B53D0B8F838406A6CEF6CD8
:102330009C4228BF1C46EB6C53B1296D41B107F09C
:102340006041B1F1005F03D0082C6F6E28BF0824F4
:1023500000926A6CAC651AB1AA6C002A18BF2246BA
:10236000CDE901271BB12B6D002B18BF234600229E
:1023700069464046039301F043FE184B984229D02A
:102380006FF00401304604B0BDE8F0411AF0B4B972
:10239000696CEF6CB8F838400A46ABB1834228BF8D
:1023A00003469C4228BF1C460029C4D001F060436C
:1023B000B3F1005FBFD0082C28BF08242246286E46
:1023C00031F0A4FD2A6EB6E7844228BF0446EBE74D
:1023D0001946D7E704B0BDE8F08100BF0000AD0B9F
:1023E0002DE9F04F8FB004690193436802938B8805
:1023F00007469804884691462ED44FF0FF324FF09E
:10240000FF3304F1100017F0F7FCC4F80480D7F88C
:1024100004B0D7F810A0DBF8083003939AF85D30C9
:1024200023B1DAF80030984500F0B580B8F804E040
:102430001EF4006F17D06FF08505236813B19B88D9
:102440009B0405D40023636004F1100017F0A0FC86
:1024500028460FB0BDE8F08FA369002BCDD163688B
:102460009942CAD1D3E71EF0090F02D06FF01505CB
:10247000E3E7CEF34513082BF8D1D8F800C0984B0A
:102480009C45F3D90BF10C060FCE04AD0FC50FCE52
:102490000FC5039B634528BF63469C4696E803002F
:1024A000904B9C4585E8030017D28F4B9C4514D276
:1024B0008E4B9C4511D28E4B9C454CD88D4B9C45E8
:1024C0004BD88D4B9C454AD88C4B9C4549D88C4960
:1024D0008C4B8D4A8C4588BF13461EF0020F099322
:1024E0000EF004033FD0002B14BF032302238DF80A
:1024F0002830CEF300138DF82930DBF80030D3F804
:102500000835591C12D01EF0020F03F01F00CEF345
:1025100040014FEA53134FF001022BD13BB39342DA
:1025200040F0D680794B8240C3F80C259AF85D3094
:102530002BB1584601F016FD00238AF85D303B466A
:10254000734A04A9584601F0D9FC724B98421DD039
:102550006FF0040571E7704BBFE7704BBDE7704B40
:10256000BBE7704BB9E7003B18BF0123BFE74FF053
:10257000A043D8E73BB1012B40F0AD80634B8240D4
:10258000C3F80825D2E74FF0A043F8E701238AF803
:102590005D30CAF80080012384F85C30029B196C1E
:1025A0004A1C03D003F144001AF010F9B9F1000FEE
:1025B00068D1C4F834900023A36304F1480204F105
:1025C000380104F1340019F0AFFF019B6064002B67
:1025D00060D1E3630023236404F1500204F140015D
:1025E00004F13C0019F0A0FF00252A46E064012117
:1025F0002046256319F0E0FF3846FFF789FEA06BFF
:102600002A462B4683424DD10023256C1946A94208
:102610004FD19A42264638BF1A464FF4FA5303FB6D
:1026200002F556F8203B4FF000081B68B5FBF3F5A8
:102630004FF4004CC835414640F2E7304FF47A720F
:102640000023E5FB0C01FDF7ABFD02460B463046CF
:1026500017F0D2FB024618B9256B15F1740F2FD174
:102660000298C4F8588001F07DFC84F85D806FF01A
:10267000730138461AF040F8304617F0E3FB6FF06C
:102680007305DAE6D9F800306363002B93D0D9F8EC
:10269000043091E7019B1B68E363002B9AD0019BF8
:1026A0005B6898E7616B01EBC301013349680A4439
:1026B000A8E7E06B00EBC100013140680344A6E7E6
:1026C000002D3FF4BAAE0146386919F075FFB4E643
:1026D000C1F80C15FFDE0023C3F80835FAE700BF88
:1026E00047E801000048E8010024F40000127A00E5
:1026F000FF083D007F841E003F420F001FA107001E
:102700008FD0030048E8010090D003000003005080
:102710001BC701000000AD0B00093D0080841E00B6
:1027200040420F0020A1070000F01F0240090DD019
:1027300001280ED10A4B03EB82030A4AD3F80007A3
:10274000024042EA8102C3F8002770474FF0A043DD
:10275000F1E702F5E072002353F82230FFDE00BFFC
:1027600000030050F0F8FCFFF0B587B001238DF8AE
:10277000023002238DF804306B4403930F4601AB03
:102780000DF103010024049305460291059400F025
:1027900041FF0C4B984206460FD103AA3946284602
:1027A00000F09CFDB0420BD09DF80310284600F0CD
:1027B0002BFF6FF0040007B0F0BD6FF01200FAE7D6
:1027C0002046F8E70000AD0B70B5012383400E4AA8
:1027D000BFF35B8FDC4352E8001F01EA040542E8C7
:1027E0000056002EF7D1BFF35B8F4FF4803282404A
:1027F0000648C0F80823BFF35F8FBFF36F8F0B420B
:1028000014BF0120002070BD74470020001001405B
:1028100070B40E49D1E90034D01AC31844F1000451
:1028200022F07F46C1E90034A6F50013B3F5400F4E
:1028300009D2074B1B681A0A1B069C19054B42F16B
:102840000005C3E9004570BC18F0ECB91004002085
:10285000784700201804002011B3BFF35B8F0123D9
:10286000104A834052E800CF4CEA030C42E800C112
:102870000029F7D1BFF35B8F0B4A4FF480338340BD
:10288000C2F80433094BBFF35B8F1B68BFF35B8F48
:10289000C340DB0742BF064B4FF40032C3F80021B0
:1028A000704700BF744700200010014070470020AF
:1028B00000E100E00D4B1868010A0006BFF35F8FCE
:1028C0000B4BD3F80435181841F10001B3F5801F04
:1028D0000AD2084BD3E90023904271EB030303D2E1
:1028E00010F1807041F10001704700BF784700206F
:1028F00000100140180400202DE9F04F85B0164665
:102900001F469DF840A00446FFF75EFF0190FFF7C9
:10291000D1FFB04271EB070354D23E4B301A67EB44
:102920000101984271F100014FD23B4B03EB0413BC
:10293000D3E902239F4208BF96425ED037494FF445
:10294000803804F1500508FA04F8AD00C1F8488356
:102950002046ADB219F062FF26F07F4B05F18045AD
:1029600004F5A87305F58835DC464FF0030902939A
:10297000029A2CF07F4341F82230C1F84483D1F809
:102980000435274A6FF00200C01A604420F07F40EF
:10299000904232D9286868B1D1F804350393A3EB8B
:1029A0000B0020F07F40B0F5000F26D9204619F02B
:1029B00035FF039BBAF1000F07D109EB030C09F1B6
:1029C0000109D5E7BAF1000F09D06FF015052046CF
:1029D0000199FFF741FF284605B0BDE8F08F0123BC
:1029E000104ABFF35B8FA34052E8000F184342E840
:1029F00000010029F8D1BFF35B8F07490E9823012E
:102A000001EB0412C8500F9B5360C2E90267002516
:102A1000DDE700BF0100800000040020001001403D
:102A2000FDFF7F00704700207FB51C4C1C4BC4F895
:102A30000833C4F848331B4B00254FF0FF304FF0EC
:102A4000FF31C4F80855C3E902014FF48033C4F8DC
:102A50000433154B02264FF400320121C4F80463FD
:102A60001120C3F880212A46FEF7E6F81120FEF770
:102A7000B3F80E4A0123A360236013600C4B0D4A88
:102A80000093CDE9015500232846FFF735FF304676
:102A9000FEF78AFC284604B070BD00BF001001405C
:102AA00003000F000004002000E100E07447002054
:102AB00011280000FFFF7F002DE9F7432F4CD4F8C9
:102AC000043399070BD5D4F8043143B12C4A0023C1
:102AD000C4F80431D4F80431136801331360D4F816
:102AE0000433DA0329D5BFF35B8F264B53E8002F5D
:102AF00022F0010143E800100028F7D1BFF35B8FFB
:102B0000D30702D4D4F84031BBB10025C4F84051FA
:102B1000D4F84031FFF7CEFEEFF31182202383F388
:102B20001288BFF36F8F184BD3E90267B042B941E7
:102B300006D282F31188BFF36F8F03B0BDE8F08334
:102B40004FF0FF384FF0FF39C3E90289D3E9001095
:102B50001D604FF48033C4F84833C4F84051D4F8B2
:102B6000403182F31188BFF36F8F0029E5D00090C8
:102B700032463B4628468847DFE700BF0010014049
:102B800078470020704700200004002030B5431C27
:102B9000124C85B005D08442A8BF0446012CB8BFB2
:102BA0000124FFF787FE0E4B0C4DD3E90013401AAA
:102BB000B0F5000F10D22218AA4228BF2A46521898
:102BC0004FF0000007490091CDE9010043F10003F7
:102BD000FFF792FE05B030BD2A46F0E7FFFF7F0009
:102BE000100400201128000008B5FFF763FE024B17
:102BF0001B68C01A08BD00BF100400204FF08053AE
:102C0000D3F83021082A06D1D3F83431052B02D865
:102C1000024AD05C70470020704700BF065B03008B
:102C2000024AD2F80034002BFBD0704700E001408C
:102C300010B54FF08053D3F83021082A4ED14FF011
:102C400080420021C2F80C11C2F81011C2F83815E8
:102C500002F54042D3F80414C2F82015D3F8081442
:102C6000C2F82415D3F80C14C2F82815D3F81014A0
:102C7000C2F82C15D3F81414C2F83015D3F8181470
:102C8000C2F83415D3F81C14C2F84015D3F8201438
:102C9000C2F84415D3F82414C2F84815D3F8281400
:102CA000C2F84C15D3F82C14C2F85015D3F83014D0
:102CB000C2F85415D3F83414C2F86015D3F8381498
:102CC000C2F86415D3F83C14C2F86815D3F8401460
:102CD000C2F86C15D3F84434C2F87035FFF78EFF94
:102CE00018B13A4B3A4AC3F88C26FFF787FF18B160
:102CF000384BFB22C3F81825FFF780FF70B14FF067
:102D000080414FF08053D1F8E42ED3F8583222F0AE
:102D10000F0203F00F031343C1F8E43EFFF76EFF09
:102D200020B12D4B4FF40072C3F840264FF0805372
:102D3000D3F83031082B1AD14FF08043D3F8002458
:102D4000D20744BF6FF00102C3F800244FF0805354
:102D5000D3F83431052B02D8204AD35C3BB14FF075
:102D60001023D3F808224FF08043C3F858254FF0C2
:102D70001023D3F80022002A03DBD3F80432002BFF
:102D800022DA174901234FF01020C1F8043512242C
:102D9000FFF746FFC0F80042FFF742FFC0F80442C9
:102DA000FFF73EFF0023C1F80435FFF739FFBFF3FB
:102DB0004F8F0C490C4BCA6802F4E0621343CB609E
:102DC000BFF34F8F00BFFDE710BD00BF00500040B4
:102DD0004881030000F0004000900240005B0300C7
:102DE00000E0014000ED00E00400FA0530B50468A1
:102DF000CCB1BFF35B8FB4FA84F3C3F11F03DBB232
:102E000001229A4024EA020250E8005FA54204D160
:102E100040E8002CBCF1000FF6D1BFF35B8FE6D188
:102E200002480B7030BD0248FCE700BF0000AD0B4C
:102E30000200AD0B10B50368CB40DB0714D40123AF
:102E40008B400268BFF35B8F43EA020150E8004FFA
:102E5000944204D140E8001CBCF1000FF6D1BFF34E
:102E60005B8FEED1014810BD0148FCE70000AD0BBF
:102E70000400AD0B014BC3F80405704700F001409E
:102E8000F7B50546F8B101281BD104224FF4807331
:102E900001464FF0804003440244C0F80813002666
:102EA000012111601E608D421B688DF8071008BF5C
:102EB0000DF1070642F210744FF0804745B1012D25
:102EC00028D003B0F0BD0C224FF482730221E0E75A
:102ED000D7F8183403F480333EB9002BF1D0012029
:102EE00019F0ADFC013CF3D1EBE7D7F8182402F060
:102EF00003023260002BE4D09DF80700012803D1C3
:102F000019F09DFC013CD9D1012DDAD10C4B0022E6
:102F10005A71D6E7D7F80C3403F480333EB9002B4E
:102F2000F4D0012019F08BFC013CF3D1EEE7D7F887
:102F30000C2402F001023270002BDDD1E6E700BF65
:102F40007C470020044B1A7922B9012218609A802C
:102F500002487047024870477C4700200000AD0BD4
:102F60000C00AD0B08B5074B1B682BB10020FDF71B
:102F700055FE08B9FDF730FE4FF080430022C3F83C
:102F8000182508BD7C47002010B510B1012843D09A
:102F900010BD4FF08043D3F81814D3F81824C80399
:102FA00021D502F00303012B04D013B10020FFF759
:102FB00067FF00234FF080420220C2F81835082234
:102FC0004FF4827303F180430021196002F18042C3
:102FD0001C6801241460154A12680AB34FF080433C
:102FE000C3F80403D4E7D3F81424D107E1D5D3F808
:102FF0001C249207DAD40D4A12681AB10222C3F8CF
:103000000423C5E7D3F80421002AFBD00022C3F82B
:103010000421D3F80431BBE700224FF48073D1E7D9
:103020001A68002AFCD019601B68B1E77C470020B1
:10303000F8B54FF080431C4ED3F804430125002718
:1030400004B9F8BDB4FA84F0C0F11F00830003F5A1
:1030500080739BB203F1804305FA00F2196892B2C3
:1030600024EA02040029EBD01F601B684FF0804364
:10307000012AC3F8082305D0022A08D03368C0B259
:103080009847DDE77379002BDAD17271F6E7D3F850
:103090001814D3F818148907F0D1C3F81855C3F8D9
:1030A00004239D60CCE700BF7C470020036803F049
:1030B0001F025B09026004D0012B034818BF0020E7
:1030C00070474FF0A040704700030050034A430987
:1030D00000F01F00D35C1844C0B270470C5B0300C3
:1030E00070B50546FFF7F2FF0C4C08300E4634F879
:1030F0001030DA0508D5C3F3432304EBC302284696
:1031000054F8333052689847A3682BB1E2683146CF
:103110002846BDE87040184770BD00BFA4000020DD
:1031200008B5FFF7D3FF034B083033F81000400B0E
:1031300008BD00BFA400002008B5FFF7C7FF034B80
:10314000083033F81000C0F3400008BDA400002090
:1031500008B5FFF7BBFF034B083033F81000C0F38E
:10316000401008BDA4000020034611F0010010B576
:10317000CCB20DD1A207C4F3400012D5094AD2F84F
:1031800020055860C2F82005003818BF012008E06B
:103190004FF0A041D1F820251A60C1F82025002A5F
:1031A000E8D010BD0003005010B5FFF78FFF124AA2
:1031B000083032F81030D9051CD5C3F3432123F46D
:1031C000F85322F8103002F10E04002034F8023FC8
:1031D00013F4807F03D0C3F3432399420AD0013014
:1031E0003028F3D1002342F831300448BDE81040C4
:1031F000FFF720BE10BD00BFA40000201C0100206E
:10320000F0B5054600200446012607468C420BD146
:10321000114BD3F87C2132B10022C3F87C21D3F8C2
:103220007C3140F00040F0BDE3B29B0003F58072BA
:103230009B0806FA03F31D420BD002F1804202F50F
:10324000C042D2F800C0BCF1000F02D01760126873
:1032500018430134DAE700BF00600040F7B50646C6
:103260000846FFF733FF194F00F108050C4637F801
:103270001530DB0727D5304619F05AFB2046FFF7FB
:1032800067FF40B12046FFF74BFF316800F5A270A1
:10329000002341F820302046FFF786FF002301A8D5
:1032A00027F815300194FFF701FF019B00EB830025
:1032B000074BD0F80027134043F00203C0F8003753
:1032C000044803B0F0BD0448FBE700BFA4000020A1
:1032D000F0F8FCFF0000AD0B0400AD0B2DE9FF4141
:1032E000164680460846FFF7F1FE0D463168044653
:1032F00009B32846FFF720FF18B12846FFF728FF3B
:1033000010BB0023CDE900338DF80E308DF80F305F
:103310000DF10F020B4628460DF10E0119F09FFA30
:10332000474A04F1080132F8113023F0020343F058
:10333000010322F81130736863B328461F78596877
:10334000FFF7FAFE10B1D1B13E4826E03C4A04F145
:10335000080032F8103023F02003DB04DB0C22F8E5
:10336000103061B1032FEFD87168496891F800C03F
:10337000D8F80010A7B90CF5A27C41F82C70304A9F
:1033800004F1080132F8113023F01C0343EA8703EB
:1033900022F81130B3684BBB2B4804B0BDE8F08174
:1033A00001EB8C0143EA4C33D1F810E52EF0030E0B
:1033B000C1F810E5D8F8001001EB8C0E43F02003A3
:1033C000DEF8101522F8103021F44F3121F440714D
:1033D000CEF810152902DEF8108501F47C5141EA7F
:1033E000074141EA0801CEF81015C8E7D3E90067A4
:1033F0002846FFF7D9FE002ECED0114DD5E9002387
:10340000964203D19F4201D1002209E00F480DF1FD
:103410000F01FFF7EBFC0C4B9842BED19DF80F203B
:1034200045F8326005EBC20308345F6035F81430AC
:1034300043EA422343F4807325F81430ACE700BF1D
:10344000A40000200400AD0B0000AD0B1C01002007
:103450002DE9F0430C4685B08046204611461E46B5
:10346000FFF734FE054629B32046FFF765FE18B97D
:103470002046FFF76DFE18BB314F05F1080937F8FC
:10348000193013F01C0F02D04B78012B18D00123F8
:103490008DF80F300023CDE900134A1C8B1C204609
:1034A0000DF10F0119F0DBF937F8193043F0030380
:1034B00027F81930002E41D02046FFF73DFE18B9FD
:1034C000204805B0BDE8F08396F800C0D8F8003079
:1034D0001B4F0CF5A272002143F8221005F10802DF
:1034E00037F8121021F02001C904C90C27F8121076
:1034F00075781DB3D8F80000B67800EB8C002D0469
:10350000D0F8103523F4991323F4F853C0F810358C
:10351000230203F47C5305F440353605D0F810E55A
:103520002B4306F4801641EA4C31334341F020012D
:1035300043EA0E0327F81210C0F810350248C0E71E
:10354000A40000200400AD0B0000AD0B014BC3E94B
:1035500002127047A400002010B508461446FFF779
:10356000F7FD50B10846FFF7B1FD054B083033F8C1
:10357000103004485B0B237010BD0348FCE700BF0C
:10358000A40000200000AD0B0400AD0B70B5164D7B
:1035900095F8804006462CBB2146602205F11000BC
:1035A00030F0DCFC30682E6F21468E420ED10023B5
:1035B000C0F87C31D0F87C3140F30730FDF70CFBCC
:1035C00001230A4885F88030AB6770BDCBB29B0001
:1035D00003F580727C2B08BF845001F1010108BF04
:1035E0008358E2E70248F0E7A40000200000AD0B9A
:1035F0000C00AD0B034B93F88000003818BF01207E
:10360000704700BFA40000200148FFF713BC00BFB3
:10361000180100200148FFF7E9BB00BF1801002096
:1036200073B503681646D3F80423002AA8BF4FF0E9
:1036300000420546A8BFC3F8042308460C46FFF71E
:1036400087FD00B30846FFF777FD0146D8B920464D
:10365000FFF766FD04B2A40004F5807203462868F3
:103660008150296882582144D1F8102542F0010286
:10367000C1F810252EB12968012202FA03F3C1F81E
:10368000043302B070BD2046FFF720FD0F4B083019
:1036900033F81030C3F38203042B12D0052B12D061
:1036A00001A80194FFF702FD019AD0F81035D3402C
:1036B00003F00103991C204602B0BDE8704019F0E8
:1036C00017B90321F7E70221F5E700BFA4000020A6
:1036D0002DE9F04F694BDFF8A891D3F80403D9F82E
:1036E0007010C0B289B040F00040FFF789FD051EA0
:1036F0002EDACA4600235AF87C1F06A8CDE9063305
:10370000FFF732FD5F4B01930DF118084FF0000BEE
:10371000019A12F8013B0192DA0803F007031AF844
:10372000022022FA03F3DA071BD408F10408BBF1E4
:10373000000F13D000214FF00040FFF761FDD9F8D2
:103740007C1006A8FFF710FD0028DBD125F000450E
:103750000124002D79D109B0BDE8F08F4FF0010BA5
:10376000D6E7494B5B440293D8F800100029DCD01F
:10377000029B91FAA1F11C78B1FA81F141EA44145B
:103780002046FFF7A3FC0830059439F81070C808EC
:10379000BB0818F80020039301F00701012303FA86
:1037A00001F122EA010208F8002005A8FFF77EFCDB
:1037B000059A039B02F5E072C7F3820650F82220B7
:1037C0005B073746C2F3014224D520463946D6B2BC
:1037D000FFF786FC05A80594FFF768FC059B03F539
:1037E000E07350F82330C3F301439E4207D1002118
:1037F000204619F07DF83146204619F079F805A8E1
:103800000594FFF753FC059B012202FA03F3C0F86D
:103810002035A9E7022A0CD10321204619F068F8C7
:1038200006F00503012BEAD139462046FFF758FC84
:10383000E5E702212046039219F05AF8032EF3D04F
:10384000039A032ADBD1022EEDE795FAA5F3B3FA2A
:1038500083F304FA03F29B0003F1804303F5C043B2
:1038600025EA0205D3F81005D3F81015C0F305209A
:10387000C1F30141FFF734FC6BE700BF006000407B
:10388000A40000201C5B03001C5B030001460148F0
:10389000FFF7ACBA28010020036803F01F025B09A0
:1038A000026004D0012B034818BF002070474FF07E
:1038B000A04070470003005070B505790A4C1423EE
:1038C0006B43E618E35833B90068022119F090F809
:1038D00008B101233372142303FB0544207A023814
:1038E00018BF012070BD00BF844700202DE9F347B9
:1038F0000B7F04466BBBDFF8D8900D1F01F110065B
:1039000001F10C08012755F804AFBAF1FF3F1CD0B4
:103910003378CDF804A001A8002B50D0FFF7BCFFEE
:10392000019B07FA03F3C0F8083501A8CDF804A0FD
:10393000FFF7B2FF019B00EB8300D0F8003703EAEA
:10394000090343F00303C0F80037A84506F1010658
:10395000D9D191F81DC00D8B4F7D8E7D8A7EC87E9A
:103960002368BCF1000F0BD1D1E9008ED1E902C16F
:10397000C3F86085C3F864E5C3F868C5C3F86C157F
:1039800042EA0022C3F80C75C3F80465C3F8085571
:10399000C3F8102520680023C0F81031D0F810219A
:1039A000C0F80831D0F80821C0F80C31D0F80C313B
:1039B00040F3073002B0BDE8F047FDF70DB9FFF75F
:1039C0006BFF019B07FA03F3C0F80C35ADE700BFAE
:1039D000F0F8FCFF2DE9F04190F804800D4C14261E
:1039E00006FB08F6A71997F808C0BCF1000F0ED126
:1039F000A2517B6019B10B7F3B74FFF777FF142353
:103A000003FB0844044801232372BDE8F081034806
:103A1000FBE700BF844700200000AD0B0C00AD0B9E
:103A200070B40C460179266815461A461A4B01EB0C
:103A3000810103EB81010368C3F82065A688C3F800
:103A40002465A668C3F82865E668C3F82C65036892
:103A50002668C3F84065A688C3F84465A668C3F81D
:103A60004865E468C3F84C45046805F0010303EBBE
:103A70005505C4F81455D4070CD412F0020403D031
:103A8000002B14BF082404240568C5F8004270BC4C
:103A900018F079BF1024F7E78447002038B5036891
:103AA00005790022C3F800220368012204465A6007
:103AB00071B12046FFF700FF0028FAD023680022EA
:103AC000C3F80025054B142202FB053301221A72AC
:103AD0002046BDE83840FFF7EFBE00BF8447002016
:103AE00010B5B2211A4818F083FFC106044608D564
:103AF000184BDA68520704D51A6812B159680120C8
:103B00009047A00608D5134BDA68110704D51A6848
:103B100012B1596802209047220608D50D4BD8688B
:103B200010F0100003D11A680AB159689047A30732
:103B30000DD5074B0022C3F80025064B01221A724F
:103B40001A6822B1BDE8104059680320104710BD23
:103B500000C0014084470020036803F01F025B0996
:103B6000026004D0012B034818BF002070474FF0BB
:103B7000A040704700030050012370B504460D4675
:103B80004361642600220221204618F072FF20B90A
:103B9000012018F054FE013EF4D100236B774FF062
:103BA0008051D1E94C1208291AD1052A18D80E499A
:103BB0008A5CAAB14FF0FF32D4F80805D4F80C158E
:103BC000C4F80035C4F80825C4F80C250922C4F847
:103BD0000025C4F80035C4F80805C4F80C1570BDFC
:103BE0000023C4F80035FAE71E5B03000F4B984230
:103BF00019D00DD80E4B984215D007D80D4B9842CE
:103C000011D00D4BC31A5842584170470B4BF9E77E
:103C10000B4B984207D004D80A4B984203D00A4B6A
:103C2000F0E70A4BEEE70120704700BF80841E00DA
:103C300020A1070048E8010090D0030040420F0097
:103C40000024F40000093D0000127A000048E80159
:103C500073B51646421C1C460546069B18D0012922
:103C600002D1BBB118F043FF01A80195FFF774FF23
:103C7000019B00EB83002402D0F80027074B44EAA5
:103C800086040C4313401C4344EA4101C0F800176A
:103C900002B070BD18F038FFE6E700BFF0F8FCFF97
:103CA0002DE9F04F91F8213090F804A085B0074637
:103CB0000C46002B00F0B48091F8223003934FF0B3
:103CC00001086569784B9D4200F0C48000F2B48021
:103CD000764B9D4200F0C18000F2A680744B9D425D
:103CE00000F0BE80734B9D420CBF4FF080654FF0DB
:103CF0008045DFF8C49194F82300242202FB0A9344
:103D0000997F60F3000199773B79217C02FB039353
:103D10009A7F61F341029A7794F82360002E32D1A2
:103D20006269664B9A420CBF4FF0030B4FF0000BD9
:103D3000237E012B94BF00230123009320685B4660
:103D400032460121FFF784FF009660685B463246E9
:103D50000121FFF77DFF0096A27EA0685B463146F9
:103D6000FFF776FF237C83F001030093E0685B4656
:103D700032460121FFF76CFF01210091E0695B46AB
:103D80003246FFF765FF2423B8F1000F71D003FB23
:103D90000A934FF0FF321A62A07C217E627EE668B1
:103DA00094F8108094F824E094F820C03B68BEF1A9
:103DB000000F13D1D4E900BAD4F808E0E469C3F8DD
:103DC00008B5C3F80CA5C3F810E5C3F86C45039C0F
:103DD000C3F81465C3F86885C3F86445003A18BF92
:103DE00001220229C3F8C005C3F8245553D0032982
:103DF00054D0012901D142F00202C3F85425C3F87E
:103E000060C53B792422534359F80330002B48D036
:103E1000386840F3073005B0BDE8F04FFCF7DCBE72
:103E20009846022303934CE7254B9D420CBF4FF06D
:103E300080554FF080455CE7224B9D4213D01F4BCD
:103E40009D4213D0204B9D420CBF4FF000454FF0D8
:103E500080454EE74FF000554BE74FF0006548E7CF
:103E60004FF0007545E74FF0206542E74FF0A05551
:103E70003FE703FB0A9AE268CAF82020227C9AF8FE
:103E80001E3062F341038AF81E30A07C217E627EE0
:103E90004FF0FF3686E742F00402AEE742F006023A
:103EA000ABE705B0BDE8F08F80841E0020A10700BD
:103EB00048E8010090D003009C4700200048E8013A
:103EC00040420F000024F40000127A00431C07B5A2
:103ED0000ED0019001A8FFF73FFE019B00EB83008D
:103EE000054BD0F80027134043F00203C0F8003719
:103EF00003B05DF804FB00BFF0F8FCFF2DE9F843C8
:103F00000746144C97F80480242505FB08F504EBBC
:103F100005091E4699F81C30C3B999B14869FFF7E5
:103F200065FEA8B138466251C9F80460FFF7B8FED3
:103F3000242303FB084400236377074801232377E6
:103F4000BDE8F8836251C9F80460F1E70348F7E778
:103F50000348F5E79C4700200000AD0B0C00AD0BBB
:103F60000400AD0B2DE9F041044606790068214DAF
:103F700040F30730FCF73EFE24237343EB5853B164
:103F800023681D4AC3F8082306EBC601206805EB29
:103F90008101FFF7F1FD2421236801FB0651D3F8CD
:103FA0000805D3F80C75D3F810858B7FDB0714D484
:103FB000FFF78CFF4046FFF789FF3846FFF786FF83
:103FC000086AFFF783FF2368D3F86C05D3F814154C
:103FD000FFF77CFF0846FFF779FF2368074A934203
:103FE00004BF01225A60242303FB065500232B77CC
:103FF000BDE8F0819C4700205201080000F002401B
:104000002DE9F0430779DFF8AC8124237B43164682
:1040100008EB03020D46517F85B08146002940F030
:10402000C68058F8033023B116F0140F04BF0123E3
:10403000537795E80F00242404FB078404F10C0C4B
:104040008CE80F00206A431C04D0A37F99071AD57F
:1040500018F04DFD2968D9F8004021B101F0604306
:10406000B3F1005F06D1AB6883B103F06043B3F1F5
:10407000005F0BD0242303FB078300224E485A77AE
:1040800005B0BDE8F08318F03FFDE3E74B4B9C42E1
:1040900024D14FF080436A68D3F8000E484B186073
:1040A000E2B1484821F4FF5323F01F0383426ED846
:1040B0005018DFF814C1C3F34F3101228A400021A8
:1040C00003F50053984241EA02014FEA420201D946
:1040D0006345F5D34FF08043C3F8001E16F001038B
:1040E00018BF0123C4F8503516F0020318BF01238E
:1040F000C4F8403595E80F00EC468CE80F00039BB0
:10410000C4F84405C4F84815C4F83425C4F8383553
:104110000023C4F81831D4F8183116F008054FF010
:104120000703C4F800350FD124237B4358F803203C
:104130000123236142B9D4F81831002BFBD0624629
:104140004021204618F095FC24237B4358F8033087
:104150001BBB1A4B9C4201BF194B1A684FF080439E
:10416000C3F8002E242303FB0783186A421C04D0E3
:104170009B7F9B070ED518F0C7FC35B907EBC70727
:1041800008EB87012046FFF7F7FC104878E74FF46B
:1041900080719FE718F0ABFCEFE716F0040F4FF0CB
:1041A000400314BFC4F80833C4F80433EDE70848EB
:1041B00066E700BF9C4700200A00AD0B00F00240FC
:1041C00098470020FFFF0020002001200000AD0BD9
:1041D0000B00AD0B10B5134A1348402118F049FCF1
:1041E000F8B1124B124C1A684FF08043C3F8002EFE
:1041F000206A421C04D0A37F9B070FD518F084FCD3
:10420000637F1BB10A490848FFF7B6FC00232372FD
:104210000848D4E90031BDE81040184718F067FCA1
:10422000EEE710BDA847002000F0024098470020AC
:104230009C470020A447002030B500F01F0440092F
:1042400011D0012812D10C4800EB84001B02D0F8D9
:1042500000570A4C43EA82022C4042EA41012143C2
:10426000C0F8001730BD4FF0A040EDE704F5E07452
:10427000002353F82430FFDE00030050F0F8FCFF69
:10428000CB7B10B433B9D1E900420368C3F80845C9
:10429000C3F80C2503688A68C3F8242503793C22F7
:1042A0005343054AD3582BB1006810BC40F3073084
:1042B000FCF792BC10BC7047C047002013B53B4BC5
:1042C00001930023C0F80431D0F80421C0F8243150
:1042D000D0F82421C0F81C31D0F81C21C0F80831D6
:1042E000D0F80821C0F800324B6381F82F30012349
:1042F000036291F82D209A4218BF83604B6B8A6A43
:10430000934204460ED24A6AD35CC0F81C350B684F
:1043100003B340F286238B608B682548C4F80433CE
:1043200002B010BD91F82C3013B10123C361EEE748
:104330000B6A13F0400F4FF0010316BFC3614361D6
:1043400081F82D30E3E7204618F0EBFB28B1019B04
:10435000013B0193019B002BF5DC91F82F305BB9F9
:104360001348019B002BDBDC0023C4F80035052338
:104370001048C4F80035D3E7D4F8C434C4F8C434C2
:104380008BB10D4A0B4813F0010F18BF104613F004
:10439000020F02F1010218BF104613F0040F074B81
:1043A00018BF1846DDE70348DBE700BFA086010021
:1043B0000000AD0B0100AD0B0000AE0B0200AE0B18
:1043C00013B5334B01930023C0F80431D0F8042116
:1043D000C0F82431D0F82421C0F81C31D0F81C21B9
:1043E000C0F80831D0F808214B6381F82F308B6A70
:1043F000012B044617D10B6A5B0614D40223C4F8C0
:1044000000320123236291F82D20022A18BF236075
:104410000B688BB140F286238B608B681D48C4F813
:10442000043302B010BD0123E9E7204618F079FB00
:1044300028B1019B013B0193019B002BF5DC91F816
:104440002F305BB91348019B002BEADC0023C4F832
:10445000003505231048C4F80035E2E7D4F8C43429
:10446000C4F8C4348BB10D4A0B4813F0010F18BFC8
:10447000104613F0020F02F1010218BF104613F0AC
:10448000040F074B18BF1846DDE70348DBE700BF02
:10449000A08601000000AD0B0100AD0B0000AE0BCB
:1044A0000200AE0B2DE9F84390F804901C4E07462D
:1044B0003C2000FB09F035180C4695F82E1061BB26
:1044C000A96032506B6085F82D1085F8311085F8A1
:1044D0003010CCB1637B85F8383094F80E8085F8C5
:1044E0003980B8F1000F0BD1206806230322414622
:1044F000FFF7A2FE6068062303224146FFF79CFEF9
:1045000021463846FFF7BCFE3C2303FB09660548FD
:10451000012386F82E30BDE8F8830348FBE700BF8F
:10452000C04700200000AD0B0C00AD0B0368027902
:104530000521C3F80015044B3C2101FB0233022284
:1045400083F82E20704700BFC047002003680B4A45
:104550000179C3F80823D3F8002222F00302C3F83C
:1045600000220022C3F80025054B3C2000FB01334C
:10457000012183F82E1083F8302070478642040012
:10458000C04700202DE9F047314F0479D0F8009062
:104590003C2303FB04730D4693F82D30012B944606
:1045A00004D10B78012B06D12A4811E0022B02D14D
:1045B0000B78012BF8D13C26274BC9F8083306FBB2
:1045C000047696F830302BB1B3682448C9F8043328
:1045D000BDE8F0878CF00403C3F3800386F8303025
:1045E000C6F820C0A846B8E80F0006F10C0EAEE8E9
:1045F0000F00D8F80030CEF800306B68B362EB687B
:1046000073626B78C9F888352B78C4EB041A012BD8
:1046100007EB8A0A17D09BB9CCF3401C3C2303FB61
:1046200004735146484683F82CC0FFF747FE3C23ED
:104630005C433A193B59002BCAD182F83030C7E7A6
:104640004FF0010CEAE751464846FFF7B9FEEEE7A6
:10465000C04700200500AD0B864204000B00AD0BE7
:10466000F0B5324C324887B0214618F05AFA00288B
:1046700059D194F82F70FFB9227B931E012B1BD8C0
:10468000606AA369984217D1E36963626369A362B0
:10469000236A274884F82D70C3F34013032A84F853
:1046A0002C3004D107B0BDE8F040FFF707BE07B0DB
:1046B000BDE8F040FFF784BE1E4E0FCE01AD0FC522
:1046C00033682B6047B31A4AD2F8C434C2F8C434F2
:1046D00013F0020106D001238DF80030002384F886
:1046E000303007E013F0040209D002238DF80030C7
:1046F00084F83010D4E900316846984713E013F08D
:10470000010305D003238DF8003084F83020F1E751
:1047100004228DF80020E2E7236A8DF800705B0721
:1047200084F83070E6D507B0F0BD00BFC047002068
:1047300000300040CC470020036803F01F025B09F3
:10474000026004D0012B034818BF002070474FF0CF
:10475000A040704700030050F7B5064618F079FAFC
:10476000084618F076FA01A80196FFF7E5FF019BCD
:104770002E4D00EB83000C46D0F80037019440F238
:104780000D612B400B43C0F8003701A8FFF7D4FFA1
:10479000019B00EB83000127D0F800372B400B432F
:1047A000C0F80037042018F04AF8092501A8019440
:1047B000FFF7C2FF019AD0F81035D340DB0715D4BC
:1047C00001A80196FFF7B8FF019B07FA03F3C0F8B1
:1047D0000C35042018F033F8304618F03AFA013D51
:1047E000042018F02CF815F0FF05DFD101A8019482
:1047F000FFF7A2FF019A01239340C0F80C35042073
:1048000018F01DF8204618F024FA042018F017F8C4
:1048100001A80194FFF790FF019AD0F810350448E1
:10482000D34003F00103C01A03B0F0BDF0F8FCFF61
:104830000100AD0B0148202128F065BC3048002064
:10484000014B186C704700BFFC47002010B50446B0
:10485000064A074918F026FA63692BB120B92046A9
:104860000121BDE81040184710BD00BF63D202000F
:1048700057D2020010B50749074A044618F012FA49
:104880006369014623B118B92046BDE810401847B6
:1048900010BD00BF5DD202006BD2020010B5014610
:1048A000044800F009F8044608B119F033F920462D
:1048B00010BD00BFC84703002C4A70B506460D4620
:1048C00020B1036A1A4212D0C3F30F100BF0A2F802
:1048D000044648B1C0E900657DBB02F0F9FC06461C
:1048E00038B920460BF0A8F80024204670BD0068B7
:1048F000E6E7D0F8BC0208B9C6F8D852D6F8D81204
:10490000013189000BF0A2F80028EAD0D6F8D8329D
:10491000C6F8BC025A1C0025C6F8D82240F823402D
:10492000C4E90555284602F0E3FC0138E061284659
:1049300002F0EEFC01382062D7E7AB6813B92846D5
:1049400019F098F8AA68138E01331386AE68318E79
:10495000306889000BF07AF83060AA68138E12680C
:1049600003F18043013B42F82340BEE7F0FF0F0014
:1049700030B589B0002864D00023CDE904329DF819
:104980001C300391CDE9010023F0070301A88DF845
:104990001C300AF013FA06F0B1FC30B19DF81C305F
:1049A00013F0020446D1D80745D4019B9D6805B198
:1049B0000835012201A9284628F05DF9012804469E
:1049C00039D19DF81C0010F0020033D101A919F073
:1049D00002FE012804462ED19DF81C2012F002028E
:1049E00028D101A9284628F046F90128044622D1F9
:1049F0009DF81C3099071DD401981BF00FFF044649
:104A0000C0B19DF81C305A0714D4039B2B3B012BDB
:104A10000ED901984FF4804118F0EAFD50B1039B84
:104A2000163B1E2B04D8084A22FA03F3DB0701D4F5
:104A30000194B0E7012401A80AF0C8F9204609B0A2
:104A400030BD0124FAE700BFF19F78588268531EF9
:104A5000032B05D9192A05D8034BD340DB0701D511
:104A600028F0A5B90020704700DF3B0337B50B499C
:104A7000054618F0C3FD044610B1002003B030BD58
:104A800028461BF0CBFE0028F7D0162221461BF04B
:104A90006FF980B2003818BF0120EFE7010006006F
:104AA00007B5064B0022CDE9002334216A46FFF703
:104AB0005FFF009803B05DF804FB00BF010000E059
:104AC00007B5064A0023CDE9002334216A46FFF7E3
:104AD0004FFF019803B05DF804FB00BF010000E048
:104AE0002DE9F04F87B08146FFF7C0FF054600284B
:104AF00040F0188148461BF091FE08222946824664
:104B000048461BF035F9092205900446834629469C
:104B100048461BF02DF9064605900090BAF1000FAB
:104B200007D102462146484607B0BDE8F04F1AF0CB
:104B300085B9504619F0A6FF8046504619F0B2FFDD
:104B400004F0C043B3F1005F07461FD124F0C04416
:104B50006FF060439C4219D00122294650461BF059
:104B600007F96FF040439842059000F09480B4F14B
:104B7000805FA2BFC4F17F6404F57F2404F6FF7454
:104B800004FB08F44FF0640B94FBFBFB06F0C043FE
:104B9000B3F1005F1DD126F0C0446FF060439C422A
:104BA00017D00222002150461BF0E2F86FF040437C
:104BB0009842059071D0B4F1805F05DBC4F17F6449
:104BC00004F57F2404F6FF747C43642394FBF3F321
:104BD00000936C22002148461BF0CAF86D22002188
:104BE00005900390064648461BF0C2F809F11404EC
:104BF000CDE901000590204627F077FD05462046C7
:104C000027F078FD039B044603F0C040B0F1005F3D
:104C1000DDE9011212D123F0C0436FF060408342FE
:104C20000CD0B3F1805FA2BFC3F17F6303F57F2394
:104C300003F6FF736B43642693FBF6F602F0C04362
:104C4000B3F1005F12D122F0C0426FF060439A428C
:104C50000CD0B2F1805FA2BFC2F17F6202F57F2269
:104C600002F6FF726243642392FBF3F15E44DDF8C7
:104C700000B00A228B44484600211BF079F80590C9
:104C800010F0FF000BD1504619F007FD012825D187
:104C9000A8EB050521E0AB4678E7002494E702384D
:104CA00007281BD801A353F820F000BFCD4C00000B
:104CB000914C0000F34C0000E34C0000F94C000064
:104CC000054D0000FF4C0000154D000005EBD575AB
:104CD00008EBD8786D10C5EB68052E445A4631466E
:104CE00021E705EBD57508EBD8786D10C5EB6805A5
:104CF0002E443C1BA344F1E7A8EB0505F8E7A8EB1D
:104D000005052E4404EBD47407EBD7776410C4EB8D
:104D10006704EFE705EBD57508EBD8786D10C5EBA8
:104D20006805EEE707B0BDE8F08F00BF2DE9F04F52
:104D300090F82B3003F00C030C2B91B0044603D1F8
:104D4000002011B0BDE8F08F1BF068FD064600287A
:104D5000F6D094F82B1004F1140311F0080101931C
:104D600063D0184627F0C1FC94F82B1011F0040111
:104D7000074600F0AF81019827F0BCFC054601987A
:104D800027F0B3FC874200F08A8220461AF03FF8F1
:104D900063690893A3690993E3690A930CA9236AD9
:104DA0000B93304619F08EFE00220CA908A827F0BC
:104DB000FAF9804610B930461AF057FEA3691D442F
:104DC000013D2562204619F068FC01280BBFE3690C
:104DD0006369DB1BFF180BBF013307F1FF3763610A
:104DE000E76108AA31212046FFF7C2FD22462A21A9
:104DF0003046FFF7BDFD20461AF009F894F82A3036
:104E0000019843F0020384F82A3000220CA927F00D
:104E1000CAF9B8F1000F00D110B130461AF025FEE2
:104E2000204619F0B0FB01208BE7012220461AF042
:104E30009FFF00F0C043B3F1005F80460C90054631
:104E4000304605D128F0C0476FF060439F4234D10F
:104E500019F018FE6FF040439845029040F0A4808E
:104E600020461AF00BFAA36803900BB100221A62D5
:104E7000204619F003FD8046204619F017FC8246B3
:104E80002046FFF70DFE0AEB000520461BF0FCFC58
:104E90000490204619F001FC0128DFF830924544C7
:104EA0004FF0000B75D0049AA3685A4540F0A080DB
:104EB000864A914574D0C8448EE019F0E3FD6FF046
:104EC000404845450290CBD096F82B1011F00801D0
:104ED00040F0DD80012230461AF04AFF40450C9038
:104EE00040F0D580204619F0E1FB0546204619F038
:104EF000C5FC054458E01B68754953F82B703846CB
:104F000018F07CFB002842D13846FFF7AFFD014680
:104F100060B90A2238461AF02BFF0C90C0B208285C
:104F200009D840F24913C340DA0704D5E3697A6926
:104F30009B1A013317E00822002138461AF018FFA7
:104F40000C90002844D1069007F1140027F0CDFB07
:104F5000069908EB00031A22384605931AF008FF59
:104F6000059B0C9003441A220021384605931AF041
:104F7000FFFE059B0C901844484508DB1A220021CF
:104F800038461AF0F5FE059B0C9003EB00090BF177
:104F9000010B049AA3685A45ADD14C4A914519D1E9
:104FA00013B1039A52421A620422002120461AF0D9
:104FB000DFFE052207460C90002120461AF0D8FE9D
:104FC000029B0C900246394628461AF00FF8CBE6B1
:104FD0003E4BC8E70AEB0908A26812B1039B5B428B
:104FE00013623A4B9845DFD04545B8BF4546DBE7ED
:104FF0001B68374953F82B70384618F0FFFA002821
:1050000040D13846FFF732FD014658B90A223846EA
:105010001AF0AEFE0C90C0B2072808D89323C34004
:10502000DB0704D5FB6962699B1A013316E008228D
:10503000002138461AF09CFE0C9030BB069007F118
:10504000140027F052FB06990AEB00031B22384696
:1050500005931AF08DFE059B0C9003441B22002142
:10506000384605931AF084FE059B0C901844484579
:1050700008DB1B22002138461AF07AFE059B0C90B3
:1050800003EB00090BF1010B0DE7104BE6E7B7F15D
:10509000805FA4BFC7F17F6707F57F27029BA8BF8A
:1050A00007F6FF771A22002120465F43642397FB0F
:1050B000F3F71AF05DFE1B2205460C9000212046F6
:1050C0001AF056FE0C9028443D1A6DE7010000E0EE
:1050D00001000400022220461AF04AFE00F0C043FC
:1050E000B3F1005F81460C900546304605D129F0AA
:1050F000C0486FF06043984549D119F0D3FC6FF078
:105100004043994582462ED120461AF0BCF8A36848
:1051100004900BB100225A62204619F095FB0290D0
:10512000204619F077FB03902046FFF7C9FC029B4D
:10513000DFF878911D18039B20461D441BF0A4FB4B
:105140004FF0000B0590059AA3685A453BD113B167
:10515000049A52425A62554B994504D0039B4B44E2
:105160009D42B8BF1D460622002120461AF000FECF
:10517000072280460C90002120461AF0F9FD534684
:1051800002460C904146284619F030FFF6E519F02A
:1051900089FC6FF040494D458246B5D096F82B10FA
:1051A00011F004015CD1022230461AF0E1FD4845BD
:1051B0000C9055D1204619F047FB0546204619F0C2
:1051C00029FB0544CFE71B68394953F82B8040463B
:1051D00018F014FA00283ED14046FFF747FC01467C
:1051E00048B906900A2240461AF0C2FD0C90C0B29F
:1051F0000328069905D8D8F82030A2699B1A0133F4
:1052000015E0092240461AF0B3FD0C9030BB079020
:1052100008F1140027F06EFA029B07990344182244
:10522000404606931AF0A4FD069B0C9003441922F5
:105230000021404606931AF09BFD069B0C901844F3
:10524000484508DB1922002140461AF091FD069BD3
:105250000C9003EB00090BF1010B74E7134BE6E72D
:10526000B8F1805FA2BFC8F17F6808F57F2808F613
:10527000FF780AFB08F36422002193FBF2F8204632
:1052800018221AF075FD192205460C9000212046BF
:105290001AF06EFD0C902844A8EB000563E7019816
:1052A00027F028FA85427FF470AD49E5010000E05F
:1052B0000100040038B50D4D95F8603063B9012345
:1052C00085F860301BF0A2FA044694F82A3013F0F7
:1052D000040202D185F8602038BD6FF3820384F8A0
:1052E0002A30204619F0BCFEEFE700BFFC47002043
:1052F0002DE9F04F85B00E46DDF83890074693460D
:105300009846FFF7D7FF1EB938461BF087FA0646C6
:1053100038461BF083FA824619F0C8F901905046CE
:1053200019F092FA0290304619F0C0F9054630465D
:1053300019F08AFA0446BBF1000F10D1304619F07B
:10534000ACF9012874D1304619F09CFB834607F173
:10535000140027F0CAF9ABEB000B5D4468E00BF1D9
:10536000FF3BBBF1140F2DD801A353F82BF000BF66
:10537000315400001154000047530000075500004D
:105380001F5500005955000081550000A15500002F
:10539000CB530000C9550000D55500000156000050
:1053A00019560000255600005156000069560000AD
:1053B00077560000A3560000C3560000CF560000E9
:1053C000E95600000024002532E0304619F05AFB6F
:1053D00007F1140B0390584627F087F9039B00EB65
:1053E000D07003EBD3734010C0EB6300054430462C
:1053F00019F058FB0390584627F07CF9039B00EB0B
:10540000D07003EBD3734010C0EB630004440FE093
:10541000304619F037FB834607F1140027F065F991
:1054200000EBD0700BEBDB7B4010C0EB6B00054456
:1054300008F0C043B3F1005F18D128F0C04B6FF003
:1054400060439B4512D006F1140027F04EF9BBF1E2
:10545000805FA2BFCBF17F6B0BF57F2B0BF6FF7B41
:1054600000FB0BFB4FF064089BFBF8F809F0C0430E
:10547000B3F1005F18D129F0C04B6FF060439B453A
:1054800012D006F1140027F035F9BBF1805FA2BFFE
:10549000CBF17F6B0BF57F2B0BF6FF7B00FB0BFB40
:1054A0004FF064099BFBF9F9504619F0F6F8012812
:1054B0007369DAF8142040F0248143445046A3EB8A
:1054C000020800F0C9F9019B8044A8EB0308B36906
:1054D0009944DAF818305046A9EB030919F0D8FEC0
:1054E000029B8144002238460121A9EB03091BF0ED
:1054F0001AF945444C4422462946384605B0BDE8D1
:10550000F04F19F003BA304619F0CCFA834607F190
:10551000140027F0EFF8ABEB000B5C4488E7304653
:1055200019F0B0FA07F1140B0390584627F0DDF894
:10553000039B00EBD07003EBD3734010C0EB630010
:105540000544304619F0AEFA0390584627F0D2F8D9
:10555000039B1B1A1C446BE7304619F093FA07F1C2
:10556000140383461846039327F0BFF8ABEB000BF8
:10557000304619F097FA039B5D4483461846C8E706
:10558000304619F08FFA834607F1140027F0B2F87D
:1055900000EBD0700BEBDB7B4010C0EB6B0035E712
:1055A000304619F06FFA07F1140383461846039347
:1055B00027F09BF8ABEB000B304619F073FA039B16
:1055C0005D4483461846E1E707F1140027F092F89E
:1055D0004442F8E606F1140027F087F807F11404B6
:1055E0000546204627F081F805EBD57300EBD07512
:1055F0006D10C5EB6305204627F07CF8444217E7A1
:1056000006F1140027F071F807F11404054620464E
:1056100027F06BF82D1AEEE706F1140027F06AF870
:105620000446D0E606F11404204627F05EF805464D
:1056300007F1140027F059F805EBD57300EBD0758E
:105640006D10C5EB6305204627F054F80446EFE6DD
:1056500006F11404204627F048F8054607F1140027
:1056600027F043F82D1AEEE707F1140027F03DF874
:1056700045420024DCE607F1140B584627F035F8C4
:10568000454206F1140027F035F80446584627F045
:1056900031F804EBD47300EBD0746410C4EB6304F2
:1056A000C6E607F1140B584627F01FF8454206F1ED
:1056B000140027F01FF80446584627F01BF8241A58
:1056C000B6E606F1140027F010F80546D1E706F11A
:1056D0001404204627F009F80546204627F00AF86A
:1056E000044607F11400D2E706F11404204626F020
:1056F000FCFF0546204626F0FDFF044607F1140096
:10570000DBE798445046A8EB020800F04DF8DAE6D3
:105710002DE9F34704461BF0B7F8214EDFF88480EB
:1057200007460025BD4224D1204619F015FD8046CC
:10573000204619F0F7FC1A4B9E4218BF236A074611
:1057400018BF1B1A204618BFF61AFFF7B9F905460D
:10575000204619F094F9A0EB0800C01B2D1A204632
:1057600019F091FD281AB042B8BF304602B0BDE82A
:10577000F087A3681B6853F825A04146504617F0F0
:105780003DFF014650B919225046DAF820901AF030
:10579000EFFA81444E450190B8BF4E460135C1E74E
:1057A000010000E0010004002DE9F74F002105464B
:1057B00019F08CFC012806D0A86808B1006A4042A4
:1057C00003B0BDE8F08F284619F0E0FC804628467B
:1057D00019F08EFC074628461BF056F86FF060441F
:1057E00081460026B1451BD16FF060439C4216BF35
:1057F0006E69174EF619284618BF361BFFF750F989
:105800000446284619F038F9A0EB0800C01B241AFA
:10581000284619F033FD2044B042B8BF3046CFE7E8
:10582000AB680C491B6853F826A0504617F0E6FEFB
:10583000014658B91A225046DAF814B01AF098FA0C
:10584000ABEB000B5C450190A8BF5C460136C9E795
:10585000010000E0010004002DE9F34700210546A6
:1058600019F034FC012805D1A86800B1006A02B023
:10587000BDE8F08728461BF007F8204EDFF880804F
:1058800007460024A74222D1284619F07FFC07468C
:10589000284619F02DFC194B9E4218BFEB69804633
:1058A00018BFDB1B284618BFF61AFFF7F9F80446A5
:1058B000284619F0E1F8C01BA0EB0800241A28467E
:1058C00019F0DCFC201AB042B8BF3046CFE7AB6815
:1058D0001B6853F824A04146504617F08FFE01463E
:1058E00050B91B225046DAF81C901AF041FA814454
:1058F0004E450190B8BF4E460134C3E7010000E0B9
:105900000100040038B50D460C49044609F080F842
:1059100058B1C06A404228600949204609F078F829
:1059200038B1C06A4042686038BD204619F0A6FC14
:10593000F1E7204619F0A7FCF5E700BFF1F20100FE
:10594000DBF20100F0B51F4651EA020399B00446AC
:105950000D4616465FD0002F5FD000F065FC07466D
:10596000684609F017F82146684626F0A8FA394932
:10597000684626F0B9FA35B3384601F0B9FC4FF461
:10598000C872C821401026F056FA0146684626F033
:105990009AFA204619F072FC2A1A4142684626F00B
:1059A00097FA2D49684626F08CFA2C49684626F06D
:1059B00095FA6A460C212046FEF7DAFF01282AD123
:1059C000684609F033F936B3384601F0A1FC4FF4CC
:1059D000C872C821401026F02EFA0146684626F00B
:1059E00072FA204619F04FFC321A4142684626F0FE
:1059F0006FFA1B49684626F064FA1849684626F093
:105A00006DFA6A460C212046FEF7B2FF012802D14A
:105A1000684609F00BF919B0F0BD114908F0D4FF40
:105A20000D49204608F0D0FF3A460C212046FEF7EB
:105A30009FFF0128EFD132462946204619F02AFC63
:105A40000128E8D13A460E21204619B0BDE8F040C1
:105A5000FEF78EBFDDF00100F1F2010079BE020019
:105A6000DBF2010070B504460D460749164608F002
:105A7000ABFF204619F002FC3346411B00222046B2
:105A8000BDE8704019F03FBCF1F2010070B504466A
:105A90000D460749164608F097FF204619F0F3FB1C
:105AA0003346421B00212046BDE8704019F02BBC54
:105AB000DBF201002DE9F04F89B0804608460291E3
:105AC000914603931AF0AAFE1021064617F090FDA6
:105AD000002800F00681304619F0BAFB01903046EC
